{"contracts/src/Main.sol":{"Main":{"abi":[{"inputs":[],"stateMutability":"nonpayable","type":"constructor"},{"inputs":[{"internalType":"address","name":"owner","type":"address"}],"name":"OwnableInvalidOwner","type":"error"},{"inputs":[{"internalType":"address","name":"account","type":"address"}],"name":"OwnableUnauthorizedAccount","type":"error"},{"anonymous":false,"inputs":[{"indexed":true,"internalType":"address","name":"previousOwner","type":"address"},{"indexed":true,"internalType":"address","name":"newOwner","type":"address"}],"name":"OwnershipTransferred","type":"event"},{"inputs":[{"internalType":"string","name":"id","type":"string"},{"internalType":"string","name":"name","type":"string"},{"internalType":"uint256","name":"cardCount","type":"uint256"},{"components":[{"internalType":"uint256","name":"id","type":"uint256"},{"internalType":"string","name":"name","type":"string"},{"internalType":"string","name":"uri","type":"string"}],"internalType":"struct Collection.Card[]","name":"_cards","type":"tuple[]"}],"name":"createCollectionWithCards","outputs":[],"stateMutability":"nonpayable","type":"function"},{"inputs":[{"internalType":"string","name":"id","type":"string"}],"name":"getCardsInCollection","outputs":[{"components":[{"internalType":"uint256","name":"id","type":"uint256"},{"internalType":"string","name":"name","type":"string"},{"internalType":"string","name":"uri","type":"string"}],"internalType":"struct Collection.Card[]","name":"","type":"tuple[]"}],"stateMutability":"view","type":"function"},{"inputs":[{"internalType":"string","name":"id","type":"string"}],"name":"getCollectionById","outputs":[{"internalType":"contract Collection","name":"","type":"address"}],"stateMutability":"view","type":"function"},{"inputs":[],"name":"getCollections","outputs":[{"internalType":"contract Collection[]","name":"","type":"address[]"}],"stateMutability":"view","type":"function"},{"inputs":[{"internalType":"address","name":"to","type":"address"}],"name":"getUserCardsDetailed","outputs":[{"components":[{"internalType":"uint256","name":"id","type":"uint256"},{"internalType":"string","name":"name","type":"string"},{"internalType":"string","name":"uri","type":"string"}],"internalType":"struct Collection.Card[]","name":"","type":"tuple[]"}],"stateMutability":"view","type":"function"},{"inputs":[{"internalType":"string","name":"collectionId","type":"string"},{"internalType":"address","name":"to","type":"address"},{"components":[{"internalType":"uint256","name":"id","type":"uint256"},{"internalType":"string","name":"name","type":"string"},{"internalType":"string","name":"uri","type":"string"}],"internalType":"struct Collection.Card","name":"card","type":"tuple"}],"name":"mint","outputs":[{"internalType":"uint256","name":"","type":"uint256"}],"stateMutability":"nonpayable","type":"function"},{"inputs":[],"name":"owner","outputs":[{"internalType":"address","name":"","type":"address"}],"stateMutability":"view","type":"function"},{"inputs":[],"name":"renounceOwnership","outputs":[],"stateMutability":"nonpayable","type":"function"},{"inputs":[{"internalType":"address","name":"newOwner","type":"address"}],"name":"transferOwnership","outputs":[],"stateMutability":"nonpayable","type":"function"}],"evm":{"bytecode":{"linkReferences":{},"object":"6080806040523460725760008054738626f6940e2eb28930efb4cef49b2d1f2c9c11996001600160a01b0319821681178355916001600160a01b03909116907f8be0079c531659141344cd1fd0a4f28419497f9722a3daafe3b4186f6b6457e09080a36001805561313090816100788239f35b600080fdfe608080604052600436101561001357600080fd5b60003560e01c9081631738f711146109645750806346e6358614610881578063715018a6146108285780637234e920146106195780637b287a47146105bc5780638da5cb5b14610593578063e03c83a6146101d2578063ed2b3e32146101105763f2fde38b1461008257600080fd5b3461010b57602036600319011261010b5761009b610d2e565b6100a3610e9a565b6001600160a01b031680156100f557600080546001600160a01b03198116831782556001600160a01b0316907f8be0079c531659141344cd1fd0a4f28419497f9722a3daafe3b4186f6b6457e09080a3005b631e4fbdf760e01b600052600060045260246000fd5b600080fd5b3461010b57602036600319011261010b576001600160a01b03610131610d2e565b1660005260046020526040600020805461014a81610c4c565b916101586040519384610c2b565b818352602083019060005260206000206000915b83831061018d576040516020808252819061018990820188610b8d565b0390f35b600360206001926040516101a081610c10565b855481526101af858701610df6565b838201526101bf60028701610df6565b604082015281520192019201919061016c565b3461010b57606036600319011261010b576004356001600160401b03811161010b57610202903690600401610b18565b6024356001600160a01b03811692919083900361010b57604435916001600160401b03831161010b5761023b6000933690600401610cc5565b91610244610e9a565b806040519283378101906003825260208160018060a01b039303019020541692602061029a6040840195865160405196878094819363335f94f360e21b8352886004840152604060248401526044830190610b68565b03925af192831561058757600093610553575b506000526004602052604060002080549068010000000000000000821015610469576001820180825582101561053d576000526003602060002091020190805182556020600183019101518051906001600160401b038211610469576103138354610dbc565b601f81116104f5575b50602090601f831160011461048a576002949392916000918361047f575b50508160011b916000199060031b1c19161790555b019151908151926001600160401b0384116104695761036e8154610dbc565b93601f8511610421575b602094508493601f82116001146103be5793819293946000926103b3575b50508160011b916000199060031b1c19161790555b604051908152f35b015190508580610396565b601f1982169483600052806000209160005b87811061040a5750836001959697106103f1575b505050811b0190556103ab565b015160001960f88460031b161c191690558580806103e4565b9192886001819286850151815501940192016103d0565b816000526020600020601f820160051c8101956020831061045f575b601f0160051c01945b8581106104535750610378565b60008155600101610446565b909550859061043d565b634e487b7160e01b600052604160045260246000fd5b01519050878061033a565b90601f1983169184600052816000209260005b8181106104dd5750916001939185600298979694106104c4575b505050811b01905561034f565b015160001960f88460031b161c191690558780806104b7565b9293602060018192878601518155019501930161049d565b836000526020600020601f840160051c81019160208510610533575b601f0160051c01905b818110610527575061031c565b6000815560010161051a565b9091508190610511565b634e487b7160e01b600052603260045260246000fd5b9092506020813d60201161057f575b8161056f60209383610c2b565b8101031261010b575191846102ad565b3d9150610562565b6040513d6000823e3d90fd5b3461010b57600036600319011261010b576000546040516001600160a01b039091168152602090f35b3461010b57602036600319011261010b576004356001600160401b03811161010b5760206105ef81923690600401610b18565b9190826040519384928337600390820190815203019020546040516001600160a01b039091168152f35b3461010b57608036600319011261010b576004356001600160401b03811161010b57610649903690600401610b18565b6024356001600160401b03811161010b57610668903690600401610b18565b90606435916001600160401b03831161010b573660238401121561010b57826004013561069481610c4c565b936106a26040519586610c2b565b8185526024602086019260051b8201019036821161010b5760248101925b8284106107f957505050506106d3610e9a565b6040519261223790818501918583106001600160401b0384111761046957859461073c9461072692610ec4883960a0855261071260a086018a8c610d9b565b913060208701528583036040870152610d9b565b9160443560608201526080818403910152610b8d565b03906000f08015610587576001546001600160ff1b0381146107e35760018101600155600052600260205260406000209060018060a01b03166bffffffffffffffffffffffff60a01b825416179055610796600154610d89565b6000526002602052602060018060a01b03604060002054169282604051938492833760039082019081520301902080546001600160a01b0319166001600160a01b03909216919091179055005b634e487b7160e01b600052601160045260246000fd5b83356001600160401b03811161010b5760209161081d839260243691870101610cc5565b8152019301926106c0565b3461010b57600036600319011261010b57610841610e9a565b600080546001600160a01b0319811682556001600160a01b03167f8be0079c531659141344cd1fd0a4f28419497f9722a3daafe3b4186f6b6457e08280a3005b3461010b57600036600319011261010b5760015461089e81610d89565b906108c16108ab83610c4c565b926108b96040519485610c2b565b808452610c4c565b602083019190601f190136833760015b8181126109265782846040519182916020830190602084525180915260408301919060005b818110610904575050500390f35b82516001600160a01b03168452859450602093840193909201916001016108f6565b6000818152600260205260409020546001600160a01b03169061094881610d89565b91855183101561053d57602060019360051b87010152016108d1565b3461010b57602036600319011261010b576004356001600160401b03811161010b5760049161099860009236908501610b18565b80918337600390820190815281900360200190205460405163b0df9e5360e01b815292839182906001600160a01b03165afa908115610587576000916109ef575b6040516020808252819061018990820185610b8d565b3d8083833e6109fe8183610c2b565b810190602081830312610b10578051906001600160401b038211610b14570181601f82011215610b1057805192610a3484610c4c565b92610a426040519485610c2b565b84845260208085019560051b84010192818411610b105760208101955b848710610a765750505050506101899150906109d9565b86516001600160401b038111610b0c5782016060818503601f190112610b0c5760405190610aa382610c10565b6020810151825260408101516001600160401b038111610b0857856020610acc92840101610d44565b60208301526060810151906001600160401b038211610b085791610af886602080969481960101610d44565b6040820152815201960195610a5f565b8680fd5b8480fd5b8280fd5b8380fd5b9181601f8401121561010b578235916001600160401b03831161010b576020838186019501011161010b57565b60005b838110610b585750506000910152565b8181015183820152602001610b48565b90602091610b8181518092818552858086019101610b45565b601f01601f1916010190565b9080602083519182815201916020808360051b8301019401926000915b838310610bb957505050505090565b9091929394602080610c01600193601f19868203018752895190815181526040610bf0858401516060878501526060840190610b68565b920151906040818403910152610b68565b97019301930191939290610baa565b606081019081106001600160401b0382111761046957604052565b90601f801991011681019081106001600160401b0382111761046957604052565b6001600160401b0381116104695760051b60200190565b6001600160401b03811161046957601f01601f191660200190565b81601f8201121561010b57803590610c9582610c63565b92610ca36040519485610c2b565b8284526020838301011161010b57816000926020809301838601378301015290565b919060608382031261010b5760405190610cde82610c10565b81938035835260208101356001600160401b03811161010b5782610d03918301610c7e565b60208401526040810135916001600160401b03831161010b57604092610d299201610c7e565b910152565b600435906001600160a01b038216820361010b57565b81601f8201121561010b578051610d5a81610c63565b92610d686040519485610c2b565b8184526020828401011161010b57610d869160208085019101610b45565b90565b9060001982019182136001166107e357565b908060209392818452848401376000828201840152601f01601f1916010190565b90600182811c92168015610dec575b6020831014610dd657565b634e487b7160e01b600052602260045260246000fd5b91607f1691610dcb565b9060405191826000825492610e0a84610dbc565b8084529360018116908115610e785750600114610e31575b50610e2f92500383610c2b565b565b90506000929192526020600020906000915b818310610e5c575050906020610e2f9282010138610e22565b6020919350806001915483858901015201910190918492610e43565b905060209250610e2f94915060ff191682840152151560051b82010138610e22565b6000546001600160a01b03163303610eae57565b63118cdaa760e01b6000523360045260246000fdfe608060405234610ae6576122378038038061001981610aeb565b928339810160a082820312610ae65781516001600160401b038111610ae65781610044918401610b10565b602083015190926001600160a01b03821691829003610ae65760408101516001600160401b038111610ae6578361007c918301610b10565b9360608201519160808101519060018060401b038211610ae657019380601f86011215610ae6578451946001600160401b03861161075f578560051b6020806100c6818401610aeb565b80998152019183010191838311610ae65760208101915b838310610a445750505050506040926100f584610aeb565b600381526254434760e81b602082015286516001600160401b03811161075f57600054600181811c91168015610a3a575b602082101461073f57601f81116109d6575b50806020601f821160011461097057600091610965575b508160011b916000199060031b1c1916176000555b8051906001600160401b03821161075f5760015490600182811c9216801561095b575b602083101461073f5781601f8493116108eb575b50602090601f831160011461088357600092610878575b50508160011b916000199060031b1c1916176001555b801561086257600780546001600160a01b0319811683179091556001600160a01b03167f8be0079c531659141344cd1fd0a4f28419497f9722a3daafe3b4186f6b6457e0600080a38051906001600160401b03821161075f57600b5490600182811c92168015610858575b602083101461073f5781601f8493116107e8575b50602090601f831160011461078057600092610775575b50508160011b916000199060031b1c191617600b555b83516001600160401b03811161075f57600854600181811c91168015610755575b602082101461073f57601f81116106da575b50602094601f821160011461067057948192939495600092610665575b50508160011b916000199060031b1c1916176008559190915b6009556000915b81518310156106585760009260208160051b84010151600c5468010000000000000000811015610644576001810180600c5581101561063057600c865281516003919091027fdf6966c971051c3d54ec59162606531493a51404a002842f56009d7e5cf4a8c78101918255602083015180519092917fdf6966c971051c3d54ec59162606531493a51404a002842f56009d7e5cf4a8c801906001600160401b03811161061c578154600181811c91168015610612575b60208210146105fe579081601f89959493116105aa575b50602094601f8211600114610542576002949582918c92610537575b50508160011b916000199060031b1c19161790555b0191015180519060018060401b038211610523578254600181811c91168015610519575b602082101461050557601f81116104c0575b50602090601f831160011461045c57908291600196979892610451575b5050600019600383901b1c191690841b1790555b0191906102e4565b015190503880610435565b601f198316848952828920985b8181106104a8575091600196979891848895941061048f575b505050811b019055610449565b015160001960f88460031b161c19169055388080610482565b92986020600181928c8601518155019a019301610469565b83885260208820601f840160051c810191602085106104fb575b601f0160051c01905b8181106104f05750610418565b8881556001016104e3565b90915081906104da565b634e487b7160e01b88526022600452602488fd5b90607f1690610406565b634e487b7160e01b87526041600452602487fd5b0151905038806103cd565b828b52858b2090601f1983168c5b81811061058f5750968392916001946002989910610576575b505050811b0190556103e2565b015160001960f88460031b161c19169055388080610569565b8289015184556020988901988c985060019094019301610550565b9091809394508a5260208a20601f830160051c810191602084106105f4575b90601f8a96959493920160051c01905b8181106105e657506103b1565b8b81558995506001016105d9565b90915081906105c9565b634e487b7160e01b8a52602260045260248afd5b90607f169061039a565b634e487b7160e01b89526041600452602489fd5b634e487b7160e01b86526032600452602486fd5b634e487b7160e01b86526041600452602486fd5b516116bb9081610b7c8239f35b0151905038806102c4565b601f198216956008600052806000209160005b8881106106c2575083600195969798106106a9575b505050811b016008559190916102dd565b015160001960f88460031b161c19169055388080610698565b91926020600181928685015181550194019201610683565b60086000527ff3f7a9fe364faab93b216da50a3214154f22a0a2b415b23a84c8169e8b636ee3601f830160051c81019160208410610735575b601f0160051c01905b81811061072957506102a7565b6000815560010161071c565b9091508190610713565b634e487b7160e01b600052602260045260246000fd5b90607f1690610295565b634e487b7160e01b600052604160045260246000fd5b01519050388061025e565b600b60009081528281209350601f198516905b8181106107d057509084600195949392106107b7575b505050811b01600b55610274565b015160001960f88460031b161c191690553880806107a9565b92936020600181928786015181550195019301610793565b600b6000529091507f0175b7a638427703f0dbe7bb9bbf987a2551717b34e79f33b5b1008d1fa01db9601f840160051c8101916020851061084e575b90601f859493920160051c01905b81811061083f5750610247565b60008155849350600101610832565b9091508190610824565b91607f1691610233565b631e4fbdf760e01b600052600060045260246000fd5b0151905038806101b2565b600160009081528281209350601f198516905b8181106108d357509084600195949392106108ba575b505050811b016001556101c8565b015160001960f88460031b161c191690553880806108ac565b92936020600181928786015181550195019301610896565b60016000529091507fb10e2d527612073b26eecdfd717e6a320cf44b4afac2b0732d9fcbe2b7fa0cf6601f840160051c81019160208510610951575b90601f859493920160051c01905b818110610942575061019b565b60008155849350600101610935565b9091508190610927565b91607f1691610187565b90508801513861014f565b60008080528181209250601f198416905b8b8282106109be57505090836001949392106109a5575b5050811b01600055610164565b8a015160001960f88460031b161c191690553880610998565b60018495602093958493015181550194019201610981565b600080527f290decd9548b62a8d60345a988386fc84ba6bc95484008f6362f93160ef3e563601f830160051c81019160208410610a30575b601f0160051c01905b818110610a245750610138565b60008155600101610a17565b9091508190610a0e565b90607f1690610126565b82516001600160401b038111610ae6578201906060828703601f190112610ae65760405190606082016001600160401b0381118382101761075f576040908152602084015183528301516001600160401b038111610ae657876020610aab92860101610b10565b60208301526060830151916001600160401b038311610ae657610ad688602080969581960101610b10565b60408201528152019201916100dd565b600080fd5b6040519190601f01601f191682016001600160401b0381118382101761075f57604052565b81601f82011215610ae6578051906001600160401b03821161075f57610b3f601f8301601f1916602001610aeb565b9282845260208383010111610ae65760005b828110610b6657505060206000918301015290565b80602080928401015182828701015201610b5156fe608080604052600436101561001357600080fd5b60003560e01c90816301ffc9a714610d905750806306fdde0314610ceb578063081812fc14610cad578063095ea7b314610bbe5780631b6cde1014610ba057806323b872dd14610b8957806342842e0e14610b5f5780635d1ca631146108205780636352211e14610b2f57806370a0823114610ad9578063715018a614610a7c5780638da5cb5b14610a535780638dc107681461098557806395d89b41146108dd578063a22cb4651461083c578063af640d0f14610820578063b0df9e53146106c5578063b88d4fde14610663578063c87b56dd14610644578063cd7e53cc146102eb578063e5326ab114610206578063e985e9c5146101ab5763f2fde38b1461011c57600080fd5b346101a65760203660031901126101a657610135610e5d565b61013d611628565b6001600160a01b0316801561019057600780546001600160a01b0319811683179091556001600160a01b03167f8be0079c531659141344cd1fd0a4f28419497f9722a3daafe3b4186f6b6457e0600080a3005b631e4fbdf760e01b600052600060045260246000fd5b600080fd5b346101a65760403660031901126101a6576101c4610e5d565b6101cc610e73565b9060018060a01b0316600052600560205260406000209060018060a01b0316600052602052602060ff604060002054166040519015158152f35b346101a65760003660031901126101a657604051600060085461022881610ec3565b80845290600181169081156102c75750600114610268575b6102648361025081850382610efd565b604051918291602083526020830190610e38565b0390f35b600860009081527ff3f7a9fe364faab93b216da50a3214154f22a0a2b415b23a84c8169e8b636ee3939250905b8082106102ad57509091508101602001610250610240565b919260018160209254838588010152019101909291610295565b60ff191660208086019190915291151560051b840190910191506102509050610240565b346101a65760403660031901126101a657610304610e5d565b60243567ffffffffffffffff81116101a657366023820112156101a657610335903690602481600401359101611096565b9061033e611628565b600a54600019811461062e57600101600a819055906001600160a01b031680156106185760009082825260026020528260018060a01b0360408420541691827fddf252ad1be2c89b69c2b068fc378daa952ba7f163c4a11628f55a4df523b3ef81151595866105e3575b83815260036020526040812060018154019055848152600260205260408120846bffffffffffffffffffffffff60a01b82541617905580a4506105cd5780600052600660205260406000209180519267ffffffffffffffff84116105b7576104108154610ec3565b93601f851161056f575b602094508085601f821160011461050d57600091610502575b508160011b916000199060031b1c19161790555b7ff8e1a15aba9398e019f0b49df1a4fde98ee17ae345cb5f6b5e2c27f5033e8ce783604051848152a16000806040926104d76104eb8551926104898785610efd565b6009845268026b4b73a32b2101d160bd1b8985015286519283916104c58b840196635821efa160e01b8852606060248601526084850190610e38565b83810360231901604485015290610e38565b88606483015203601f198101835282610efd565b51906a636f6e736f6c652e6c6f675afa5051908152f35b905083015186610433565b60008481528181209250601f198416905b8181106105585750908360019493921061053f575b5050811b019055610447565b85015160001960f88460031b161c191690558680610533565b91928860018192868a01518155019401920161051e565b816000526020600020601f820160051c810195602083106105ad575b601f0160051c01945b8581106105a1575061041a565b60008155600101610594565b909550859061058b565b634e487b7160e01b600052604160045260246000fd5b6339e3563760e11b600052600060045260246000fd5b600085815260046020526040902080546001600160a01b031916905582815260036020526040812080546000190190556103a8565b633250574960e11b600052600060045260246000fd5b634e487b7160e01b600052601160045260246000fd5b346101a65760203660031901126101a6576102646102506004356113f6565b346101a65760803660031901126101a65761067c610e5d565b610684610e73565b6064359167ffffffffffffffff83116101a657366023840112156101a6576106b96106c3933690602481600401359101611096565b9160443591611263565b005b346101a65760003660031901126101a657600c5467ffffffffffffffff81116105b757604051906106fc60208260051b0183610efd565b808252602082018091600c6000527fdf6966c971051c3d54ec59162606531493a51404a002842f56009d7e5cf4a8c7916000905b8282106107c857848660405191829160208301906020845251809152604083019060408160051b85010192916000905b82821061076f57505050500390f35b919360019193955060206107b88192603f198a82030186528851908151815260406107a7858401516060878501526060840190610e38565b920151906040818403910152610e38565b9601920192018594939192610760565b6040516060810181811067ffffffffffffffff8211176105b757600192600392602092604052875481526107fd858901610fd8565b8382015261080d60028901610fd8565b6040820152815201940191019092610730565b346101a65760003660031901126101a657610264610250610f1f565b346101a65760403660031901126101a657610855610e5d565b602435908115158092036101a6576001600160a01b03169081156108c857336000526005602052604060002082600052602052604060002060ff1981541660ff83161790556040519081527f17307eab39ab6107e8899845ad3d59bd9653f200f220920489ca2b5937696c3160203392a3005b50630b61174360e31b60005260045260246000fd5b346101a65760003660031901126101a65760405160006001546108ff81610ec3565b80845290600181169081156102c75750600114610926576102648361025081850382610efd565b600160009081527fb10e2d527612073b26eecdfd717e6a320cf44b4afac2b0732d9fcbe2b7fa0cf6939250905b80821061096b57509091508101602001610250610240565b919260018160209254838588010152019101909291610953565b346101a65760203660031901126101a657600435600c548110156101a657600390600c60005202807fdf6966c971051c3d54ec59162606531493a51404a002842f56009d7e5cf4a8c70154610264610a297fdf6966c971051c3d54ec59162606531493a51404a002842f56009d7e5cf4a8c9610a227fdf6966c971051c3d54ec59162606531493a51404a002842f56009d7e5cf4a8c88601610fd8565b9401610fd8565b610a456040519485948552606060208601526060850190610e38565b908382036040850152610e38565b346101a65760003660031901126101a6576007546040516001600160a01b039091168152602090f35b346101a65760003660031901126101a657610a95611628565b600780546001600160a01b031981169091556000906001600160a01b03167f8be0079c531659141344cd1fd0a4f28419497f9722a3daafe3b4186f6b6457e08280a3005b346101a65760203660031901126101a6576001600160a01b03610afa610e5d565b168015610b195760005260036020526020604060002054604051908152f35b6322718ad960e21b600052600060045260246000fd5b346101a65760203660031901126101a6576020610b4d6004356115f1565b6040516001600160a01b039091168152f35b346101a6576106c3610b7036610e89565b9060405192610b80602085610efd565b60008452611263565b346101a6576106c3610b9a36610e89565b916110cd565b346101a65760003660031901126101a6576020600954604051908152f35b346101a65760403660031901126101a657610bd7610e5d565b602435610be3816115f1565b33151580610c9a575b80610c6c575b610c575781906001600160a01b0384811691167f8c5be1e5ebec7d5bd14f71427d1e84f3dd0314c0f7b2291e5b200ac8c7c3b925600080a4600090815260046020526040902080546001600160a01b0319166001600160a01b03909216919091179055005b63a9fbf51f60e01b6000523360045260246000fd5b506001600160a01b038116600090815260056020908152604080832033845290915290205460ff1615610bf2565b506001600160a01b038116331415610bec565b346101a65760203660031901126101a657600435610cca816115f1565b506000526004602052602060018060a01b0360406000205416604051908152f35b346101a65760003660031901126101a65760405160008054610d0c81610ec3565b80845290600181169081156102c75750600114610d33576102648361025081850382610efd565b60008080527f290decd9548b62a8d60345a988386fc84ba6bc95484008f6362f93160ef3e563939250905b808210610d7657509091508101602001610250610240565b919260018160209254838588010152019101909291610d5e565b346101a65760203660031901126101a6576004359063ffffffff60e01b82168092036101a657602091632483248360e11b8114908115610dd2575b5015158152f35b6380ac58cd60e01b811491508115610e04575b8115610df3575b5083610dcb565b6301ffc9a760e01b14905083610dec565b635b5e139f60e01b81149150610de5565b60005b838110610e285750506000910152565b8181015183820152602001610e18565b90602091610e5181518092818552858086019101610e15565b601f01601f1916010190565b600435906001600160a01b03821682036101a657565b602435906001600160a01b03821682036101a657565b60609060031901126101a6576004356001600160a01b03811681036101a657906024356001600160a01b03811681036101a6579060443590565b90600182811c92168015610ef3575b6020831014610edd57565b634e487b7160e01b600052602260045260246000fd5b91607f1691610ed2565b90601f8019910116810190811067ffffffffffffffff8211176105b757604052565b60405190600082600b5491610f3383610ec3565b8083529260018116908115610fb95750600114610f59575b610f5792500383610efd565b565b50600b600090815290917f0175b7a638427703f0dbe7bb9bbf987a2551717b34e79f33b5b1008d1fa01db95b818310610f9d575050906020610f5792820101610f4b565b6020919350806001915483858901015201910190918492610f85565b60209250610f5794915060ff191682840152151560051b820101610f4b565b9060405191826000825492610fec84610ec3565b80845293600181169081156110585750600114611011575b50610f5792500383610efd565b90506000929192526020600020906000915b81831061103c575050906020610f579282010138611004565b6020919350806001915483858901015201910190918492611023565b905060209250610f5794915060ff191682840152151560051b82010138611004565b67ffffffffffffffff81116105b757601f01601f191660200190565b9291926110a28261107a565b916110b06040519384610efd565b8294818452818301116101a6578281602093846000960137010152565b6001600160a01b0390911691908215610618576000828152600260205260408120546001600160a01b03169383918590331515806111cb575b507fddf252ad1be2c89b69c2b068fc378daa952ba7f163c4a11628f55a4df523b3ef9082611196575b83815260036020526040812060018154019055848152600260205260408120846bffffffffffffffffffffffff60a01b82541617905580a46001600160a01b031680830361117c57505050565b6364283d7b60e01b60005260045260245260445260646000fd5b600085815260046020526040902080546001600160a01b0319169055828152600360205260408120805460001901905561112f565b915091925080611214575b156111e5579084849238611106565b8390856111fe57602491637e27328960e01b8252600452fd5b60449163177e802f60e01b825233600452602452fd5b503385148015611242575b806111d65750838152600460205260408120546001600160a01b031633146111d6565b5084815260056020908152604080832033845290915281205460ff1661121f565b92916112708183866110cd565b813b61127d575b50505050565b604051630a85bd0160e11b81523360048201526001600160a01b03948516602482015260448101919091526080606482015292169190602090829081906112c8906084830190610e38565b03816000865af18091600091611367575b509061133257503d1561132b573d6112f08161107a565b906112fe6040519283610efd565b81523d6000602083013e5b805190816113265782633250574960e11b60005260045260246000fd5b602001fd5b6060611309565b6001600160e01b03191663757a42ff60e11b01611353575038808080611277565b633250574960e11b60005260045260246000fd5b6020813d6020116113a9575b8161138060209383610efd565b810103126113a55751906001600160e01b0319821682036113a25750386112d9565b80fd5b5080fd5b3d9150611373565b610f5790929192602060405194826113d28794518092858088019101610e15565b83016113e682518093858085019101610e15565b010103601f198101845283610efd565b6113ff816115f1565b508060005260066020526114166040600020610fd8565b61141e611651565b8051156115eb5781516115e1575050611436816115f1565b5061143f611651565b8051909190600090156115ca5750808160009272184f03e93ff9f4daa797ed6e38ed64bf6a1f0160401b8110156115a4575b50806d04ee2d6d415b85acef8100000000600a921015611589575b662386f26fc10000811015611575575b6305f5e100811015611564575b612710811015611555575b6064811015611547575b101561153c575b600a602160018401936114d78561107a565b946114e56040519687610efd565b8086526114f4601f199161107a565b013660208701378401015b60001901916f181899199a1a9b1b9c1cb0b131b232b360811b8282061a83530490811561152e57600a906114ff565b5050611539916113b1565b90565b6001909101906114c5565b6064600291049301926114be565b612710600491049301926114b4565b6305f5e100600891049301926114a9565b662386f26fc100006010910493019261149c565b6d04ee2d6d415b85acef81000000006020910493019261148c565b6040935072184f03e93ff9f4daa797ed6e38ed64bf6a1f0160401b90049050600a611471565b915050604051906115dc602083610efd565b815290565b61153992506113b1565b50905090565b6000818152600260205260409020546001600160a01b0316908115611614575090565b637e27328960e01b60005260045260246000fd5b6007546001600160a01b0316330361163c57565b63118cdaa760e01b6000523360045260246000fd5b60405190611660604083610efd565b6016825275687474703a2f2f6c6f63616c686f73743a333030312f60501b602083015256fea264697066735822122032d25e5470608c3de272d676c44a0a4950d664fa290eac6bc792fef84da7fe1164736f6c634300081b0033a264697066735822122085c7975fd96feacc495a794a45bc8e9531d053ff5526d728f74b03ea369c7fa064736f6c634300081b0033","opcodes":"PUSH1 0x80 DUP1 PUSH1 0x40 MSTORE CALLVALUE PUSH1 0x72 JUMPI PUSH1 0x0 DUP1 SLOAD PUSH20 0x8626F6940E2EB28930EFB4CEF49B2D1F2C9C1199 PUSH1 0x1 PUSH1 0x1 PUSH1 0xA0 SHL SUB NOT DUP3 AND DUP2 OR DUP4 SSTORE SWAP2 PUSH1 0x1 PUSH1 0x1 PUSH1 0xA0 SHL SUB SWAP1 SWAP2 AND SWAP1 PUSH32 0x8BE0079C531659141344CD1FD0A4F28419497F9722A3DAAFE3B4186F6B6457E0 SWAP1 DUP1 LOG3 PUSH1 0x1 DUP1 SSTORE PUSH2 0x3130 SWAP1 DUP2 PUSH2 0x78 DUP3 CODECOPY RETURN JUMPDEST PUSH1 0x0 DUP1 REVERT INVALID PUSH1 0x80 DUP1 PUSH1 0x40 MSTORE PUSH1 0x4 CALLDATASIZE LT ISZERO PUSH2 0x13 JUMPI PUSH1 0x0 DUP1 REVERT JUMPDEST PUSH1 0x0 CALLDATALOAD PUSH1 0xE0 SHR SWAP1 DUP2 PUSH4 0x1738F711 EQ PUSH2 0x964 JUMPI POP DUP1 PUSH4 0x46E63586 EQ PUSH2 0x881 JUMPI DUP1 PUSH4 0x715018A6 EQ PUSH2 0x828 JUMPI DUP1 PUSH4 0x7234E920 EQ PUSH2 0x619 JUMPI DUP1 PUSH4 0x7B287A47 EQ PUSH2 0x5BC JUMPI DUP1 PUSH4 0x8DA5CB5B EQ PUSH2 0x593 JUMPI DUP1 PUSH4 0xE03C83A6 EQ PUSH2 0x1D2 JUMPI DUP1 PUSH4 0xED2B3E32 EQ PUSH2 0x110 JUMPI PUSH4 0xF2FDE38B EQ PUSH2 0x82 JUMPI PUSH1 0x0 DUP1 REVERT JUMPDEST CALLVALUE PUSH2 0x10B JUMPI PUSH1 0x20 CALLDATASIZE PUSH1 0x3 NOT ADD SLT PUSH2 0x10B JUMPI PUSH2 0x9B PUSH2 0xD2E JUMP JUMPDEST PUSH2 0xA3 PUSH2 0xE9A JUMP JUMPDEST PUSH1 0x1 PUSH1 0x1 PUSH1 0xA0 SHL SUB AND DUP1 ISZERO PUSH2 0xF5 JUMPI PUSH1 0x0 DUP1 SLOAD PUSH1 0x1 PUSH1 0x1 PUSH1 0xA0 SHL SUB NOT DUP2 AND DUP4 OR DUP3 SSTORE PUSH1 0x1 PUSH1 0x1 PUSH1 0xA0 SHL SUB AND SWAP1 PUSH32 0x8BE0079C531659141344CD1FD0A4F28419497F9722A3DAAFE3B4186F6B6457E0 SWAP1 DUP1 LOG3 STOP JUMPDEST PUSH4 0x1E4FBDF7 PUSH1 0xE0 SHL PUSH1 0x0 MSTORE PUSH1 0x0 PUSH1 0x4 MSTORE PUSH1 0x24 PUSH1 0x0 REVERT JUMPDEST PUSH1 0x0 DUP1 REVERT JUMPDEST CALLVALUE PUSH2 0x10B JUMPI PUSH1 0x20 CALLDATASIZE PUSH1 0x3 NOT ADD SLT PUSH2 0x10B JUMPI PUSH1 0x1 PUSH1 0x1 PUSH1 0xA0 SHL SUB PUSH2 0x131 PUSH2 0xD2E JUMP JUMPDEST AND PUSH1 0x0 MSTORE PUSH1 0x4 PUSH1 0x20 MSTORE PUSH1 0x40 PUSH1 0x0 KECCAK256 DUP1 SLOAD PUSH2 0x14A DUP2 PUSH2 0xC4C JUMP JUMPDEST SWAP2 PUSH2 0x158 PUSH1 0x40 MLOAD SWAP4 DUP5 PUSH2 0xC2B JUMP JUMPDEST DUP2 DUP4 MSTORE PUSH1 0x20 DUP4 ADD SWAP1 PUSH1 0x0 MSTORE PUSH1 0x20 PUSH1 0x0 KECCAK256 PUSH1 0x0 SWAP2 JUMPDEST DUP4 DUP4 LT PUSH2 0x18D JUMPI PUSH1 0x40 MLOAD PUSH1 0x20 DUP1 DUP3 MSTORE DUP2 SWAP1 PUSH2 0x189 SWAP1 DUP3 ADD DUP9 PUSH2 0xB8D JUMP JUMPDEST SUB SWAP1 RETURN JUMPDEST PUSH1 0x3 PUSH1 0x20 PUSH1 0x1 SWAP3 PUSH1 0x40 MLOAD PUSH2 0x1A0 DUP2 PUSH2 0xC10 JUMP JUMPDEST DUP6 SLOAD DUP2 MSTORE PUSH2 0x1AF DUP6 DUP8 ADD PUSH2 0xDF6 JUMP JUMPDEST DUP4 DUP3 ADD MSTORE PUSH2 0x1BF PUSH1 0x2 DUP8 ADD PUSH2 0xDF6 JUMP JUMPDEST PUSH1 0x40 DUP3 ADD MSTORE DUP2 MSTORE ADD SWAP3 ADD SWAP3 ADD SWAP2 SWAP1 PUSH2 0x16C JUMP JUMPDEST CALLVALUE PUSH2 0x10B JUMPI PUSH1 0x60 CALLDATASIZE PUSH1 0x3 NOT ADD SLT PUSH2 0x10B JUMPI PUSH1 0x4 CALLDATALOAD PUSH1 0x1 PUSH1 0x1 PUSH1 0x40 SHL SUB DUP2 GT PUSH2 0x10B JUMPI PUSH2 0x202 SWAP1 CALLDATASIZE SWAP1 PUSH1 0x4 ADD PUSH2 0xB18 JUMP JUMPDEST PUSH1 0x24 CALLDATALOAD PUSH1 0x1 PUSH1 0x1 PUSH1 0xA0 SHL SUB DUP2 AND SWAP3 SWAP2 SWAP1 DUP4 SWAP1 SUB PUSH2 0x10B JUMPI PUSH1 0x44 CALLDATALOAD SWAP2 PUSH1 0x1 PUSH1 0x1 PUSH1 0x40 SHL SUB DUP4 GT PUSH2 0x10B JUMPI PUSH2 0x23B PUSH1 0x0 SWAP4 CALLDATASIZE SWAP1 PUSH1 0x4 ADD PUSH2 0xCC5 JUMP JUMPDEST SWAP2 PUSH2 0x244 PUSH2 0xE9A JUMP JUMPDEST DUP1 PUSH1 0x40 MLOAD SWAP3 DUP4 CALLDATACOPY DUP2 ADD SWAP1 PUSH1 0x3 DUP3 MSTORE PUSH1 0x20 DUP2 PUSH1 0x1 DUP1 PUSH1 0xA0 SHL SUB SWAP4 SUB ADD SWAP1 KECCAK256 SLOAD AND SWAP3 PUSH1 0x20 PUSH2 0x29A PUSH1 0x40 DUP5 ADD SWAP6 DUP7 MLOAD PUSH1 0x40 MLOAD SWAP7 DUP8 DUP1 SWAP5 DUP2 SWAP4 PUSH4 0x335F94F3 PUSH1 0xE2 SHL DUP4 MSTORE DUP9 PUSH1 0x4 DUP5 ADD MSTORE PUSH1 0x40 PUSH1 0x24 DUP5 ADD MSTORE PUSH1 0x44 DUP4 ADD SWAP1 PUSH2 0xB68 JUMP JUMPDEST SUB SWAP3 GAS CALL SWAP3 DUP4 ISZERO PUSH2 0x587 JUMPI PUSH1 0x0 SWAP4 PUSH2 0x553 JUMPI JUMPDEST POP PUSH1 0x0 MSTORE PUSH1 0x4 PUSH1 0x20 MSTORE PUSH1 0x40 PUSH1 0x0 KECCAK256 DUP1 SLOAD SWAP1 PUSH9 0x10000000000000000 DUP3 LT ISZERO PUSH2 0x469 JUMPI PUSH1 0x1 DUP3 ADD DUP1 DUP3 SSTORE DUP3 LT ISZERO PUSH2 0x53D JUMPI PUSH1 0x0 MSTORE PUSH1 0x3 PUSH1 0x20 PUSH1 0x0 KECCAK256 SWAP2 MUL ADD SWAP1 DUP1 MLOAD DUP3 SSTORE PUSH1 0x20 PUSH1 0x1 DUP4 ADD SWAP2 ADD MLOAD DUP1 MLOAD SWAP1 PUSH1 0x1 PUSH1 0x1 PUSH1 0x40 SHL SUB DUP3 GT PUSH2 0x469 JUMPI PUSH2 0x313 DUP4 SLOAD PUSH2 0xDBC JUMP JUMPDEST PUSH1 0x1F DUP2 GT PUSH2 0x4F5 JUMPI JUMPDEST POP PUSH1 0x20 SWAP1 PUSH1 0x1F DUP4 GT PUSH1 0x1 EQ PUSH2 0x48A JUMPI PUSH1 0x2 SWAP5 SWAP4 SWAP3 SWAP2 PUSH1 0x0 SWAP2 DUP4 PUSH2 0x47F JUMPI JUMPDEST POP POP DUP2 PUSH1 0x1 SHL SWAP2 PUSH1 0x0 NOT SWAP1 PUSH1 0x3 SHL SHR NOT AND OR SWAP1 SSTORE JUMPDEST ADD SWAP2 MLOAD SWAP1 DUP2 MLOAD SWAP3 PUSH1 0x1 PUSH1 0x1 PUSH1 0x40 SHL SUB DUP5 GT PUSH2 0x469 JUMPI PUSH2 0x36E DUP2 SLOAD PUSH2 0xDBC JUMP JUMPDEST SWAP4 PUSH1 0x1F DUP6 GT PUSH2 0x421 JUMPI JUMPDEST PUSH1 0x20 SWAP5 POP DUP5 SWAP4 PUSH1 0x1F DUP3 GT PUSH1 0x1 EQ PUSH2 0x3BE JUMPI SWAP4 DUP2 SWAP3 SWAP4 SWAP5 PUSH1 0x0 SWAP3 PUSH2 0x3B3 JUMPI JUMPDEST POP POP DUP2 PUSH1 0x1 SHL SWAP2 PUSH1 0x0 NOT SWAP1 PUSH1 0x3 SHL SHR NOT AND OR SWAP1 SSTORE JUMPDEST PUSH1 0x40 MLOAD SWAP1 DUP2 MSTORE RETURN JUMPDEST ADD MLOAD SWAP1 POP DUP6 DUP1 PUSH2 0x396 JUMP JUMPDEST PUSH1 0x1F NOT DUP3 AND SWAP5 DUP4 PUSH1 0x0 MSTORE DUP1 PUSH1 0x0 KECCAK256 SWAP2 PUSH1 0x0 JUMPDEST DUP8 DUP2 LT PUSH2 0x40A JUMPI POP DUP4 PUSH1 0x1 SWAP6 SWAP7 SWAP8 LT PUSH2 0x3F1 JUMPI JUMPDEST POP POP POP DUP2 SHL ADD SWAP1 SSTORE PUSH2 0x3AB JUMP JUMPDEST ADD MLOAD PUSH1 0x0 NOT PUSH1 0xF8 DUP5 PUSH1 0x3 SHL AND SHR NOT AND SWAP1 SSTORE DUP6 DUP1 DUP1 PUSH2 0x3E4 JUMP JUMPDEST SWAP2 SWAP3 DUP9 PUSH1 0x1 DUP2 SWAP3 DUP7 DUP6 ADD MLOAD DUP2 SSTORE ADD SWAP5 ADD SWAP3 ADD PUSH2 0x3D0 JUMP JUMPDEST DUP2 PUSH1 0x0 MSTORE PUSH1 0x20 PUSH1 0x0 KECCAK256 PUSH1 0x1F DUP3 ADD PUSH1 0x5 SHR DUP2 ADD SWAP6 PUSH1 0x20 DUP4 LT PUSH2 0x45F JUMPI JUMPDEST PUSH1 0x1F ADD PUSH1 0x5 SHR ADD SWAP5 JUMPDEST DUP6 DUP2 LT PUSH2 0x453 JUMPI POP PUSH2 0x378 JUMP JUMPDEST PUSH1 0x0 DUP2 SSTORE PUSH1 0x1 ADD PUSH2 0x446 JUMP JUMPDEST SWAP1 SWAP6 POP DUP6 SWAP1 PUSH2 0x43D JUMP JUMPDEST PUSH4 0x4E487B71 PUSH1 0xE0 SHL PUSH1 0x0 MSTORE PUSH1 0x41 PUSH1 0x4 MSTORE PUSH1 0x24 PUSH1 0x0 REVERT JUMPDEST ADD MLOAD SWAP1 POP DUP8 DUP1 PUSH2 0x33A JUMP JUMPDEST SWAP1 PUSH1 0x1F NOT DUP4 AND SWAP2 DUP5 PUSH1 0x0 MSTORE DUP2 PUSH1 0x0 KECCAK256 SWAP3 PUSH1 0x0 JUMPDEST DUP2 DUP2 LT PUSH2 0x4DD JUMPI POP SWAP2 PUSH1 0x1 SWAP4 SWAP2 DUP6 PUSH1 0x2 SWAP9 SWAP8 SWAP7 SWAP5 LT PUSH2 0x4C4 JUMPI JUMPDEST POP POP POP DUP2 SHL ADD SWAP1 SSTORE PUSH2 0x34F JUMP JUMPDEST ADD MLOAD PUSH1 0x0 NOT PUSH1 0xF8 DUP5 PUSH1 0x3 SHL AND SHR NOT AND SWAP1 SSTORE DUP8 DUP1 DUP1 PUSH2 0x4B7 JUMP JUMPDEST SWAP3 SWAP4 PUSH1 0x20 PUSH1 0x1 DUP2 SWAP3 DUP8 DUP7 ADD MLOAD DUP2 SSTORE ADD SWAP6 ADD SWAP4 ADD PUSH2 0x49D JUMP JUMPDEST DUP4 PUSH1 0x0 MSTORE PUSH1 0x20 PUSH1 0x0 KECCAK256 PUSH1 0x1F DUP5 ADD PUSH1 0x5 SHR DUP2 ADD SWAP2 PUSH1 0x20 DUP6 LT PUSH2 0x533 JUMPI JUMPDEST PUSH1 0x1F ADD PUSH1 0x5 SHR ADD SWAP1 JUMPDEST DUP2 DUP2 LT PUSH2 0x527 JUMPI POP PUSH2 0x31C JUMP JUMPDEST PUSH1 0x0 DUP2 SSTORE PUSH1 0x1 ADD PUSH2 0x51A JUMP JUMPDEST SWAP1 SWAP2 POP DUP2 SWAP1 PUSH2 0x511 JUMP JUMPDEST PUSH4 0x4E487B71 PUSH1 0xE0 SHL PUSH1 0x0 MSTORE PUSH1 0x32 PUSH1 0x4 MSTORE PUSH1 0x24 PUSH1 0x0 REVERT JUMPDEST SWAP1 SWAP3 POP PUSH1 0x20 DUP2 RETURNDATASIZE PUSH1 0x20 GT PUSH2 0x57F JUMPI JUMPDEST DUP2 PUSH2 0x56F PUSH1 0x20 SWAP4 DUP4 PUSH2 0xC2B JUMP JUMPDEST DUP2 ADD SUB SLT PUSH2 0x10B JUMPI MLOAD SWAP2 DUP5 PUSH2 0x2AD JUMP JUMPDEST RETURNDATASIZE SWAP2 POP PUSH2 0x562 JUMP JUMPDEST PUSH1 0x40 MLOAD RETURNDATASIZE PUSH1 0x0 DUP3 RETURNDATACOPY RETURNDATASIZE SWAP1 REVERT JUMPDEST CALLVALUE PUSH2 0x10B JUMPI PUSH1 0x0 CALLDATASIZE PUSH1 0x3 NOT ADD SLT PUSH2 0x10B JUMPI PUSH1 0x0 SLOAD PUSH1 0x40 MLOAD PUSH1 0x1 PUSH1 0x1 PUSH1 0xA0 SHL SUB SWAP1 SWAP2 AND DUP2 MSTORE PUSH1 0x20 SWAP1 RETURN JUMPDEST CALLVALUE PUSH2 0x10B JUMPI PUSH1 0x20 CALLDATASIZE PUSH1 0x3 NOT ADD SLT PUSH2 0x10B JUMPI PUSH1 0x4 CALLDATALOAD PUSH1 0x1 PUSH1 0x1 PUSH1 0x40 SHL SUB DUP2 GT PUSH2 0x10B JUMPI PUSH1 0x20 PUSH2 0x5EF DUP2 SWAP3 CALLDATASIZE SWAP1 PUSH1 0x4 ADD PUSH2 0xB18 JUMP JUMPDEST SWAP2 SWAP1 DUP3 PUSH1 0x40 MLOAD SWAP4 DUP5 SWAP3 DUP4 CALLDATACOPY PUSH1 0x3 SWAP1 DUP3 ADD SWAP1 DUP2 MSTORE SUB ADD SWAP1 KECCAK256 SLOAD PUSH1 0x40 MLOAD PUSH1 0x1 PUSH1 0x1 PUSH1 0xA0 SHL SUB SWAP1 SWAP2 AND DUP2 MSTORE RETURN JUMPDEST CALLVALUE PUSH2 0x10B JUMPI PUSH1 0x80 CALLDATASIZE PUSH1 0x3 NOT ADD SLT PUSH2 0x10B JUMPI PUSH1 0x4 CALLDATALOAD PUSH1 0x1 PUSH1 0x1 PUSH1 0x40 SHL SUB DUP2 GT PUSH2 0x10B JUMPI PUSH2 0x649 SWAP1 CALLDATASIZE SWAP1 PUSH1 0x4 ADD PUSH2 0xB18 JUMP JUMPDEST PUSH1 0x24 CALLDATALOAD PUSH1 0x1 PUSH1 0x1 PUSH1 0x40 SHL SUB DUP2 GT PUSH2 0x10B JUMPI PUSH2 0x668 SWAP1 CALLDATASIZE SWAP1 PUSH1 0x4 ADD PUSH2 0xB18 JUMP JUMPDEST SWAP1 PUSH1 0x64 CALLDATALOAD SWAP2 PUSH1 0x1 PUSH1 0x1 PUSH1 0x40 SHL SUB DUP4 GT PUSH2 0x10B JUMPI CALLDATASIZE PUSH1 0x23 DUP5 ADD SLT ISZERO PUSH2 0x10B JUMPI DUP3 PUSH1 0x4 ADD CALLDATALOAD PUSH2 0x694 DUP2 PUSH2 0xC4C JUMP JUMPDEST SWAP4 PUSH2 0x6A2 PUSH1 0x40 MLOAD SWAP6 DUP7 PUSH2 0xC2B JUMP JUMPDEST DUP2 DUP6 MSTORE PUSH1 0x24 PUSH1 0x20 DUP7 ADD SWAP3 PUSH1 0x5 SHL DUP3 ADD ADD SWAP1 CALLDATASIZE DUP3 GT PUSH2 0x10B JUMPI PUSH1 0x24 DUP2 ADD SWAP3 JUMPDEST DUP3 DUP5 LT PUSH2 0x7F9 JUMPI POP POP POP POP PUSH2 0x6D3 PUSH2 0xE9A JUMP JUMPDEST PUSH1 0x40 MLOAD SWAP3 PUSH2 0x2237 SWAP1 DUP2 DUP6 ADD SWAP2 DUP6 DUP4 LT PUSH1 0x1 PUSH1 0x1 PUSH1 0x40 SHL SUB DUP5 GT OR PUSH2 0x469 JUMPI DUP6 SWAP5 PUSH2 0x73C SWAP5 PUSH2 0x726 SWAP3 PUSH2 0xEC4 DUP9 CODECOPY PUSH1 0xA0 DUP6 MSTORE PUSH2 0x712 PUSH1 0xA0 DUP7 ADD DUP11 DUP13 PUSH2 0xD9B JUMP JUMPDEST SWAP2 ADDRESS PUSH1 0x20 DUP8 ADD MSTORE DUP6 DUP4 SUB PUSH1 0x40 DUP8 ADD MSTORE PUSH2 0xD9B JUMP JUMPDEST SWAP2 PUSH1 0x44 CALLDATALOAD PUSH1 0x60 DUP3 ADD MSTORE PUSH1 0x80 DUP2 DUP5 SUB SWAP2 ADD MSTORE PUSH2 0xB8D JUMP JUMPDEST SUB SWAP1 PUSH1 0x0 CREATE DUP1 ISZERO PUSH2 0x587 JUMPI PUSH1 0x1 SLOAD PUSH1 0x1 PUSH1 0x1 PUSH1 0xFF SHL SUB DUP2 EQ PUSH2 0x7E3 JUMPI PUSH1 0x1 DUP2 ADD PUSH1 0x1 SSTORE PUSH1 0x0 MSTORE PUSH1 0x2 PUSH1 0x20 MSTORE PUSH1 0x40 PUSH1 0x0 KECCAK256 SWAP1 PUSH1 0x1 DUP1 PUSH1 0xA0 SHL SUB AND PUSH12 0xFFFFFFFFFFFFFFFFFFFFFFFF PUSH1 0xA0 SHL DUP3 SLOAD AND OR SWAP1 SSTORE PUSH2 0x796 PUSH1 0x1 SLOAD PUSH2 0xD89 JUMP JUMPDEST PUSH1 0x0 MSTORE PUSH1 0x2 PUSH1 0x20 MSTORE PUSH1 0x20 PUSH1 0x1 DUP1 PUSH1 0xA0 SHL SUB PUSH1 0x40 PUSH1 0x0 KECCAK256 SLOAD AND SWAP3 DUP3 PUSH1 0x40 MLOAD SWAP4 DUP5 SWAP3 DUP4 CALLDATACOPY PUSH1 0x3 SWAP1 DUP3 ADD SWAP1 DUP2 MSTORE SUB ADD SWAP1 KECCAK256 DUP1 SLOAD PUSH1 0x1 PUSH1 0x1 PUSH1 0xA0 SHL SUB NOT AND PUSH1 0x1 PUSH1 0x1 PUSH1 0xA0 SHL SUB SWAP1 SWAP3 AND SWAP2 SWAP1 SWAP2 OR SWAP1 SSTORE STOP JUMPDEST PUSH4 0x4E487B71 PUSH1 0xE0 SHL PUSH1 0x0 MSTORE PUSH1 0x11 PUSH1 0x4 MSTORE PUSH1 0x24 PUSH1 0x0 REVERT JUMPDEST DUP4 CALLDATALOAD PUSH1 0x1 PUSH1 0x1 PUSH1 0x40 SHL SUB DUP2 GT PUSH2 0x10B JUMPI PUSH1 0x20 SWAP2 PUSH2 0x81D DUP4 SWAP3 PUSH1 0x24 CALLDATASIZE SWAP2 DUP8 ADD ADD PUSH2 0xCC5 JUMP JUMPDEST DUP2 MSTORE ADD SWAP4 ADD SWAP3 PUSH2 0x6C0 JUMP JUMPDEST CALLVALUE PUSH2 0x10B JUMPI PUSH1 0x0 CALLDATASIZE PUSH1 0x3 NOT ADD SLT PUSH2 0x10B JUMPI PUSH2 0x841 PUSH2 0xE9A JUMP JUMPDEST PUSH1 0x0 DUP1 SLOAD PUSH1 0x1 PUSH1 0x1 PUSH1 0xA0 SHL SUB NOT DUP2 AND DUP3 SSTORE PUSH1 0x1 PUSH1 0x1 PUSH1 0xA0 SHL SUB AND PUSH32 0x8BE0079C531659141344CD1FD0A4F28419497F9722A3DAAFE3B4186F6B6457E0 DUP3 DUP1 LOG3 STOP JUMPDEST CALLVALUE PUSH2 0x10B JUMPI PUSH1 0x0 CALLDATASIZE PUSH1 0x3 NOT ADD SLT PUSH2 0x10B JUMPI PUSH1 0x1 SLOAD PUSH2 0x89E DUP2 PUSH2 0xD89 JUMP JUMPDEST SWAP1 PUSH2 0x8C1 PUSH2 0x8AB DUP4 PUSH2 0xC4C JUMP JUMPDEST SWAP3 PUSH2 0x8B9 PUSH1 0x40 MLOAD SWAP5 DUP6 PUSH2 0xC2B JUMP JUMPDEST DUP1 DUP5 MSTORE PUSH2 0xC4C JUMP JUMPDEST PUSH1 0x20 DUP4 ADD SWAP2 SWAP1 PUSH1 0x1F NOT ADD CALLDATASIZE DUP4 CALLDATACOPY PUSH1 0x1 JUMPDEST DUP2 DUP2 SLT PUSH2 0x926 JUMPI DUP3 DUP5 PUSH1 0x40 MLOAD SWAP2 DUP3 SWAP2 PUSH1 0x20 DUP4 ADD SWAP1 PUSH1 0x20 DUP5 MSTORE MLOAD DUP1 SWAP2 MSTORE PUSH1 0x40 DUP4 ADD SWAP2 SWAP1 PUSH1 0x0 JUMPDEST DUP2 DUP2 LT PUSH2 0x904 JUMPI POP POP POP SUB SWAP1 RETURN JUMPDEST DUP3 MLOAD PUSH1 0x1 PUSH1 0x1 PUSH1 0xA0 SHL SUB AND DUP5 MSTORE DUP6 SWAP5 POP PUSH1 0x20 SWAP4 DUP5 ADD SWAP4 SWAP1 SWAP3 ADD SWAP2 PUSH1 0x1 ADD PUSH2 0x8F6 JUMP JUMPDEST PUSH1 0x0 DUP2 DUP2 MSTORE PUSH1 0x2 PUSH1 0x20 MSTORE PUSH1 0x40 SWAP1 KECCAK256 SLOAD PUSH1 0x1 PUSH1 0x1 PUSH1 0xA0 SHL SUB AND SWAP1 PUSH2 0x948 DUP2 PUSH2 0xD89 JUMP JUMPDEST SWAP2 DUP6 MLOAD DUP4 LT ISZERO PUSH2 0x53D JUMPI PUSH1 0x20 PUSH1 0x1 SWAP4 PUSH1 0x5 SHL DUP8 ADD ADD MSTORE ADD PUSH2 0x8D1 JUMP JUMPDEST CALLVALUE PUSH2 0x10B JUMPI PUSH1 0x20 CALLDATASIZE PUSH1 0x3 NOT ADD SLT PUSH2 0x10B JUMPI PUSH1 0x4 CALLDATALOAD PUSH1 0x1 PUSH1 0x1 PUSH1 0x40 SHL SUB DUP2 GT PUSH2 0x10B JUMPI PUSH1 0x4 SWAP2 PUSH2 0x998 PUSH1 0x0 SWAP3 CALLDATASIZE SWAP1 DUP6 ADD PUSH2 0xB18 JUMP JUMPDEST DUP1 SWAP2 DUP4 CALLDATACOPY PUSH1 0x3 SWAP1 DUP3 ADD SWAP1 DUP2 MSTORE DUP2 SWAP1 SUB PUSH1 0x20 ADD SWAP1 KECCAK256 SLOAD PUSH1 0x40 MLOAD PUSH4 0xB0DF9E53 PUSH1 0xE0 SHL DUP2 MSTORE SWAP3 DUP4 SWAP2 DUP3 SWAP1 PUSH1 0x1 PUSH1 0x1 PUSH1 0xA0 SHL SUB AND GAS STATICCALL SWAP1 DUP2 ISZERO PUSH2 0x587 JUMPI PUSH1 0x0 SWAP2 PUSH2 0x9EF JUMPI JUMPDEST PUSH1 0x40 MLOAD PUSH1 0x20 DUP1 DUP3 MSTORE DUP2 SWAP1 PUSH2 0x189 SWAP1 DUP3 ADD DUP6 PUSH2 0xB8D JUMP JUMPDEST RETURNDATASIZE DUP1 DUP4 DUP4 RETURNDATACOPY PUSH2 0x9FE DUP2 DUP4 PUSH2 0xC2B JUMP JUMPDEST DUP2 ADD SWAP1 PUSH1 0x20 DUP2 DUP4 SUB SLT PUSH2 0xB10 JUMPI DUP1 MLOAD SWAP1 PUSH1 0x1 PUSH1 0x1 PUSH1 0x40 SHL SUB DUP3 GT PUSH2 0xB14 JUMPI ADD DUP2 PUSH1 0x1F DUP3 ADD SLT ISZERO PUSH2 0xB10 JUMPI DUP1 MLOAD SWAP3 PUSH2 0xA34 DUP5 PUSH2 0xC4C JUMP JUMPDEST SWAP3 PUSH2 0xA42 PUSH1 0x40 MLOAD SWAP5 DUP6 PUSH2 0xC2B JUMP JUMPDEST DUP5 DUP5 MSTORE PUSH1 0x20 DUP1 DUP6 ADD SWAP6 PUSH1 0x5 SHL DUP5 ADD ADD SWAP3 DUP2 DUP5 GT PUSH2 0xB10 JUMPI PUSH1 0x20 DUP2 ADD SWAP6 JUMPDEST DUP5 DUP8 LT PUSH2 0xA76 JUMPI POP POP POP POP POP PUSH2 0x189 SWAP2 POP SWAP1 PUSH2 0x9D9 JUMP JUMPDEST DUP7 MLOAD PUSH1 0x1 PUSH1 0x1 PUSH1 0x40 SHL SUB DUP2 GT PUSH2 0xB0C JUMPI DUP3 ADD PUSH1 0x60 DUP2 DUP6 SUB PUSH1 0x1F NOT ADD SLT PUSH2 0xB0C JUMPI PUSH1 0x40 MLOAD SWAP1 PUSH2 0xAA3 DUP3 PUSH2 0xC10 JUMP JUMPDEST PUSH1 0x20 DUP2 ADD MLOAD DUP3 MSTORE PUSH1 0x40 DUP2 ADD MLOAD PUSH1 0x1 PUSH1 0x1 PUSH1 0x40 SHL SUB DUP2 GT PUSH2 0xB08 JUMPI DUP6 PUSH1 0x20 PUSH2 0xACC SWAP3 DUP5 ADD ADD PUSH2 0xD44 JUMP JUMPDEST PUSH1 0x20 DUP4 ADD MSTORE PUSH1 0x60 DUP2 ADD MLOAD SWAP1 PUSH1 0x1 PUSH1 0x1 PUSH1 0x40 SHL SUB DUP3 GT PUSH2 0xB08 JUMPI SWAP2 PUSH2 0xAF8 DUP7 PUSH1 0x20 DUP1 SWAP7 SWAP5 DUP2 SWAP7 ADD ADD PUSH2 0xD44 JUMP JUMPDEST PUSH1 0x40 DUP3 ADD MSTORE DUP2 MSTORE ADD SWAP7 ADD SWAP6 PUSH2 0xA5F JUMP JUMPDEST DUP7 DUP1 REVERT JUMPDEST DUP5 DUP1 REVERT JUMPDEST DUP3 DUP1 REVERT JUMPDEST DUP4 DUP1 REVERT JUMPDEST SWAP2 DUP2 PUSH1 0x1F DUP5 ADD SLT ISZERO PUSH2 0x10B JUMPI DUP3 CALLDATALOAD SWAP2 PUSH1 0x1 PUSH1 0x1 PUSH1 0x40 SHL SUB DUP4 GT PUSH2 0x10B JUMPI PUSH1 0x20 DUP4 DUP2 DUP7 ADD SWAP6 ADD ADD GT PUSH2 0x10B JUMPI JUMP JUMPDEST PUSH1 0x0 JUMPDEST DUP4 DUP2 LT PUSH2 0xB58 JUMPI POP POP PUSH1 0x0 SWAP2 ADD MSTORE JUMP JUMPDEST DUP2 DUP2 ADD MLOAD DUP4 DUP3 ADD MSTORE PUSH1 0x20 ADD PUSH2 0xB48 JUMP JUMPDEST SWAP1 PUSH1 0x20 SWAP2 PUSH2 0xB81 DUP2 MLOAD DUP1 SWAP3 DUP2 DUP6 MSTORE DUP6 DUP1 DUP7 ADD SWAP2 ADD PUSH2 0xB45 JUMP JUMPDEST PUSH1 0x1F ADD PUSH1 0x1F NOT AND ADD ADD SWAP1 JUMP JUMPDEST SWAP1 DUP1 PUSH1 0x20 DUP4 MLOAD SWAP2 DUP3 DUP2 MSTORE ADD SWAP2 PUSH1 0x20 DUP1 DUP4 PUSH1 0x5 SHL DUP4 ADD ADD SWAP5 ADD SWAP3 PUSH1 0x0 SWAP2 JUMPDEST DUP4 DUP4 LT PUSH2 0xBB9 JUMPI POP POP POP POP POP SWAP1 JUMP JUMPDEST SWAP1 SWAP2 SWAP3 SWAP4 SWAP5 PUSH1 0x20 DUP1 PUSH2 0xC01 PUSH1 0x1 SWAP4 PUSH1 0x1F NOT DUP7 DUP3 SUB ADD DUP8 MSTORE DUP10 MLOAD SWAP1 DUP2 MLOAD DUP2 MSTORE PUSH1 0x40 PUSH2 0xBF0 DUP6 DUP5 ADD MLOAD PUSH1 0x60 DUP8 DUP6 ADD MSTORE PUSH1 0x60 DUP5 ADD SWAP1 PUSH2 0xB68 JUMP JUMPDEST SWAP3 ADD MLOAD SWAP1 PUSH1 0x40 DUP2 DUP5 SUB SWAP2 ADD MSTORE PUSH2 0xB68 JUMP JUMPDEST SWAP8 ADD SWAP4 ADD SWAP4 ADD SWAP2 SWAP4 SWAP3 SWAP1 PUSH2 0xBAA JUMP JUMPDEST PUSH1 0x60 DUP2 ADD SWAP1 DUP2 LT PUSH1 0x1 PUSH1 0x1 PUSH1 0x40 SHL SUB DUP3 GT OR PUSH2 0x469 JUMPI PUSH1 0x40 MSTORE JUMP JUMPDEST SWAP1 PUSH1 0x1F DUP1 NOT SWAP2 ADD AND DUP2 ADD SWAP1 DUP2 LT PUSH1 0x1 PUSH1 0x1 PUSH1 0x40 SHL SUB DUP3 GT OR PUSH2 0x469 JUMPI PUSH1 0x40 MSTORE JUMP JUMPDEST PUSH1 0x1 PUSH1 0x1 PUSH1 0x40 SHL SUB DUP2 GT PUSH2 0x469 JUMPI PUSH1 0x5 SHL PUSH1 0x20 ADD SWAP1 JUMP JUMPDEST PUSH1 0x1 PUSH1 0x1 PUSH1 0x40 SHL SUB DUP2 GT PUSH2 0x469 JUMPI PUSH1 0x1F ADD PUSH1 0x1F NOT AND PUSH1 0x20 ADD SWAP1 JUMP JUMPDEST DUP2 PUSH1 0x1F DUP3 ADD SLT ISZERO PUSH2 0x10B JUMPI DUP1 CALLDATALOAD SWAP1 PUSH2 0xC95 DUP3 PUSH2 0xC63 JUMP JUMPDEST SWAP3 PUSH2 0xCA3 PUSH1 0x40 MLOAD SWAP5 DUP6 PUSH2 0xC2B JUMP JUMPDEST DUP3 DUP5 MSTORE PUSH1 0x20 DUP4 DUP4 ADD ADD GT PUSH2 0x10B JUMPI DUP2 PUSH1 0x0 SWAP3 PUSH1 0x20 DUP1 SWAP4 ADD DUP4 DUP7 ADD CALLDATACOPY DUP4 ADD ADD MSTORE SWAP1 JUMP JUMPDEST SWAP2 SWAP1 PUSH1 0x60 DUP4 DUP3 SUB SLT PUSH2 0x10B JUMPI PUSH1 0x40 MLOAD SWAP1 PUSH2 0xCDE DUP3 PUSH2 0xC10 JUMP JUMPDEST DUP2 SWAP4 DUP1 CALLDATALOAD DUP4 MSTORE PUSH1 0x20 DUP2 ADD CALLDATALOAD PUSH1 0x1 PUSH1 0x1 PUSH1 0x40 SHL SUB DUP2 GT PUSH2 0x10B JUMPI DUP3 PUSH2 0xD03 SWAP2 DUP4 ADD PUSH2 0xC7E JUMP JUMPDEST PUSH1 0x20 DUP5 ADD MSTORE PUSH1 0x40 DUP2 ADD CALLDATALOAD SWAP2 PUSH1 0x1 PUSH1 0x1 PUSH1 0x40 SHL SUB DUP4 GT PUSH2 0x10B JUMPI PUSH1 0x40 SWAP3 PUSH2 0xD29 SWAP3 ADD PUSH2 0xC7E JUMP JUMPDEST SWAP2 ADD MSTORE JUMP JUMPDEST PUSH1 0x4 CALLDATALOAD SWAP1 PUSH1 0x1 PUSH1 0x1 PUSH1 0xA0 SHL SUB DUP3 AND DUP3 SUB PUSH2 0x10B JUMPI JUMP JUMPDEST DUP2 PUSH1 0x1F DUP3 ADD SLT ISZERO PUSH2 0x10B JUMPI DUP1 MLOAD PUSH2 0xD5A DUP2 PUSH2 0xC63 JUMP JUMPDEST SWAP3 PUSH2 0xD68 PUSH1 0x40 MLOAD SWAP5 DUP6 PUSH2 0xC2B JUMP JUMPDEST DUP2 DUP5 MSTORE PUSH1 0x20 DUP3 DUP5 ADD ADD GT PUSH2 0x10B JUMPI PUSH2 0xD86 SWAP2 PUSH1 0x20 DUP1 DUP6 ADD SWAP2 ADD PUSH2 0xB45 JUMP JUMPDEST SWAP1 JUMP JUMPDEST SWAP1 PUSH1 0x0 NOT DUP3 ADD SWAP2 DUP3 SGT PUSH1 0x1 AND PUSH2 0x7E3 JUMPI JUMP JUMPDEST SWAP1 DUP1 PUSH1 0x20 SWAP4 SWAP3 DUP2 DUP5 MSTORE DUP5 DUP5 ADD CALLDATACOPY PUSH1 0x0 DUP3 DUP3 ADD DUP5 ADD MSTORE PUSH1 0x1F ADD PUSH1 0x1F NOT AND ADD ADD SWAP1 JUMP JUMPDEST SWAP1 PUSH1 0x1 DUP3 DUP2 SHR SWAP3 AND DUP1 ISZERO PUSH2 0xDEC JUMPI JUMPDEST PUSH1 0x20 DUP4 LT EQ PUSH2 0xDD6 JUMPI JUMP JUMPDEST PUSH4 0x4E487B71 PUSH1 0xE0 SHL PUSH1 0x0 MSTORE PUSH1 0x22 PUSH1 0x4 MSTORE PUSH1 0x24 PUSH1 0x0 REVERT JUMPDEST SWAP2 PUSH1 0x7F AND SWAP2 PUSH2 0xDCB JUMP JUMPDEST SWAP1 PUSH1 0x40 MLOAD SWAP2 DUP3 PUSH1 0x0 DUP3 SLOAD SWAP3 PUSH2 0xE0A DUP5 PUSH2 0xDBC JUMP JUMPDEST DUP1 DUP5 MSTORE SWAP4 PUSH1 0x1 DUP2 AND SWAP1 DUP2 ISZERO PUSH2 0xE78 JUMPI POP PUSH1 0x1 EQ PUSH2 0xE31 JUMPI JUMPDEST POP PUSH2 0xE2F SWAP3 POP SUB DUP4 PUSH2 0xC2B JUMP JUMPDEST JUMP JUMPDEST SWAP1 POP PUSH1 0x0 SWAP3 SWAP2 SWAP3 MSTORE PUSH1 0x20 PUSH1 0x0 KECCAK256 SWAP1 PUSH1 0x0 SWAP2 JUMPDEST DUP2 DUP4 LT PUSH2 0xE5C JUMPI POP POP SWAP1 PUSH1 0x20 PUSH2 0xE2F SWAP3 DUP3 ADD ADD CODESIZE PUSH2 0xE22 JUMP JUMPDEST PUSH1 0x20 SWAP2 SWAP4 POP DUP1 PUSH1 0x1 SWAP2 SLOAD DUP4 DUP6 DUP10 ADD ADD MSTORE ADD SWAP2 ADD SWAP1 SWAP2 DUP5 SWAP3 PUSH2 0xE43 JUMP JUMPDEST SWAP1 POP PUSH1 0x20 SWAP3 POP PUSH2 0xE2F SWAP5 SWAP2 POP PUSH1 0xFF NOT AND DUP3 DUP5 ADD MSTORE ISZERO ISZERO PUSH1 0x5 SHL DUP3 ADD ADD CODESIZE PUSH2 0xE22 JUMP JUMPDEST PUSH1 0x0 SLOAD PUSH1 0x1 PUSH1 0x1 PUSH1 0xA0 SHL SUB AND CALLER SUB PUSH2 0xEAE JUMPI JUMP JUMPDEST PUSH4 0x118CDAA7 PUSH1 0xE0 SHL PUSH1 0x0 MSTORE CALLER PUSH1 0x4 MSTORE PUSH1 0x24 PUSH1 0x0 REVERT INVALID PUSH1 0x80 PUSH1 0x40 MSTORE CALLVALUE PUSH2 0xAE6 JUMPI PUSH2 0x2237 DUP1 CODESIZE SUB DUP1 PUSH2 0x19 DUP2 PUSH2 0xAEB JUMP JUMPDEST SWAP3 DUP4 CODECOPY DUP2 ADD PUSH1 0xA0 DUP3 DUP3 SUB SLT PUSH2 0xAE6 JUMPI DUP2 MLOAD PUSH1 0x1 PUSH1 0x1 PUSH1 0x40 SHL SUB DUP2 GT PUSH2 0xAE6 JUMPI DUP2 PUSH2 0x44 SWAP2 DUP5 ADD PUSH2 0xB10 JUMP JUMPDEST PUSH1 0x20 DUP4 ADD MLOAD SWAP1 SWAP3 PUSH1 0x1 PUSH1 0x1 PUSH1 0xA0 SHL SUB DUP3 AND SWAP2 DUP3 SWAP1 SUB PUSH2 0xAE6 JUMPI PUSH1 0x40 DUP2 ADD MLOAD PUSH1 0x1 PUSH1 0x1 PUSH1 0x40 SHL SUB DUP2 GT PUSH2 0xAE6 JUMPI DUP4 PUSH2 0x7C SWAP2 DUP4 ADD PUSH2 0xB10 JUMP JUMPDEST SWAP4 PUSH1 0x60 DUP3 ADD MLOAD SWAP2 PUSH1 0x80 DUP2 ADD MLOAD SWAP1 PUSH1 0x1 DUP1 PUSH1 0x40 SHL SUB DUP3 GT PUSH2 0xAE6 JUMPI ADD SWAP4 DUP1 PUSH1 0x1F DUP7 ADD SLT ISZERO PUSH2 0xAE6 JUMPI DUP5 MLOAD SWAP5 PUSH1 0x1 PUSH1 0x1 PUSH1 0x40 SHL SUB DUP7 GT PUSH2 0x75F JUMPI DUP6 PUSH1 0x5 SHL PUSH1 0x20 DUP1 PUSH2 0xC6 DUP2 DUP5 ADD PUSH2 0xAEB JUMP JUMPDEST DUP1 SWAP10 DUP2 MSTORE ADD SWAP2 DUP4 ADD ADD SWAP2 DUP4 DUP4 GT PUSH2 0xAE6 JUMPI PUSH1 0x20 DUP2 ADD SWAP2 JUMPDEST DUP4 DUP4 LT PUSH2 0xA44 JUMPI POP POP POP POP POP PUSH1 0x40 SWAP3 PUSH2 0xF5 DUP5 PUSH2 0xAEB JUMP JUMPDEST PUSH1 0x3 DUP2 MSTORE PUSH3 0x544347 PUSH1 0xE8 SHL PUSH1 0x20 DUP3 ADD MSTORE DUP7 MLOAD PUSH1 0x1 PUSH1 0x1 PUSH1 0x40 SHL SUB DUP2 GT PUSH2 0x75F JUMPI PUSH1 0x0 SLOAD PUSH1 0x1 DUP2 DUP2 SHR SWAP2 AND DUP1 ISZERO PUSH2 0xA3A JUMPI JUMPDEST PUSH1 0x20 DUP3 LT EQ PUSH2 0x73F JUMPI PUSH1 0x1F DUP2 GT PUSH2 0x9D6 JUMPI JUMPDEST POP DUP1 PUSH1 0x20 PUSH1 0x1F DUP3 GT PUSH1 0x1 EQ PUSH2 0x970 JUMPI PUSH1 0x0 SWAP2 PUSH2 0x965 JUMPI JUMPDEST POP DUP2 PUSH1 0x1 SHL SWAP2 PUSH1 0x0 NOT SWAP1 PUSH1 0x3 SHL SHR NOT AND OR PUSH1 0x0 SSTORE JUMPDEST DUP1 MLOAD SWAP1 PUSH1 0x1 PUSH1 0x1 PUSH1 0x40 SHL SUB DUP3 GT PUSH2 0x75F JUMPI PUSH1 0x1 SLOAD SWAP1 PUSH1 0x1 DUP3 DUP2 SHR SWAP3 AND DUP1 ISZERO PUSH2 0x95B JUMPI JUMPDEST PUSH1 0x20 DUP4 LT EQ PUSH2 0x73F JUMPI DUP2 PUSH1 0x1F DUP5 SWAP4 GT PUSH2 0x8EB JUMPI JUMPDEST POP PUSH1 0x20 SWAP1 PUSH1 0x1F DUP4 GT PUSH1 0x1 EQ PUSH2 0x883 JUMPI PUSH1 0x0 SWAP3 PUSH2 0x878 JUMPI JUMPDEST POP POP DUP2 PUSH1 0x1 SHL SWAP2 PUSH1 0x0 NOT SWAP1 PUSH1 0x3 SHL SHR NOT AND OR PUSH1 0x1 SSTORE JUMPDEST DUP1 ISZERO PUSH2 0x862 JUMPI PUSH1 0x7 DUP1 SLOAD PUSH1 0x1 PUSH1 0x1 PUSH1 0xA0 SHL SUB NOT DUP2 AND DUP4 OR SWAP1 SWAP2 SSTORE PUSH1 0x1 PUSH1 0x1 PUSH1 0xA0 SHL SUB AND PUSH32 0x8BE0079C531659141344CD1FD0A4F28419497F9722A3DAAFE3B4186F6B6457E0 PUSH1 0x0 DUP1 LOG3 DUP1 MLOAD SWAP1 PUSH1 0x1 PUSH1 0x1 PUSH1 0x40 SHL SUB DUP3 GT PUSH2 0x75F JUMPI PUSH1 0xB SLOAD SWAP1 PUSH1 0x1 DUP3 DUP2 SHR SWAP3 AND DUP1 ISZERO PUSH2 0x858 JUMPI JUMPDEST PUSH1 0x20 DUP4 LT EQ PUSH2 0x73F JUMPI DUP2 PUSH1 0x1F DUP5 SWAP4 GT PUSH2 0x7E8 JUMPI JUMPDEST POP PUSH1 0x20 SWAP1 PUSH1 0x1F DUP4 GT PUSH1 0x1 EQ PUSH2 0x780 JUMPI PUSH1 0x0 SWAP3 PUSH2 0x775 JUMPI JUMPDEST POP POP DUP2 PUSH1 0x1 SHL SWAP2 PUSH1 0x0 NOT SWAP1 PUSH1 0x3 SHL SHR NOT AND OR PUSH1 0xB SSTORE JUMPDEST DUP4 MLOAD PUSH1 0x1 PUSH1 0x1 PUSH1 0x40 SHL SUB DUP2 GT PUSH2 0x75F JUMPI PUSH1 0x8 SLOAD PUSH1 0x1 DUP2 DUP2 SHR SWAP2 AND DUP1 ISZERO PUSH2 0x755 JUMPI JUMPDEST PUSH1 0x20 DUP3 LT EQ PUSH2 0x73F JUMPI PUSH1 0x1F DUP2 GT PUSH2 0x6DA JUMPI JUMPDEST POP PUSH1 0x20 SWAP5 PUSH1 0x1F DUP3 GT PUSH1 0x1 EQ PUSH2 0x670 JUMPI SWAP5 DUP2 SWAP3 SWAP4 SWAP5 SWAP6 PUSH1 0x0 SWAP3 PUSH2 0x665 JUMPI JUMPDEST POP POP DUP2 PUSH1 0x1 SHL SWAP2 PUSH1 0x0 NOT SWAP1 PUSH1 0x3 SHL SHR NOT AND OR PUSH1 0x8 SSTORE SWAP2 SWAP1 SWAP2 JUMPDEST PUSH1 0x9 SSTORE PUSH1 0x0 SWAP2 JUMPDEST DUP2 MLOAD DUP4 LT ISZERO PUSH2 0x658 JUMPI PUSH1 0x0 SWAP3 PUSH1 0x20 DUP2 PUSH1 0x5 SHL DUP5 ADD ADD MLOAD PUSH1 0xC SLOAD PUSH9 0x10000000000000000 DUP2 LT ISZERO PUSH2 0x644 JUMPI PUSH1 0x1 DUP2 ADD DUP1 PUSH1 0xC SSTORE DUP2 LT ISZERO PUSH2 0x630 JUMPI PUSH1 0xC DUP7 MSTORE DUP2 MLOAD PUSH1 0x3 SWAP2 SWAP1 SWAP2 MUL PUSH32 0xDF6966C971051C3D54EC59162606531493A51404A002842F56009D7E5CF4A8C7 DUP2 ADD SWAP2 DUP3 SSTORE PUSH1 0x20 DUP4 ADD MLOAD DUP1 MLOAD SWAP1 SWAP3 SWAP2 PUSH32 0xDF6966C971051C3D54EC59162606531493A51404A002842F56009D7E5CF4A8C8 ADD SWAP1 PUSH1 0x1 PUSH1 0x1 PUSH1 0x40 SHL SUB DUP2 GT PUSH2 0x61C JUMPI DUP2 SLOAD PUSH1 0x1 DUP2 DUP2 SHR SWAP2 AND DUP1 ISZERO PUSH2 0x612 JUMPI JUMPDEST PUSH1 0x20 DUP3 LT EQ PUSH2 0x5FE JUMPI SWAP1 DUP2 PUSH1 0x1F DUP10 SWAP6 SWAP5 SWAP4 GT PUSH2 0x5AA JUMPI JUMPDEST POP PUSH1 0x20 SWAP5 PUSH1 0x1F DUP3 GT PUSH1 0x1 EQ PUSH2 0x542 JUMPI PUSH1 0x2 SWAP5 SWAP6 DUP3 SWAP2 DUP13 SWAP3 PUSH2 0x537 JUMPI JUMPDEST POP POP DUP2 PUSH1 0x1 SHL SWAP2 PUSH1 0x0 NOT SWAP1 PUSH1 0x3 SHL SHR NOT AND OR SWAP1 SSTORE JUMPDEST ADD SWAP2 ADD MLOAD DUP1 MLOAD SWAP1 PUSH1 0x1 DUP1 PUSH1 0x40 SHL SUB DUP3 GT PUSH2 0x523 JUMPI DUP3 SLOAD PUSH1 0x1 DUP2 DUP2 SHR SWAP2 AND DUP1 ISZERO PUSH2 0x519 JUMPI JUMPDEST PUSH1 0x20 DUP3 LT EQ PUSH2 0x505 JUMPI PUSH1 0x1F DUP2 GT PUSH2 0x4C0 JUMPI JUMPDEST POP PUSH1 0x20 SWAP1 PUSH1 0x1F DUP4 GT PUSH1 0x1 EQ PUSH2 0x45C JUMPI SWAP1 DUP3 SWAP2 PUSH1 0x1 SWAP7 SWAP8 SWAP9 SWAP3 PUSH2 0x451 JUMPI JUMPDEST POP POP PUSH1 0x0 NOT PUSH1 0x3 DUP4 SWAP1 SHL SHR NOT AND SWAP1 DUP5 SHL OR SWAP1 SSTORE JUMPDEST ADD SWAP2 SWAP1 PUSH2 0x2E4 JUMP JUMPDEST ADD MLOAD SWAP1 POP CODESIZE DUP1 PUSH2 0x435 JUMP JUMPDEST PUSH1 0x1F NOT DUP4 AND DUP5 DUP10 MSTORE DUP3 DUP10 KECCAK256 SWAP9 JUMPDEST DUP2 DUP2 LT PUSH2 0x4A8 JUMPI POP SWAP2 PUSH1 0x1 SWAP7 SWAP8 SWAP9 SWAP2 DUP5 DUP9 SWAP6 SWAP5 LT PUSH2 0x48F JUMPI JUMPDEST POP POP POP DUP2 SHL ADD SWAP1 SSTORE PUSH2 0x449 JUMP JUMPDEST ADD MLOAD PUSH1 0x0 NOT PUSH1 0xF8 DUP5 PUSH1 0x3 SHL AND SHR NOT AND SWAP1 SSTORE CODESIZE DUP1 DUP1 PUSH2 0x482 JUMP JUMPDEST SWAP3 SWAP9 PUSH1 0x20 PUSH1 0x1 DUP2 SWAP3 DUP13 DUP7 ADD MLOAD DUP2 SSTORE ADD SWAP11 ADD SWAP4 ADD PUSH2 0x469 JUMP JUMPDEST DUP4 DUP9 MSTORE PUSH1 0x20 DUP9 KECCAK256 PUSH1 0x1F DUP5 ADD PUSH1 0x5 SHR DUP2 ADD SWAP2 PUSH1 0x20 DUP6 LT PUSH2 0x4FB JUMPI JUMPDEST PUSH1 0x1F ADD PUSH1 0x5 SHR ADD SWAP1 JUMPDEST DUP2 DUP2 LT PUSH2 0x4F0 JUMPI POP PUSH2 0x418 JUMP JUMPDEST DUP9 DUP2 SSTORE PUSH1 0x1 ADD PUSH2 0x4E3 JUMP JUMPDEST SWAP1 SWAP2 POP DUP2 SWAP1 PUSH2 0x4DA JUMP JUMPDEST PUSH4 0x4E487B71 PUSH1 0xE0 SHL DUP9 MSTORE PUSH1 0x22 PUSH1 0x4 MSTORE PUSH1 0x24 DUP9 REVERT JUMPDEST SWAP1 PUSH1 0x7F AND SWAP1 PUSH2 0x406 JUMP JUMPDEST PUSH4 0x4E487B71 PUSH1 0xE0 SHL DUP8 MSTORE PUSH1 0x41 PUSH1 0x4 MSTORE PUSH1 0x24 DUP8 REVERT JUMPDEST ADD MLOAD SWAP1 POP CODESIZE DUP1 PUSH2 0x3CD JUMP JUMPDEST DUP3 DUP12 MSTORE DUP6 DUP12 KECCAK256 SWAP1 PUSH1 0x1F NOT DUP4 AND DUP13 JUMPDEST DUP2 DUP2 LT PUSH2 0x58F JUMPI POP SWAP7 DUP4 SWAP3 SWAP2 PUSH1 0x1 SWAP5 PUSH1 0x2 SWAP9 SWAP10 LT PUSH2 0x576 JUMPI JUMPDEST POP POP POP DUP2 SHL ADD SWAP1 SSTORE PUSH2 0x3E2 JUMP JUMPDEST ADD MLOAD PUSH1 0x0 NOT PUSH1 0xF8 DUP5 PUSH1 0x3 SHL AND SHR NOT AND SWAP1 SSTORE CODESIZE DUP1 DUP1 PUSH2 0x569 JUMP JUMPDEST DUP3 DUP10 ADD MLOAD DUP5 SSTORE PUSH1 0x20 SWAP9 DUP10 ADD SWAP9 DUP13 SWAP9 POP PUSH1 0x1 SWAP1 SWAP5 ADD SWAP4 ADD PUSH2 0x550 JUMP JUMPDEST SWAP1 SWAP2 DUP1 SWAP4 SWAP5 POP DUP11 MSTORE PUSH1 0x20 DUP11 KECCAK256 PUSH1 0x1F DUP4 ADD PUSH1 0x5 SHR DUP2 ADD SWAP2 PUSH1 0x20 DUP5 LT PUSH2 0x5F4 JUMPI JUMPDEST SWAP1 PUSH1 0x1F DUP11 SWAP7 SWAP6 SWAP5 SWAP4 SWAP3 ADD PUSH1 0x5 SHR ADD SWAP1 JUMPDEST DUP2 DUP2 LT PUSH2 0x5E6 JUMPI POP PUSH2 0x3B1 JUMP JUMPDEST DUP12 DUP2 SSTORE DUP10 SWAP6 POP PUSH1 0x1 ADD PUSH2 0x5D9 JUMP JUMPDEST SWAP1 SWAP2 POP DUP2 SWAP1 PUSH2 0x5C9 JUMP JUMPDEST PUSH4 0x4E487B71 PUSH1 0xE0 SHL DUP11 MSTORE PUSH1 0x22 PUSH1 0x4 MSTORE PUSH1 0x24 DUP11 REVERT JUMPDEST SWAP1 PUSH1 0x7F AND SWAP1 PUSH2 0x39A JUMP JUMPDEST PUSH4 0x4E487B71 PUSH1 0xE0 SHL DUP10 MSTORE PUSH1 0x41 PUSH1 0x4 MSTORE PUSH1 0x24 DUP10 REVERT JUMPDEST PUSH4 0x4E487B71 PUSH1 0xE0 SHL DUP7 MSTORE PUSH1 0x32 PUSH1 0x4 MSTORE PUSH1 0x24 DUP7 REVERT JUMPDEST PUSH4 0x4E487B71 PUSH1 0xE0 SHL DUP7 MSTORE PUSH1 0x41 PUSH1 0x4 MSTORE PUSH1 0x24 DUP7 REVERT JUMPDEST MLOAD PUSH2 0x16BB SWAP1 DUP2 PUSH2 0xB7C DUP3 CODECOPY RETURN JUMPDEST ADD MLOAD SWAP1 POP CODESIZE DUP1 PUSH2 0x2C4 JUMP JUMPDEST PUSH1 0x1F NOT DUP3 AND SWAP6 PUSH1 0x8 PUSH1 0x0 MSTORE DUP1 PUSH1 0x0 KECCAK256 SWAP2 PUSH1 0x0 JUMPDEST DUP9 DUP2 LT PUSH2 0x6C2 JUMPI POP DUP4 PUSH1 0x1 SWAP6 SWAP7 SWAP8 SWAP9 LT PUSH2 0x6A9 JUMPI JUMPDEST POP POP POP DUP2 SHL ADD PUSH1 0x8 SSTORE SWAP2 SWAP1 SWAP2 PUSH2 0x2DD JUMP JUMPDEST ADD MLOAD PUSH1 0x0 NOT PUSH1 0xF8 DUP5 PUSH1 0x3 SHL AND SHR NOT AND SWAP1 SSTORE CODESIZE DUP1 DUP1 PUSH2 0x698 JUMP JUMPDEST SWAP2 SWAP3 PUSH1 0x20 PUSH1 0x1 DUP2 SWAP3 DUP7 DUP6 ADD MLOAD DUP2 SSTORE ADD SWAP5 ADD SWAP3 ADD PUSH2 0x683 JUMP JUMPDEST PUSH1 0x8 PUSH1 0x0 MSTORE PUSH32 0xF3F7A9FE364FAAB93B216DA50A3214154F22A0A2B415B23A84C8169E8B636EE3 PUSH1 0x1F DUP4 ADD PUSH1 0x5 SHR DUP2 ADD SWAP2 PUSH1 0x20 DUP5 LT PUSH2 0x735 JUMPI JUMPDEST PUSH1 0x1F ADD PUSH1 0x5 SHR ADD SWAP1 JUMPDEST DUP2 DUP2 LT PUSH2 0x729 JUMPI POP PUSH2 0x2A7 JUMP JUMPDEST PUSH1 0x0 DUP2 SSTORE PUSH1 0x1 ADD PUSH2 0x71C JUMP JUMPDEST SWAP1 SWAP2 POP DUP2 SWAP1 PUSH2 0x713 JUMP JUMPDEST PUSH4 0x4E487B71 PUSH1 0xE0 SHL PUSH1 0x0 MSTORE PUSH1 0x22 PUSH1 0x4 MSTORE PUSH1 0x24 PUSH1 0x0 REVERT JUMPDEST SWAP1 PUSH1 0x7F AND SWAP1 PUSH2 0x295 JUMP JUMPDEST PUSH4 0x4E487B71 PUSH1 0xE0 SHL PUSH1 0x0 MSTORE PUSH1 0x41 PUSH1 0x4 MSTORE PUSH1 0x24 PUSH1 0x0 REVERT JUMPDEST ADD MLOAD SWAP1 POP CODESIZE DUP1 PUSH2 0x25E JUMP JUMPDEST PUSH1 0xB PUSH1 0x0 SWAP1 DUP2 MSTORE DUP3 DUP2 KECCAK256 SWAP4 POP PUSH1 0x1F NOT DUP6 AND SWAP1 JUMPDEST DUP2 DUP2 LT PUSH2 0x7D0 JUMPI POP SWAP1 DUP5 PUSH1 0x1 SWAP6 SWAP5 SWAP4 SWAP3 LT PUSH2 0x7B7 JUMPI JUMPDEST POP POP POP DUP2 SHL ADD PUSH1 0xB SSTORE PUSH2 0x274 JUMP JUMPDEST ADD MLOAD PUSH1 0x0 NOT PUSH1 0xF8 DUP5 PUSH1 0x3 SHL AND SHR NOT AND SWAP1 SSTORE CODESIZE DUP1 DUP1 PUSH2 0x7A9 JUMP JUMPDEST SWAP3 SWAP4 PUSH1 0x20 PUSH1 0x1 DUP2 SWAP3 DUP8 DUP7 ADD MLOAD DUP2 SSTORE ADD SWAP6 ADD SWAP4 ADD PUSH2 0x793 JUMP JUMPDEST PUSH1 0xB PUSH1 0x0 MSTORE SWAP1 SWAP2 POP PUSH32 0x175B7A638427703F0DBE7BB9BBF987A2551717B34E79F33B5B1008D1FA01DB9 PUSH1 0x1F DUP5 ADD PUSH1 0x5 SHR DUP2 ADD SWAP2 PUSH1 0x20 DUP6 LT PUSH2 0x84E JUMPI JUMPDEST SWAP1 PUSH1 0x1F DUP6 SWAP5 SWAP4 SWAP3 ADD PUSH1 0x5 SHR ADD SWAP1 JUMPDEST DUP2 DUP2 LT PUSH2 0x83F JUMPI POP PUSH2 0x247 JUMP JUMPDEST PUSH1 0x0 DUP2 SSTORE DUP5 SWAP4 POP PUSH1 0x1 ADD PUSH2 0x832 JUMP JUMPDEST SWAP1 SWAP2 POP DUP2 SWAP1 PUSH2 0x824 JUMP JUMPDEST SWAP2 PUSH1 0x7F AND SWAP2 PUSH2 0x233 JUMP JUMPDEST PUSH4 0x1E4FBDF7 PUSH1 0xE0 SHL PUSH1 0x0 MSTORE PUSH1 0x0 PUSH1 0x4 MSTORE PUSH1 0x24 PUSH1 0x0 REVERT JUMPDEST ADD MLOAD SWAP1 POP CODESIZE DUP1 PUSH2 0x1B2 JUMP JUMPDEST PUSH1 0x1 PUSH1 0x0 SWAP1 DUP2 MSTORE DUP3 DUP2 KECCAK256 SWAP4 POP PUSH1 0x1F NOT DUP6 AND SWAP1 JUMPDEST DUP2 DUP2 LT PUSH2 0x8D3 JUMPI POP SWAP1 DUP5 PUSH1 0x1 SWAP6 SWAP5 SWAP4 SWAP3 LT PUSH2 0x8BA JUMPI JUMPDEST POP POP POP DUP2 SHL ADD PUSH1 0x1 SSTORE PUSH2 0x1C8 JUMP JUMPDEST ADD MLOAD PUSH1 0x0 NOT PUSH1 0xF8 DUP5 PUSH1 0x3 SHL AND SHR NOT AND SWAP1 SSTORE CODESIZE DUP1 DUP1 PUSH2 0x8AC JUMP JUMPDEST SWAP3 SWAP4 PUSH1 0x20 PUSH1 0x1 DUP2 SWAP3 DUP8 DUP7 ADD MLOAD DUP2 SSTORE ADD SWAP6 ADD SWAP4 ADD PUSH2 0x896 JUMP JUMPDEST PUSH1 0x1 PUSH1 0x0 MSTORE SWAP1 SWAP2 POP PUSH32 0xB10E2D527612073B26EECDFD717E6A320CF44B4AFAC2B0732D9FCBE2B7FA0CF6 PUSH1 0x1F DUP5 ADD PUSH1 0x5 SHR DUP2 ADD SWAP2 PUSH1 0x20 DUP6 LT PUSH2 0x951 JUMPI JUMPDEST SWAP1 PUSH1 0x1F DUP6 SWAP5 SWAP4 SWAP3 ADD PUSH1 0x5 SHR ADD SWAP1 JUMPDEST DUP2 DUP2 LT PUSH2 0x942 JUMPI POP PUSH2 0x19B JUMP JUMPDEST PUSH1 0x0 DUP2 SSTORE DUP5 SWAP4 POP PUSH1 0x1 ADD PUSH2 0x935 JUMP JUMPDEST SWAP1 SWAP2 POP DUP2 SWAP1 PUSH2 0x927 JUMP JUMPDEST SWAP2 PUSH1 0x7F AND SWAP2 PUSH2 0x187 JUMP JUMPDEST SWAP1 POP DUP9 ADD MLOAD CODESIZE PUSH2 0x14F JUMP JUMPDEST PUSH1 0x0 DUP1 DUP1 MSTORE DUP2 DUP2 KECCAK256 SWAP3 POP PUSH1 0x1F NOT DUP5 AND SWAP1 JUMPDEST DUP12 DUP3 DUP3 LT PUSH2 0x9BE JUMPI POP POP SWAP1 DUP4 PUSH1 0x1 SWAP5 SWAP4 SWAP3 LT PUSH2 0x9A5 JUMPI JUMPDEST POP POP DUP2 SHL ADD PUSH1 0x0 SSTORE PUSH2 0x164 JUMP JUMPDEST DUP11 ADD MLOAD PUSH1 0x0 NOT PUSH1 0xF8 DUP5 PUSH1 0x3 SHL AND SHR NOT AND SWAP1 SSTORE CODESIZE DUP1 PUSH2 0x998 JUMP JUMPDEST PUSH1 0x1 DUP5 SWAP6 PUSH1 0x20 SWAP4 SWAP6 DUP5 SWAP4 ADD MLOAD DUP2 SSTORE ADD SWAP5 ADD SWAP3 ADD PUSH2 0x981 JUMP JUMPDEST PUSH1 0x0 DUP1 MSTORE PUSH32 0x290DECD9548B62A8D60345A988386FC84BA6BC95484008F6362F93160EF3E563 PUSH1 0x1F DUP4 ADD PUSH1 0x5 SHR DUP2 ADD SWAP2 PUSH1 0x20 DUP5 LT PUSH2 0xA30 JUMPI JUMPDEST PUSH1 0x1F ADD PUSH1 0x5 SHR ADD SWAP1 JUMPDEST DUP2 DUP2 LT PUSH2 0xA24 JUMPI POP PUSH2 0x138 JUMP JUMPDEST PUSH1 0x0 DUP2 SSTORE PUSH1 0x1 ADD PUSH2 0xA17 JUMP JUMPDEST SWAP1 SWAP2 POP DUP2 SWAP1 PUSH2 0xA0E JUMP JUMPDEST SWAP1 PUSH1 0x7F AND SWAP1 PUSH2 0x126 JUMP JUMPDEST DUP3 MLOAD PUSH1 0x1 PUSH1 0x1 PUSH1 0x40 SHL SUB DUP2 GT PUSH2 0xAE6 JUMPI DUP3 ADD SWAP1 PUSH1 0x60 DUP3 DUP8 SUB PUSH1 0x1F NOT ADD SLT PUSH2 0xAE6 JUMPI PUSH1 0x40 MLOAD SWAP1 PUSH1 0x60 DUP3 ADD PUSH1 0x1 PUSH1 0x1 PUSH1 0x40 SHL SUB DUP2 GT DUP4 DUP3 LT OR PUSH2 0x75F JUMPI PUSH1 0x40 SWAP1 DUP2 MSTORE PUSH1 0x20 DUP5 ADD MLOAD DUP4 MSTORE DUP4 ADD MLOAD PUSH1 0x1 PUSH1 0x1 PUSH1 0x40 SHL SUB DUP2 GT PUSH2 0xAE6 JUMPI DUP8 PUSH1 0x20 PUSH2 0xAAB SWAP3 DUP7 ADD ADD PUSH2 0xB10 JUMP JUMPDEST PUSH1 0x20 DUP4 ADD MSTORE PUSH1 0x60 DUP4 ADD MLOAD SWAP2 PUSH1 0x1 PUSH1 0x1 PUSH1 0x40 SHL SUB DUP4 GT PUSH2 0xAE6 JUMPI PUSH2 0xAD6 DUP9 PUSH1 0x20 DUP1 SWAP7 SWAP6 DUP2 SWAP7 ADD ADD PUSH2 0xB10 JUMP JUMPDEST PUSH1 0x40 DUP3 ADD MSTORE DUP2 MSTORE ADD SWAP3 ADD SWAP2 PUSH2 0xDD JUMP JUMPDEST PUSH1 0x0 DUP1 REVERT JUMPDEST PUSH1 0x40 MLOAD SWAP2 SWAP1 PUSH1 0x1F ADD PUSH1 0x1F NOT AND DUP3 ADD PUSH1 0x1 PUSH1 0x1 PUSH1 0x40 SHL SUB DUP2 GT DUP4 DUP3 LT OR PUSH2 0x75F JUMPI PUSH1 0x40 MSTORE JUMP JUMPDEST DUP2 PUSH1 0x1F DUP3 ADD SLT ISZERO PUSH2 0xAE6 JUMPI DUP1 MLOAD SWAP1 PUSH1 0x1 PUSH1 0x1 PUSH1 0x40 SHL SUB DUP3 GT PUSH2 0x75F JUMPI PUSH2 0xB3F PUSH1 0x1F DUP4 ADD PUSH1 0x1F NOT AND PUSH1 0x20 ADD PUSH2 0xAEB JUMP JUMPDEST SWAP3 DUP3 DUP5 MSTORE PUSH1 0x20 DUP4 DUP4 ADD ADD GT PUSH2 0xAE6 JUMPI PUSH1 0x0 JUMPDEST DUP3 DUP2 LT PUSH2 0xB66 JUMPI POP POP PUSH1 0x20 PUSH1 0x0 SWAP2 DUP4 ADD ADD MSTORE SWAP1 JUMP JUMPDEST DUP1 PUSH1 0x20 DUP1 SWAP3 DUP5 ADD ADD MLOAD DUP3 DUP3 DUP8 ADD ADD MSTORE ADD PUSH2 0xB51 JUMP INVALID PUSH1 0x80 DUP1 PUSH1 0x40 MSTORE PUSH1 0x4 CALLDATASIZE LT ISZERO PUSH2 0x13 JUMPI PUSH1 0x0 DUP1 REVERT JUMPDEST PUSH1 0x0 CALLDATALOAD PUSH1 0xE0 SHR SWAP1 DUP2 PUSH4 0x1FFC9A7 EQ PUSH2 0xD90 JUMPI POP DUP1 PUSH4 0x6FDDE03 EQ PUSH2 0xCEB JUMPI DUP1 PUSH4 0x81812FC EQ PUSH2 0xCAD JUMPI DUP1 PUSH4 0x95EA7B3 EQ PUSH2 0xBBE JUMPI DUP1 PUSH4 0x1B6CDE10 EQ PUSH2 0xBA0 JUMPI DUP1 PUSH4 0x23B872DD EQ PUSH2 0xB89 JUMPI DUP1 PUSH4 0x42842E0E EQ PUSH2 0xB5F JUMPI DUP1 PUSH4 0x5D1CA631 EQ PUSH2 0x820 JUMPI DUP1 PUSH4 0x6352211E EQ PUSH2 0xB2F JUMPI DUP1 PUSH4 0x70A08231 EQ PUSH2 0xAD9 JUMPI DUP1 PUSH4 0x715018A6 EQ PUSH2 0xA7C JUMPI DUP1 PUSH4 0x8DA5CB5B EQ PUSH2 0xA53 JUMPI DUP1 PUSH4 0x8DC10768 EQ PUSH2 0x985 JUMPI DUP1 PUSH4 0x95D89B41 EQ PUSH2 0x8DD JUMPI DUP1 PUSH4 0xA22CB465 EQ PUSH2 0x83C JUMPI DUP1 PUSH4 0xAF640D0F EQ PUSH2 0x820 JUMPI DUP1 PUSH4 0xB0DF9E53 EQ PUSH2 0x6C5 JUMPI DUP1 PUSH4 0xB88D4FDE EQ PUSH2 0x663 JUMPI DUP1 PUSH4 0xC87B56DD EQ PUSH2 0x644 JUMPI DUP1 PUSH4 0xCD7E53CC EQ PUSH2 0x2EB JUMPI DUP1 PUSH4 0xE5326AB1 EQ PUSH2 0x206 JUMPI DUP1 PUSH4 0xE985E9C5 EQ PUSH2 0x1AB JUMPI PUSH4 0xF2FDE38B EQ PUSH2 0x11C JUMPI PUSH1 0x0 DUP1 REVERT JUMPDEST CALLVALUE PUSH2 0x1A6 JUMPI PUSH1 0x20 CALLDATASIZE PUSH1 0x3 NOT ADD SLT PUSH2 0x1A6 JUMPI PUSH2 0x135 PUSH2 0xE5D JUMP JUMPDEST PUSH2 0x13D PUSH2 0x1628 JUMP JUMPDEST PUSH1 0x1 PUSH1 0x1 PUSH1 0xA0 SHL SUB AND DUP1 ISZERO PUSH2 0x190 JUMPI PUSH1 0x7 DUP1 SLOAD PUSH1 0x1 PUSH1 0x1 PUSH1 0xA0 SHL SUB NOT DUP2 AND DUP4 OR SWAP1 SWAP2 SSTORE PUSH1 0x1 PUSH1 0x1 PUSH1 0xA0 SHL SUB AND PUSH32 0x8BE0079C531659141344CD1FD0A4F28419497F9722A3DAAFE3B4186F6B6457E0 PUSH1 0x0 DUP1 LOG3 STOP JUMPDEST PUSH4 0x1E4FBDF7 PUSH1 0xE0 SHL PUSH1 0x0 MSTORE PUSH1 0x0 PUSH1 0x4 MSTORE PUSH1 0x24 PUSH1 0x0 REVERT JUMPDEST PUSH1 0x0 DUP1 REVERT JUMPDEST CALLVALUE PUSH2 0x1A6 JUMPI PUSH1 0x40 CALLDATASIZE PUSH1 0x3 NOT ADD SLT PUSH2 0x1A6 JUMPI PUSH2 0x1C4 PUSH2 0xE5D JUMP JUMPDEST PUSH2 0x1CC PUSH2 0xE73 JUMP JUMPDEST SWAP1 PUSH1 0x1 DUP1 PUSH1 0xA0 SHL SUB AND PUSH1 0x0 MSTORE PUSH1 0x5 PUSH1 0x20 MSTORE PUSH1 0x40 PUSH1 0x0 KECCAK256 SWAP1 PUSH1 0x1 DUP1 PUSH1 0xA0 SHL SUB AND PUSH1 0x0 MSTORE PUSH1 0x20 MSTORE PUSH1 0x20 PUSH1 0xFF PUSH1 0x40 PUSH1 0x0 KECCAK256 SLOAD AND PUSH1 0x40 MLOAD SWAP1 ISZERO ISZERO DUP2 MSTORE RETURN JUMPDEST CALLVALUE PUSH2 0x1A6 JUMPI PUSH1 0x0 CALLDATASIZE PUSH1 0x3 NOT ADD SLT PUSH2 0x1A6 JUMPI PUSH1 0x40 MLOAD PUSH1 0x0 PUSH1 0x8 SLOAD PUSH2 0x228 DUP2 PUSH2 0xEC3 JUMP JUMPDEST DUP1 DUP5 MSTORE SWAP1 PUSH1 0x1 DUP2 AND SWAP1 DUP2 ISZERO PUSH2 0x2C7 JUMPI POP PUSH1 0x1 EQ PUSH2 0x268 JUMPI JUMPDEST PUSH2 0x264 DUP4 PUSH2 0x250 DUP2 DUP6 SUB DUP3 PUSH2 0xEFD JUMP JUMPDEST PUSH1 0x40 MLOAD SWAP2 DUP3 SWAP2 PUSH1 0x20 DUP4 MSTORE PUSH1 0x20 DUP4 ADD SWAP1 PUSH2 0xE38 JUMP JUMPDEST SUB SWAP1 RETURN JUMPDEST PUSH1 0x8 PUSH1 0x0 SWAP1 DUP2 MSTORE PUSH32 0xF3F7A9FE364FAAB93B216DA50A3214154F22A0A2B415B23A84C8169E8B636EE3 SWAP4 SWAP3 POP SWAP1 JUMPDEST DUP1 DUP3 LT PUSH2 0x2AD JUMPI POP SWAP1 SWAP2 POP DUP2 ADD PUSH1 0x20 ADD PUSH2 0x250 PUSH2 0x240 JUMP JUMPDEST SWAP2 SWAP3 PUSH1 0x1 DUP2 PUSH1 0x20 SWAP3 SLOAD DUP4 DUP6 DUP9 ADD ADD MSTORE ADD SWAP2 ADD SWAP1 SWAP3 SWAP2 PUSH2 0x295 JUMP JUMPDEST PUSH1 0xFF NOT AND PUSH1 0x20 DUP1 DUP7 ADD SWAP2 SWAP1 SWAP2 MSTORE SWAP2 ISZERO ISZERO PUSH1 0x5 SHL DUP5 ADD SWAP1 SWAP2 ADD SWAP2 POP PUSH2 0x250 SWAP1 POP PUSH2 0x240 JUMP JUMPDEST CALLVALUE PUSH2 0x1A6 JUMPI PUSH1 0x40 CALLDATASIZE PUSH1 0x3 NOT ADD SLT PUSH2 0x1A6 JUMPI PUSH2 0x304 PUSH2 0xE5D JUMP JUMPDEST PUSH1 0x24 CALLDATALOAD PUSH8 0xFFFFFFFFFFFFFFFF DUP2 GT PUSH2 0x1A6 JUMPI CALLDATASIZE PUSH1 0x23 DUP3 ADD SLT ISZERO PUSH2 0x1A6 JUMPI PUSH2 0x335 SWAP1 CALLDATASIZE SWAP1 PUSH1 0x24 DUP2 PUSH1 0x4 ADD CALLDATALOAD SWAP2 ADD PUSH2 0x1096 JUMP JUMPDEST SWAP1 PUSH2 0x33E PUSH2 0x1628 JUMP JUMPDEST PUSH1 0xA SLOAD PUSH1 0x0 NOT DUP2 EQ PUSH2 0x62E JUMPI PUSH1 0x1 ADD PUSH1 0xA DUP2 SWAP1 SSTORE SWAP1 PUSH1 0x1 PUSH1 0x1 PUSH1 0xA0 SHL SUB AND DUP1 ISZERO PUSH2 0x618 JUMPI PUSH1 0x0 SWAP1 DUP3 DUP3 MSTORE PUSH1 0x2 PUSH1 0x20 MSTORE DUP3 PUSH1 0x1 DUP1 PUSH1 0xA0 SHL SUB PUSH1 0x40 DUP5 KECCAK256 SLOAD AND SWAP2 DUP3 PUSH32 0xDDF252AD1BE2C89B69C2B068FC378DAA952BA7F163C4A11628F55A4DF523B3EF DUP2 ISZERO ISZERO SWAP6 DUP7 PUSH2 0x5E3 JUMPI JUMPDEST DUP4 DUP2 MSTORE PUSH1 0x3 PUSH1 0x20 MSTORE PUSH1 0x40 DUP2 KECCAK256 PUSH1 0x1 DUP2 SLOAD ADD SWAP1 SSTORE DUP5 DUP2 MSTORE PUSH1 0x2 PUSH1 0x20 MSTORE PUSH1 0x40 DUP2 KECCAK256 DUP5 PUSH12 0xFFFFFFFFFFFFFFFFFFFFFFFF PUSH1 0xA0 SHL DUP3 SLOAD AND OR SWAP1 SSTORE DUP1 LOG4 POP PUSH2 0x5CD JUMPI DUP1 PUSH1 0x0 MSTORE PUSH1 0x6 PUSH1 0x20 MSTORE PUSH1 0x40 PUSH1 0x0 KECCAK256 SWAP2 DUP1 MLOAD SWAP3 PUSH8 0xFFFFFFFFFFFFFFFF DUP5 GT PUSH2 0x5B7 JUMPI PUSH2 0x410 DUP2 SLOAD PUSH2 0xEC3 JUMP JUMPDEST SWAP4 PUSH1 0x1F DUP6 GT PUSH2 0x56F JUMPI JUMPDEST PUSH1 0x20 SWAP5 POP DUP1 DUP6 PUSH1 0x1F DUP3 GT PUSH1 0x1 EQ PUSH2 0x50D JUMPI PUSH1 0x0 SWAP2 PUSH2 0x502 JUMPI JUMPDEST POP DUP2 PUSH1 0x1 SHL SWAP2 PUSH1 0x0 NOT SWAP1 PUSH1 0x3 SHL SHR NOT AND OR SWAP1 SSTORE JUMPDEST PUSH32 0xF8E1A15ABA9398E019F0B49DF1A4FDE98EE17AE345CB5F6B5E2C27F5033E8CE7 DUP4 PUSH1 0x40 MLOAD DUP5 DUP2 MSTORE LOG1 PUSH1 0x0 DUP1 PUSH1 0x40 SWAP3 PUSH2 0x4D7 PUSH2 0x4EB DUP6 MLOAD SWAP3 PUSH2 0x489 DUP8 DUP6 PUSH2 0xEFD JUMP JUMPDEST PUSH1 0x9 DUP5 MSTORE PUSH9 0x26B4B73A32B2101D1 PUSH1 0xBD SHL DUP10 DUP6 ADD MSTORE DUP7 MLOAD SWAP3 DUP4 SWAP2 PUSH2 0x4C5 DUP12 DUP5 ADD SWAP7 PUSH4 0x5821EFA1 PUSH1 0xE0 SHL DUP9 MSTORE PUSH1 0x60 PUSH1 0x24 DUP7 ADD MSTORE PUSH1 0x84 DUP6 ADD SWAP1 PUSH2 0xE38 JUMP JUMPDEST DUP4 DUP2 SUB PUSH1 0x23 NOT ADD PUSH1 0x44 DUP6 ADD MSTORE SWAP1 PUSH2 0xE38 JUMP JUMPDEST DUP9 PUSH1 0x64 DUP4 ADD MSTORE SUB PUSH1 0x1F NOT DUP2 ADD DUP4 MSTORE DUP3 PUSH2 0xEFD JUMP JUMPDEST MLOAD SWAP1 PUSH11 0x636F6E736F6C652E6C6F67 GAS STATICCALL POP MLOAD SWAP1 DUP2 MSTORE RETURN JUMPDEST SWAP1 POP DUP4 ADD MLOAD DUP7 PUSH2 0x433 JUMP JUMPDEST PUSH1 0x0 DUP5 DUP2 MSTORE DUP2 DUP2 KECCAK256 SWAP3 POP PUSH1 0x1F NOT DUP5 AND SWAP1 JUMPDEST DUP2 DUP2 LT PUSH2 0x558 JUMPI POP SWAP1 DUP4 PUSH1 0x1 SWAP5 SWAP4 SWAP3 LT PUSH2 0x53F JUMPI JUMPDEST POP POP DUP2 SHL ADD SWAP1 SSTORE PUSH2 0x447 JUMP JUMPDEST DUP6 ADD MLOAD PUSH1 0x0 NOT PUSH1 0xF8 DUP5 PUSH1 0x3 SHL AND SHR NOT AND SWAP1 SSTORE DUP7 DUP1 PUSH2 0x533 JUMP JUMPDEST SWAP2 SWAP3 DUP9 PUSH1 0x1 DUP2 SWAP3 DUP7 DUP11 ADD MLOAD DUP2 SSTORE ADD SWAP5 ADD SWAP3 ADD PUSH2 0x51E JUMP JUMPDEST DUP2 PUSH1 0x0 MSTORE PUSH1 0x20 PUSH1 0x0 KECCAK256 PUSH1 0x1F DUP3 ADD PUSH1 0x5 SHR DUP2 ADD SWAP6 PUSH1 0x20 DUP4 LT PUSH2 0x5AD JUMPI JUMPDEST PUSH1 0x1F ADD PUSH1 0x5 SHR ADD SWAP5 JUMPDEST DUP6 DUP2 LT PUSH2 0x5A1 JUMPI POP PUSH2 0x41A JUMP JUMPDEST PUSH1 0x0 DUP2 SSTORE PUSH1 0x1 ADD PUSH2 0x594 JUMP JUMPDEST SWAP1 SWAP6 POP DUP6 SWAP1 PUSH2 0x58B JUMP JUMPDEST PUSH4 0x4E487B71 PUSH1 0xE0 SHL PUSH1 0x0 MSTORE PUSH1 0x41 PUSH1 0x4 MSTORE PUSH1 0x24 PUSH1 0x0 REVERT JUMPDEST PUSH4 0x39E35637 PUSH1 0xE1 SHL PUSH1 0x0 MSTORE PUSH1 0x0 PUSH1 0x4 MSTORE PUSH1 0x24 PUSH1 0x0 REVERT JUMPDEST PUSH1 0x0 DUP6 DUP2 MSTORE PUSH1 0x4 PUSH1 0x20 MSTORE PUSH1 0x40 SWAP1 KECCAK256 DUP1 SLOAD PUSH1 0x1 PUSH1 0x1 PUSH1 0xA0 SHL SUB NOT AND SWAP1 SSTORE DUP3 DUP2 MSTORE PUSH1 0x3 PUSH1 0x20 MSTORE PUSH1 0x40 DUP2 KECCAK256 DUP1 SLOAD PUSH1 0x0 NOT ADD SWAP1 SSTORE PUSH2 0x3A8 JUMP JUMPDEST PUSH4 0x32505749 PUSH1 0xE1 SHL PUSH1 0x0 MSTORE PUSH1 0x0 PUSH1 0x4 MSTORE PUSH1 0x24 PUSH1 0x0 REVERT JUMPDEST PUSH4 0x4E487B71 PUSH1 0xE0 SHL PUSH1 0x0 MSTORE PUSH1 0x11 PUSH1 0x4 MSTORE PUSH1 0x24 PUSH1 0x0 REVERT JUMPDEST CALLVALUE PUSH2 0x1A6 JUMPI PUSH1 0x20 CALLDATASIZE PUSH1 0x3 NOT ADD SLT PUSH2 0x1A6 JUMPI PUSH2 0x264 PUSH2 0x250 PUSH1 0x4 CALLDATALOAD PUSH2 0x13F6 JUMP JUMPDEST CALLVALUE PUSH2 0x1A6 JUMPI PUSH1 0x80 CALLDATASIZE PUSH1 0x3 NOT ADD SLT PUSH2 0x1A6 JUMPI PUSH2 0x67C PUSH2 0xE5D JUMP JUMPDEST PUSH2 0x684 PUSH2 0xE73 JUMP JUMPDEST PUSH1 0x64 CALLDATALOAD SWAP2 PUSH8 0xFFFFFFFFFFFFFFFF DUP4 GT PUSH2 0x1A6 JUMPI CALLDATASIZE PUSH1 0x23 DUP5 ADD SLT ISZERO PUSH2 0x1A6 JUMPI PUSH2 0x6B9 PUSH2 0x6C3 SWAP4 CALLDATASIZE SWAP1 PUSH1 0x24 DUP2 PUSH1 0x4 ADD CALLDATALOAD SWAP2 ADD PUSH2 0x1096 JUMP JUMPDEST SWAP2 PUSH1 0x44 CALLDATALOAD SWAP2 PUSH2 0x1263 JUMP JUMPDEST STOP JUMPDEST CALLVALUE PUSH2 0x1A6 JUMPI PUSH1 0x0 CALLDATASIZE PUSH1 0x3 NOT ADD SLT PUSH2 0x1A6 JUMPI PUSH1 0xC SLOAD PUSH8 0xFFFFFFFFFFFFFFFF DUP2 GT PUSH2 0x5B7 JUMPI PUSH1 0x40 MLOAD SWAP1 PUSH2 0x6FC PUSH1 0x20 DUP3 PUSH1 0x5 SHL ADD DUP4 PUSH2 0xEFD JUMP JUMPDEST DUP1 DUP3 MSTORE PUSH1 0x20 DUP3 ADD DUP1 SWAP2 PUSH1 0xC PUSH1 0x0 MSTORE PUSH32 0xDF6966C971051C3D54EC59162606531493A51404A002842F56009D7E5CF4A8C7 SWAP2 PUSH1 0x0 SWAP1 JUMPDEST DUP3 DUP3 LT PUSH2 0x7C8 JUMPI DUP5 DUP7 PUSH1 0x40 MLOAD SWAP2 DUP3 SWAP2 PUSH1 0x20 DUP4 ADD SWAP1 PUSH1 0x20 DUP5 MSTORE MLOAD DUP1 SWAP2 MSTORE PUSH1 0x40 DUP4 ADD SWAP1 PUSH1 0x40 DUP2 PUSH1 0x5 SHL DUP6 ADD ADD SWAP3 SWAP2 PUSH1 0x0 SWAP1 JUMPDEST DUP3 DUP3 LT PUSH2 0x76F JUMPI POP POP POP POP SUB SWAP1 RETURN JUMPDEST SWAP2 SWAP4 PUSH1 0x1 SWAP2 SWAP4 SWAP6 POP PUSH1 0x20 PUSH2 0x7B8 DUP2 SWAP3 PUSH1 0x3F NOT DUP11 DUP3 SUB ADD DUP7 MSTORE DUP9 MLOAD SWAP1 DUP2 MLOAD DUP2 MSTORE PUSH1 0x40 PUSH2 0x7A7 DUP6 DUP5 ADD MLOAD PUSH1 0x60 DUP8 DUP6 ADD MSTORE PUSH1 0x60 DUP5 ADD SWAP1 PUSH2 0xE38 JUMP JUMPDEST SWAP3 ADD MLOAD SWAP1 PUSH1 0x40 DUP2 DUP5 SUB SWAP2 ADD MSTORE PUSH2 0xE38 JUMP JUMPDEST SWAP7 ADD SWAP3 ADD SWAP3 ADD DUP6 SWAP5 SWAP4 SWAP2 SWAP3 PUSH2 0x760 JUMP JUMPDEST PUSH1 0x40 MLOAD PUSH1 0x60 DUP2 ADD DUP2 DUP2 LT PUSH8 0xFFFFFFFFFFFFFFFF DUP3 GT OR PUSH2 0x5B7 JUMPI PUSH1 0x1 SWAP3 PUSH1 0x3 SWAP3 PUSH1 0x20 SWAP3 PUSH1 0x40 MSTORE DUP8 SLOAD DUP2 MSTORE PUSH2 0x7FD DUP6 DUP10 ADD PUSH2 0xFD8 JUMP JUMPDEST DUP4 DUP3 ADD MSTORE PUSH2 0x80D PUSH1 0x2 DUP10 ADD PUSH2 0xFD8 JUMP JUMPDEST PUSH1 0x40 DUP3 ADD MSTORE DUP2 MSTORE ADD SWAP5 ADD SWAP2 ADD SWAP1 SWAP3 PUSH2 0x730 JUMP JUMPDEST CALLVALUE PUSH2 0x1A6 JUMPI PUSH1 0x0 CALLDATASIZE PUSH1 0x3 NOT ADD SLT PUSH2 0x1A6 JUMPI PUSH2 0x264 PUSH2 0x250 PUSH2 0xF1F JUMP JUMPDEST CALLVALUE PUSH2 0x1A6 JUMPI PUSH1 0x40 CALLDATASIZE PUSH1 0x3 NOT ADD SLT PUSH2 0x1A6 JUMPI PUSH2 0x855 PUSH2 0xE5D JUMP JUMPDEST PUSH1 0x24 CALLDATALOAD SWAP1 DUP2 ISZERO ISZERO DUP1 SWAP3 SUB PUSH2 0x1A6 JUMPI PUSH1 0x1 PUSH1 0x1 PUSH1 0xA0 SHL SUB AND SWAP1 DUP2 ISZERO PUSH2 0x8C8 JUMPI CALLER PUSH1 0x0 MSTORE PUSH1 0x5 PUSH1 0x20 MSTORE PUSH1 0x40 PUSH1 0x0 KECCAK256 DUP3 PUSH1 0x0 MSTORE PUSH1 0x20 MSTORE PUSH1 0x40 PUSH1 0x0 KECCAK256 PUSH1 0xFF NOT DUP2 SLOAD AND PUSH1 0xFF DUP4 AND OR SWAP1 SSTORE PUSH1 0x40 MLOAD SWAP1 DUP2 MSTORE PUSH32 0x17307EAB39AB6107E8899845AD3D59BD9653F200F220920489CA2B5937696C31 PUSH1 0x20 CALLER SWAP3 LOG3 STOP JUMPDEST POP PUSH4 0xB611743 PUSH1 0xE3 SHL PUSH1 0x0 MSTORE PUSH1 0x4 MSTORE PUSH1 0x24 PUSH1 0x0 REVERT JUMPDEST CALLVALUE PUSH2 0x1A6 JUMPI PUSH1 0x0 CALLDATASIZE PUSH1 0x3 NOT ADD SLT PUSH2 0x1A6 JUMPI PUSH1 0x40 MLOAD PUSH1 0x0 PUSH1 0x1 SLOAD PUSH2 0x8FF DUP2 PUSH2 0xEC3 JUMP JUMPDEST DUP1 DUP5 MSTORE SWAP1 PUSH1 0x1 DUP2 AND SWAP1 DUP2 ISZERO PUSH2 0x2C7 JUMPI POP PUSH1 0x1 EQ PUSH2 0x926 JUMPI PUSH2 0x264 DUP4 PUSH2 0x250 DUP2 DUP6 SUB DUP3 PUSH2 0xEFD JUMP JUMPDEST PUSH1 0x1 PUSH1 0x0 SWAP1 DUP2 MSTORE PUSH32 0xB10E2D527612073B26EECDFD717E6A320CF44B4AFAC2B0732D9FCBE2B7FA0CF6 SWAP4 SWAP3 POP SWAP1 JUMPDEST DUP1 DUP3 LT PUSH2 0x96B JUMPI POP SWAP1 SWAP2 POP DUP2 ADD PUSH1 0x20 ADD PUSH2 0x250 PUSH2 0x240 JUMP JUMPDEST SWAP2 SWAP3 PUSH1 0x1 DUP2 PUSH1 0x20 SWAP3 SLOAD DUP4 DUP6 DUP9 ADD ADD MSTORE ADD SWAP2 ADD SWAP1 SWAP3 SWAP2 PUSH2 0x953 JUMP JUMPDEST CALLVALUE PUSH2 0x1A6 JUMPI PUSH1 0x20 CALLDATASIZE PUSH1 0x3 NOT ADD SLT PUSH2 0x1A6 JUMPI PUSH1 0x4 CALLDATALOAD PUSH1 0xC SLOAD DUP2 LT ISZERO PUSH2 0x1A6 JUMPI PUSH1 0x3 SWAP1 PUSH1 0xC PUSH1 0x0 MSTORE MUL DUP1 PUSH32 0xDF6966C971051C3D54EC59162606531493A51404A002842F56009D7E5CF4A8C7 ADD SLOAD PUSH2 0x264 PUSH2 0xA29 PUSH32 0xDF6966C971051C3D54EC59162606531493A51404A002842F56009D7E5CF4A8C9 PUSH2 0xA22 PUSH32 0xDF6966C971051C3D54EC59162606531493A51404A002842F56009D7E5CF4A8C8 DUP7 ADD PUSH2 0xFD8 JUMP JUMPDEST SWAP5 ADD PUSH2 0xFD8 JUMP JUMPDEST PUSH2 0xA45 PUSH1 0x40 MLOAD SWAP5 DUP6 SWAP5 DUP6 MSTORE PUSH1 0x60 PUSH1 0x20 DUP7 ADD MSTORE PUSH1 0x60 DUP6 ADD SWAP1 PUSH2 0xE38 JUMP JUMPDEST SWAP1 DUP4 DUP3 SUB PUSH1 0x40 DUP6 ADD MSTORE PUSH2 0xE38 JUMP JUMPDEST CALLVALUE PUSH2 0x1A6 JUMPI PUSH1 0x0 CALLDATASIZE PUSH1 0x3 NOT ADD SLT PUSH2 0x1A6 JUMPI PUSH1 0x7 SLOAD PUSH1 0x40 MLOAD PUSH1 0x1 PUSH1 0x1 PUSH1 0xA0 SHL SUB SWAP1 SWAP2 AND DUP2 MSTORE PUSH1 0x20 SWAP1 RETURN JUMPDEST CALLVALUE PUSH2 0x1A6 JUMPI PUSH1 0x0 CALLDATASIZE PUSH1 0x3 NOT ADD SLT PUSH2 0x1A6 JUMPI PUSH2 0xA95 PUSH2 0x1628 JUMP JUMPDEST PUSH1 0x7 DUP1 SLOAD PUSH1 0x1 PUSH1 0x1 PUSH1 0xA0 SHL SUB NOT DUP2 AND SWAP1 SWAP2 SSTORE PUSH1 0x0 SWAP1 PUSH1 0x1 PUSH1 0x1 PUSH1 0xA0 SHL SUB AND PUSH32 0x8BE0079C531659141344CD1FD0A4F28419497F9722A3DAAFE3B4186F6B6457E0 DUP3 DUP1 LOG3 STOP JUMPDEST CALLVALUE PUSH2 0x1A6 JUMPI PUSH1 0x20 CALLDATASIZE PUSH1 0x3 NOT ADD SLT PUSH2 0x1A6 JUMPI PUSH1 0x1 PUSH1 0x1 PUSH1 0xA0 SHL SUB PUSH2 0xAFA PUSH2 0xE5D JUMP JUMPDEST AND DUP1 ISZERO PUSH2 0xB19 JUMPI PUSH1 0x0 MSTORE PUSH1 0x3 PUSH1 0x20 MSTORE PUSH1 0x20 PUSH1 0x40 PUSH1 0x0 KECCAK256 SLOAD PUSH1 0x40 MLOAD SWAP1 DUP2 MSTORE RETURN JUMPDEST PUSH4 0x22718AD9 PUSH1 0xE2 SHL PUSH1 0x0 MSTORE PUSH1 0x0 PUSH1 0x4 MSTORE PUSH1 0x24 PUSH1 0x0 REVERT JUMPDEST CALLVALUE PUSH2 0x1A6 JUMPI PUSH1 0x20 CALLDATASIZE PUSH1 0x3 NOT ADD SLT PUSH2 0x1A6 JUMPI PUSH1 0x20 PUSH2 0xB4D PUSH1 0x4 CALLDATALOAD PUSH2 0x15F1 JUMP JUMPDEST PUSH1 0x40 MLOAD PUSH1 0x1 PUSH1 0x1 PUSH1 0xA0 SHL SUB SWAP1 SWAP2 AND DUP2 MSTORE RETURN JUMPDEST CALLVALUE PUSH2 0x1A6 JUMPI PUSH2 0x6C3 PUSH2 0xB70 CALLDATASIZE PUSH2 0xE89 JUMP JUMPDEST SWAP1 PUSH1 0x40 MLOAD SWAP3 PUSH2 0xB80 PUSH1 0x20 DUP6 PUSH2 0xEFD JUMP JUMPDEST PUSH1 0x0 DUP5 MSTORE PUSH2 0x1263 JUMP JUMPDEST CALLVALUE PUSH2 0x1A6 JUMPI PUSH2 0x6C3 PUSH2 0xB9A CALLDATASIZE PUSH2 0xE89 JUMP JUMPDEST SWAP2 PUSH2 0x10CD JUMP JUMPDEST CALLVALUE PUSH2 0x1A6 JUMPI PUSH1 0x0 CALLDATASIZE PUSH1 0x3 NOT ADD SLT PUSH2 0x1A6 JUMPI PUSH1 0x20 PUSH1 0x9 SLOAD PUSH1 0x40 MLOAD SWAP1 DUP2 MSTORE RETURN JUMPDEST CALLVALUE PUSH2 0x1A6 JUMPI PUSH1 0x40 CALLDATASIZE PUSH1 0x3 NOT ADD SLT PUSH2 0x1A6 JUMPI PUSH2 0xBD7 PUSH2 0xE5D JUMP JUMPDEST PUSH1 0x24 CALLDATALOAD PUSH2 0xBE3 DUP2 PUSH2 0x15F1 JUMP JUMPDEST CALLER ISZERO ISZERO DUP1 PUSH2 0xC9A JUMPI JUMPDEST DUP1 PUSH2 0xC6C JUMPI JUMPDEST PUSH2 0xC57 JUMPI DUP2 SWAP1 PUSH1 0x1 PUSH1 0x1 PUSH1 0xA0 SHL SUB DUP5 DUP2 AND SWAP2 AND PUSH32 0x8C5BE1E5EBEC7D5BD14F71427D1E84F3DD0314C0F7B2291E5B200AC8C7C3B925 PUSH1 0x0 DUP1 LOG4 PUSH1 0x0 SWAP1 DUP2 MSTORE PUSH1 0x4 PUSH1 0x20 MSTORE PUSH1 0x40 SWAP1 KECCAK256 DUP1 SLOAD PUSH1 0x1 PUSH1 0x1 PUSH1 0xA0 SHL SUB NOT AND PUSH1 0x1 PUSH1 0x1 PUSH1 0xA0 SHL SUB SWAP1 SWAP3 AND SWAP2 SWAP1 SWAP2 OR SWAP1 SSTORE STOP JUMPDEST PUSH4 0xA9FBF51F PUSH1 0xE0 SHL PUSH1 0x0 MSTORE CALLER PUSH1 0x4 MSTORE PUSH1 0x24 PUSH1 0x0 REVERT JUMPDEST POP PUSH1 0x1 PUSH1 0x1 PUSH1 0xA0 SHL SUB DUP2 AND PUSH1 0x0 SWAP1 DUP2 MSTORE PUSH1 0x5 PUSH1 0x20 SWAP1 DUP2 MSTORE PUSH1 0x40 DUP1 DUP4 KECCAK256 CALLER DUP5 MSTORE SWAP1 SWAP2 MSTORE SWAP1 KECCAK256 SLOAD PUSH1 0xFF AND ISZERO PUSH2 0xBF2 JUMP JUMPDEST POP PUSH1 0x1 PUSH1 0x1 PUSH1 0xA0 SHL SUB DUP2 AND CALLER EQ ISZERO PUSH2 0xBEC JUMP JUMPDEST CALLVALUE PUSH2 0x1A6 JUMPI PUSH1 0x20 CALLDATASIZE PUSH1 0x3 NOT ADD SLT PUSH2 0x1A6 JUMPI PUSH1 0x4 CALLDATALOAD PUSH2 0xCCA DUP2 PUSH2 0x15F1 JUMP JUMPDEST POP PUSH1 0x0 MSTORE PUSH1 0x4 PUSH1 0x20 MSTORE PUSH1 0x20 PUSH1 0x1 DUP1 PUSH1 0xA0 SHL SUB PUSH1 0x40 PUSH1 0x0 KECCAK256 SLOAD AND PUSH1 0x40 MLOAD SWAP1 DUP2 MSTORE RETURN JUMPDEST CALLVALUE PUSH2 0x1A6 JUMPI PUSH1 0x0 CALLDATASIZE PUSH1 0x3 NOT ADD SLT PUSH2 0x1A6 JUMPI PUSH1 0x40 MLOAD PUSH1 0x0 DUP1 SLOAD PUSH2 0xD0C DUP2 PUSH2 0xEC3 JUMP JUMPDEST DUP1 DUP5 MSTORE SWAP1 PUSH1 0x1 DUP2 AND SWAP1 DUP2 ISZERO PUSH2 0x2C7 JUMPI POP PUSH1 0x1 EQ PUSH2 0xD33 JUMPI PUSH2 0x264 DUP4 PUSH2 0x250 DUP2 DUP6 SUB DUP3 PUSH2 0xEFD JUMP JUMPDEST PUSH1 0x0 DUP1 DUP1 MSTORE PUSH32 0x290DECD9548B62A8D60345A988386FC84BA6BC95484008F6362F93160EF3E563 SWAP4 SWAP3 POP SWAP1 JUMPDEST DUP1 DUP3 LT PUSH2 0xD76 JUMPI POP SWAP1 SWAP2 POP DUP2 ADD PUSH1 0x20 ADD PUSH2 0x250 PUSH2 0x240 JUMP JUMPDEST SWAP2 SWAP3 PUSH1 0x1 DUP2 PUSH1 0x20 SWAP3 SLOAD DUP4 DUP6 DUP9 ADD ADD MSTORE ADD SWAP2 ADD SWAP1 SWAP3 SWAP2 PUSH2 0xD5E JUMP JUMPDEST CALLVALUE PUSH2 0x1A6 JUMPI PUSH1 0x20 CALLDATASIZE PUSH1 0x3 NOT ADD SLT PUSH2 0x1A6 JUMPI PUSH1 0x4 CALLDATALOAD SWAP1 PUSH4 0xFFFFFFFF PUSH1 0xE0 SHL DUP3 AND DUP1 SWAP3 SUB PUSH2 0x1A6 JUMPI PUSH1 0x20 SWAP2 PUSH4 0x24832483 PUSH1 0xE1 SHL DUP2 EQ SWAP1 DUP2 ISZERO PUSH2 0xDD2 JUMPI JUMPDEST POP ISZERO ISZERO DUP2 MSTORE RETURN JUMPDEST PUSH4 0x80AC58CD PUSH1 0xE0 SHL DUP2 EQ SWAP2 POP DUP2 ISZERO PUSH2 0xE04 JUMPI JUMPDEST DUP2 ISZERO PUSH2 0xDF3 JUMPI JUMPDEST POP DUP4 PUSH2 0xDCB JUMP JUMPDEST PUSH4 0x1FFC9A7 PUSH1 0xE0 SHL EQ SWAP1 POP DUP4 PUSH2 0xDEC JUMP JUMPDEST PUSH4 0x5B5E139F PUSH1 0xE0 SHL DUP2 EQ SWAP2 POP PUSH2 0xDE5 JUMP JUMPDEST PUSH1 0x0 JUMPDEST DUP4 DUP2 LT PUSH2 0xE28 JUMPI POP POP PUSH1 0x0 SWAP2 ADD MSTORE JUMP JUMPDEST DUP2 DUP2 ADD MLOAD DUP4 DUP3 ADD MSTORE PUSH1 0x20 ADD PUSH2 0xE18 JUMP JUMPDEST SWAP1 PUSH1 0x20 SWAP2 PUSH2 0xE51 DUP2 MLOAD DUP1 SWAP3 DUP2 DUP6 MSTORE DUP6 DUP1 DUP7 ADD SWAP2 ADD PUSH2 0xE15 JUMP JUMPDEST PUSH1 0x1F ADD PUSH1 0x1F NOT AND ADD ADD SWAP1 JUMP JUMPDEST PUSH1 0x4 CALLDATALOAD SWAP1 PUSH1 0x1 PUSH1 0x1 PUSH1 0xA0 SHL SUB DUP3 AND DUP3 SUB PUSH2 0x1A6 JUMPI JUMP JUMPDEST PUSH1 0x24 CALLDATALOAD SWAP1 PUSH1 0x1 PUSH1 0x1 PUSH1 0xA0 SHL SUB DUP3 AND DUP3 SUB PUSH2 0x1A6 JUMPI JUMP JUMPDEST PUSH1 0x60 SWAP1 PUSH1 0x3 NOT ADD SLT PUSH2 0x1A6 JUMPI PUSH1 0x4 CALLDATALOAD PUSH1 0x1 PUSH1 0x1 PUSH1 0xA0 SHL SUB DUP2 AND DUP2 SUB PUSH2 0x1A6 JUMPI SWAP1 PUSH1 0x24 CALLDATALOAD PUSH1 0x1 PUSH1 0x1 PUSH1 0xA0 SHL SUB DUP2 AND DUP2 SUB PUSH2 0x1A6 JUMPI SWAP1 PUSH1 0x44 CALLDATALOAD SWAP1 JUMP JUMPDEST SWAP1 PUSH1 0x1 DUP3 DUP2 SHR SWAP3 AND DUP1 ISZERO PUSH2 0xEF3 JUMPI JUMPDEST PUSH1 0x20 DUP4 LT EQ PUSH2 0xEDD JUMPI JUMP JUMPDEST PUSH4 0x4E487B71 PUSH1 0xE0 SHL PUSH1 0x0 MSTORE PUSH1 0x22 PUSH1 0x4 MSTORE PUSH1 0x24 PUSH1 0x0 REVERT JUMPDEST SWAP2 PUSH1 0x7F AND SWAP2 PUSH2 0xED2 JUMP JUMPDEST SWAP1 PUSH1 0x1F DUP1 NOT SWAP2 ADD AND DUP2 ADD SWAP1 DUP2 LT PUSH8 0xFFFFFFFFFFFFFFFF DUP3 GT OR PUSH2 0x5B7 JUMPI PUSH1 0x40 MSTORE JUMP JUMPDEST PUSH1 0x40 MLOAD SWAP1 PUSH1 0x0 DUP3 PUSH1 0xB SLOAD SWAP2 PUSH2 0xF33 DUP4 PUSH2 0xEC3 JUMP JUMPDEST DUP1 DUP4 MSTORE SWAP3 PUSH1 0x1 DUP2 AND SWAP1 DUP2 ISZERO PUSH2 0xFB9 JUMPI POP PUSH1 0x1 EQ PUSH2 0xF59 JUMPI JUMPDEST PUSH2 0xF57 SWAP3 POP SUB DUP4 PUSH2 0xEFD JUMP JUMPDEST JUMP JUMPDEST POP PUSH1 0xB PUSH1 0x0 SWAP1 DUP2 MSTORE SWAP1 SWAP2 PUSH32 0x175B7A638427703F0DBE7BB9BBF987A2551717B34E79F33B5B1008D1FA01DB9 JUMPDEST DUP2 DUP4 LT PUSH2 0xF9D JUMPI POP POP SWAP1 PUSH1 0x20 PUSH2 0xF57 SWAP3 DUP3 ADD ADD PUSH2 0xF4B JUMP JUMPDEST PUSH1 0x20 SWAP2 SWAP4 POP DUP1 PUSH1 0x1 SWAP2 SLOAD DUP4 DUP6 DUP10 ADD ADD MSTORE ADD SWAP2 ADD SWAP1 SWAP2 DUP5 SWAP3 PUSH2 0xF85 JUMP JUMPDEST PUSH1 0x20 SWAP3 POP PUSH2 0xF57 SWAP5 SWAP2 POP PUSH1 0xFF NOT AND DUP3 DUP5 ADD MSTORE ISZERO ISZERO PUSH1 0x5 SHL DUP3 ADD ADD PUSH2 0xF4B JUMP JUMPDEST SWAP1 PUSH1 0x40 MLOAD SWAP2 DUP3 PUSH1 0x0 DUP3 SLOAD SWAP3 PUSH2 0xFEC DUP5 PUSH2 0xEC3 JUMP JUMPDEST DUP1 DUP5 MSTORE SWAP4 PUSH1 0x1 DUP2 AND SWAP1 DUP2 ISZERO PUSH2 0x1058 JUMPI POP PUSH1 0x1 EQ PUSH2 0x1011 JUMPI JUMPDEST POP PUSH2 0xF57 SWAP3 POP SUB DUP4 PUSH2 0xEFD JUMP JUMPDEST SWAP1 POP PUSH1 0x0 SWAP3 SWAP2 SWAP3 MSTORE PUSH1 0x20 PUSH1 0x0 KECCAK256 SWAP1 PUSH1 0x0 SWAP2 JUMPDEST DUP2 DUP4 LT PUSH2 0x103C JUMPI POP POP SWAP1 PUSH1 0x20 PUSH2 0xF57 SWAP3 DUP3 ADD ADD CODESIZE PUSH2 0x1004 JUMP JUMPDEST PUSH1 0x20 SWAP2 SWAP4 POP DUP1 PUSH1 0x1 SWAP2 SLOAD DUP4 DUP6 DUP10 ADD ADD MSTORE ADD SWAP2 ADD SWAP1 SWAP2 DUP5 SWAP3 PUSH2 0x1023 JUMP JUMPDEST SWAP1 POP PUSH1 0x20 SWAP3 POP PUSH2 0xF57 SWAP5 SWAP2 POP PUSH1 0xFF NOT AND DUP3 DUP5 ADD MSTORE ISZERO ISZERO PUSH1 0x5 SHL DUP3 ADD ADD CODESIZE PUSH2 0x1004 JUMP JUMPDEST PUSH8 0xFFFFFFFFFFFFFFFF DUP2 GT PUSH2 0x5B7 JUMPI PUSH1 0x1F ADD PUSH1 0x1F NOT AND PUSH1 0x20 ADD SWAP1 JUMP JUMPDEST SWAP3 SWAP2 SWAP3 PUSH2 0x10A2 DUP3 PUSH2 0x107A JUMP JUMPDEST SWAP2 PUSH2 0x10B0 PUSH1 0x40 MLOAD SWAP4 DUP5 PUSH2 0xEFD JUMP JUMPDEST DUP3 SWAP5 DUP2 DUP5 MSTORE DUP2 DUP4 ADD GT PUSH2 0x1A6 JUMPI DUP3 DUP2 PUSH1 0x20 SWAP4 DUP5 PUSH1 0x0 SWAP7 ADD CALLDATACOPY ADD ADD MSTORE JUMP JUMPDEST PUSH1 0x1 PUSH1 0x1 PUSH1 0xA0 SHL SUB SWAP1 SWAP2 AND SWAP2 SWAP1 DUP3 ISZERO PUSH2 0x618 JUMPI PUSH1 0x0 DUP3 DUP2 MSTORE PUSH1 0x2 PUSH1 0x20 MSTORE PUSH1 0x40 DUP2 KECCAK256 SLOAD PUSH1 0x1 PUSH1 0x1 PUSH1 0xA0 SHL SUB AND SWAP4 DUP4 SWAP2 DUP6 SWAP1 CALLER ISZERO ISZERO DUP1 PUSH2 0x11CB JUMPI JUMPDEST POP PUSH32 0xDDF252AD1BE2C89B69C2B068FC378DAA952BA7F163C4A11628F55A4DF523B3EF SWAP1 DUP3 PUSH2 0x1196 JUMPI JUMPDEST DUP4 DUP2 MSTORE PUSH1 0x3 PUSH1 0x20 MSTORE PUSH1 0x40 DUP2 KECCAK256 PUSH1 0x1 DUP2 SLOAD ADD SWAP1 SSTORE DUP5 DUP2 MSTORE PUSH1 0x2 PUSH1 0x20 MSTORE PUSH1 0x40 DUP2 KECCAK256 DUP5 PUSH12 0xFFFFFFFFFFFFFFFFFFFFFFFF PUSH1 0xA0 SHL DUP3 SLOAD AND OR SWAP1 SSTORE DUP1 LOG4 PUSH1 0x1 PUSH1 0x1 PUSH1 0xA0 SHL SUB AND DUP1 DUP4 SUB PUSH2 0x117C JUMPI POP POP POP JUMP JUMPDEST PUSH4 0x64283D7B PUSH1 0xE0 SHL PUSH1 0x0 MSTORE PUSH1 0x4 MSTORE PUSH1 0x24 MSTORE PUSH1 0x44 MSTORE PUSH1 0x64 PUSH1 0x0 REVERT JUMPDEST PUSH1 0x0 DUP6 DUP2 MSTORE PUSH1 0x4 PUSH1 0x20 MSTORE PUSH1 0x40 SWAP1 KECCAK256 DUP1 SLOAD PUSH1 0x1 PUSH1 0x1 PUSH1 0xA0 SHL SUB NOT AND SWAP1 SSTORE DUP3 DUP2 MSTORE PUSH1 0x3 PUSH1 0x20 MSTORE PUSH1 0x40 DUP2 KECCAK256 DUP1 SLOAD PUSH1 0x0 NOT ADD SWAP1 SSTORE PUSH2 0x112F JUMP JUMPDEST SWAP2 POP SWAP2 SWAP3 POP DUP1 PUSH2 0x1214 JUMPI JUMPDEST ISZERO PUSH2 0x11E5 JUMPI SWAP1 DUP5 DUP5 SWAP3 CODESIZE PUSH2 0x1106 JUMP JUMPDEST DUP4 SWAP1 DUP6 PUSH2 0x11FE JUMPI PUSH1 0x24 SWAP2 PUSH4 0x7E273289 PUSH1 0xE0 SHL DUP3 MSTORE PUSH1 0x4 MSTORE REVERT JUMPDEST PUSH1 0x44 SWAP2 PUSH4 0x177E802F PUSH1 0xE0 SHL DUP3 MSTORE CALLER PUSH1 0x4 MSTORE PUSH1 0x24 MSTORE REVERT JUMPDEST POP CALLER DUP6 EQ DUP1 ISZERO PUSH2 0x1242 JUMPI JUMPDEST DUP1 PUSH2 0x11D6 JUMPI POP DUP4 DUP2 MSTORE PUSH1 0x4 PUSH1 0x20 MSTORE PUSH1 0x40 DUP2 KECCAK256 SLOAD PUSH1 0x1 PUSH1 0x1 PUSH1 0xA0 SHL SUB AND CALLER EQ PUSH2 0x11D6 JUMP JUMPDEST POP DUP5 DUP2 MSTORE PUSH1 0x5 PUSH1 0x20 SWAP1 DUP2 MSTORE PUSH1 0x40 DUP1 DUP4 KECCAK256 CALLER DUP5 MSTORE SWAP1 SWAP2 MSTORE DUP2 KECCAK256 SLOAD PUSH1 0xFF AND PUSH2 0x121F JUMP JUMPDEST SWAP3 SWAP2 PUSH2 0x1270 DUP2 DUP4 DUP7 PUSH2 0x10CD JUMP JUMPDEST DUP2 EXTCODESIZE PUSH2 0x127D JUMPI JUMPDEST POP POP POP POP JUMP JUMPDEST PUSH1 0x40 MLOAD PUSH4 0xA85BD01 PUSH1 0xE1 SHL DUP2 MSTORE CALLER PUSH1 0x4 DUP3 ADD MSTORE PUSH1 0x1 PUSH1 0x1 PUSH1 0xA0 SHL SUB SWAP5 DUP6 AND PUSH1 0x24 DUP3 ADD MSTORE PUSH1 0x44 DUP2 ADD SWAP2 SWAP1 SWAP2 MSTORE PUSH1 0x80 PUSH1 0x64 DUP3 ADD MSTORE SWAP3 AND SWAP2 SWAP1 PUSH1 0x20 SWAP1 DUP3 SWAP1 DUP2 SWAP1 PUSH2 0x12C8 SWAP1 PUSH1 0x84 DUP4 ADD SWAP1 PUSH2 0xE38 JUMP JUMPDEST SUB DUP2 PUSH1 0x0 DUP7 GAS CALL DUP1 SWAP2 PUSH1 0x0 SWAP2 PUSH2 0x1367 JUMPI JUMPDEST POP SWAP1 PUSH2 0x1332 JUMPI POP RETURNDATASIZE ISZERO PUSH2 0x132B JUMPI RETURNDATASIZE PUSH2 0x12F0 DUP2 PUSH2 0x107A JUMP JUMPDEST SWAP1 PUSH2 0x12FE PUSH1 0x40 MLOAD SWAP3 DUP4 PUSH2 0xEFD JUMP JUMPDEST DUP2 MSTORE RETURNDATASIZE PUSH1 0x0 PUSH1 0x20 DUP4 ADD RETURNDATACOPY JUMPDEST DUP1 MLOAD SWAP1 DUP2 PUSH2 0x1326 JUMPI DUP3 PUSH4 0x32505749 PUSH1 0xE1 SHL PUSH1 0x0 MSTORE PUSH1 0x4 MSTORE PUSH1 0x24 PUSH1 0x0 REVERT JUMPDEST PUSH1 0x20 ADD REVERT JUMPDEST PUSH1 0x60 PUSH2 0x1309 JUMP JUMPDEST PUSH1 0x1 PUSH1 0x1 PUSH1 0xE0 SHL SUB NOT AND PUSH4 0x757A42FF PUSH1 0xE1 SHL ADD PUSH2 0x1353 JUMPI POP CODESIZE DUP1 DUP1 DUP1 PUSH2 0x1277 JUMP JUMPDEST PUSH4 0x32505749 PUSH1 0xE1 SHL PUSH1 0x0 MSTORE PUSH1 0x4 MSTORE PUSH1 0x24 PUSH1 0x0 REVERT JUMPDEST PUSH1 0x20 DUP2 RETURNDATASIZE PUSH1 0x20 GT PUSH2 0x13A9 JUMPI JUMPDEST DUP2 PUSH2 0x1380 PUSH1 0x20 SWAP4 DUP4 PUSH2 0xEFD JUMP JUMPDEST DUP2 ADD SUB SLT PUSH2 0x13A5 JUMPI MLOAD SWAP1 PUSH1 0x1 PUSH1 0x1 PUSH1 0xE0 SHL SUB NOT DUP3 AND DUP3 SUB PUSH2 0x13A2 JUMPI POP CODESIZE PUSH2 0x12D9 JUMP JUMPDEST DUP1 REVERT JUMPDEST POP DUP1 REVERT JUMPDEST RETURNDATASIZE SWAP2 POP PUSH2 0x1373 JUMP JUMPDEST PUSH2 0xF57 SWAP1 SWAP3 SWAP2 SWAP3 PUSH1 0x20 PUSH1 0x40 MLOAD SWAP5 DUP3 PUSH2 0x13D2 DUP8 SWAP5 MLOAD DUP1 SWAP3 DUP6 DUP1 DUP9 ADD SWAP2 ADD PUSH2 0xE15 JUMP JUMPDEST DUP4 ADD PUSH2 0x13E6 DUP3 MLOAD DUP1 SWAP4 DUP6 DUP1 DUP6 ADD SWAP2 ADD PUSH2 0xE15 JUMP JUMPDEST ADD ADD SUB PUSH1 0x1F NOT DUP2 ADD DUP5 MSTORE DUP4 PUSH2 0xEFD JUMP JUMPDEST PUSH2 0x13FF DUP2 PUSH2 0x15F1 JUMP JUMPDEST POP DUP1 PUSH1 0x0 MSTORE PUSH1 0x6 PUSH1 0x20 MSTORE PUSH2 0x1416 PUSH1 0x40 PUSH1 0x0 KECCAK256 PUSH2 0xFD8 JUMP JUMPDEST PUSH2 0x141E PUSH2 0x1651 JUMP JUMPDEST DUP1 MLOAD ISZERO PUSH2 0x15EB JUMPI DUP2 MLOAD PUSH2 0x15E1 JUMPI POP POP PUSH2 0x1436 DUP2 PUSH2 0x15F1 JUMP JUMPDEST POP PUSH2 0x143F PUSH2 0x1651 JUMP JUMPDEST DUP1 MLOAD SWAP1 SWAP2 SWAP1 PUSH1 0x0 SWAP1 ISZERO PUSH2 0x15CA JUMPI POP DUP1 DUP2 PUSH1 0x0 SWAP3 PUSH19 0x184F03E93FF9F4DAA797ED6E38ED64BF6A1F01 PUSH1 0x40 SHL DUP2 LT ISZERO PUSH2 0x15A4 JUMPI JUMPDEST POP DUP1 PUSH14 0x4EE2D6D415B85ACEF8100000000 PUSH1 0xA SWAP3 LT ISZERO PUSH2 0x1589 JUMPI JUMPDEST PUSH7 0x2386F26FC10000 DUP2 LT ISZERO PUSH2 0x1575 JUMPI JUMPDEST PUSH4 0x5F5E100 DUP2 LT ISZERO PUSH2 0x1564 JUMPI JUMPDEST PUSH2 0x2710 DUP2 LT ISZERO PUSH2 0x1555 JUMPI JUMPDEST PUSH1 0x64 DUP2 LT ISZERO PUSH2 0x1547 JUMPI JUMPDEST LT ISZERO PUSH2 0x153C JUMPI JUMPDEST PUSH1 0xA PUSH1 0x21 PUSH1 0x1 DUP5 ADD SWAP4 PUSH2 0x14D7 DUP6 PUSH2 0x107A JUMP JUMPDEST SWAP5 PUSH2 0x14E5 PUSH1 0x40 MLOAD SWAP7 DUP8 PUSH2 0xEFD JUMP JUMPDEST DUP1 DUP7 MSTORE PUSH2 0x14F4 PUSH1 0x1F NOT SWAP2 PUSH2 0x107A JUMP JUMPDEST ADD CALLDATASIZE PUSH1 0x20 DUP8 ADD CALLDATACOPY DUP5 ADD ADD JUMPDEST PUSH1 0x0 NOT ADD SWAP2 PUSH16 0x181899199A1A9B1B9C1CB0B131B232B3 PUSH1 0x81 SHL DUP3 DUP3 MOD BYTE DUP4 MSTORE8 DIV SWAP1 DUP2 ISZERO PUSH2 0x152E JUMPI PUSH1 0xA SWAP1 PUSH2 0x14FF JUMP JUMPDEST POP POP PUSH2 0x1539 SWAP2 PUSH2 0x13B1 JUMP JUMPDEST SWAP1 JUMP JUMPDEST PUSH1 0x1 SWAP1 SWAP2 ADD SWAP1 PUSH2 0x14C5 JUMP JUMPDEST PUSH1 0x64 PUSH1 0x2 SWAP2 DIV SWAP4 ADD SWAP3 PUSH2 0x14BE JUMP JUMPDEST PUSH2 0x2710 PUSH1 0x4 SWAP2 DIV SWAP4 ADD SWAP3 PUSH2 0x14B4 JUMP JUMPDEST PUSH4 0x5F5E100 PUSH1 0x8 SWAP2 DIV SWAP4 ADD SWAP3 PUSH2 0x14A9 JUMP JUMPDEST PUSH7 0x2386F26FC10000 PUSH1 0x10 SWAP2 DIV SWAP4 ADD SWAP3 PUSH2 0x149C JUMP JUMPDEST PUSH14 0x4EE2D6D415B85ACEF8100000000 PUSH1 0x20 SWAP2 DIV SWAP4 ADD SWAP3 PUSH2 0x148C JUMP JUMPDEST PUSH1 0x40 SWAP4 POP PUSH19 0x184F03E93FF9F4DAA797ED6E38ED64BF6A1F01 PUSH1 0x40 SHL SWAP1 DIV SWAP1 POP PUSH1 0xA PUSH2 0x1471 JUMP JUMPDEST SWAP2 POP POP PUSH1 0x40 MLOAD SWAP1 PUSH2 0x15DC PUSH1 0x20 DUP4 PUSH2 0xEFD JUMP JUMPDEST DUP2 MSTORE SWAP1 JUMP JUMPDEST PUSH2 0x1539 SWAP3 POP PUSH2 0x13B1 JUMP JUMPDEST POP SWAP1 POP SWAP1 JUMP JUMPDEST PUSH1 0x0 DUP2 DUP2 MSTORE PUSH1 0x2 PUSH1 0x20 MSTORE PUSH1 0x40 SWAP1 KECCAK256 SLOAD PUSH1 0x1 PUSH1 0x1 PUSH1 0xA0 SHL SUB AND SWAP1 DUP2 ISZERO PUSH2 0x1614 JUMPI POP SWAP1 JUMP JUMPDEST PUSH4 0x7E273289 PUSH1 0xE0 SHL PUSH1 0x0 MSTORE PUSH1 0x4 MSTORE PUSH1 0x24 PUSH1 0x0 REVERT JUMPDEST PUSH1 0x7 SLOAD PUSH1 0x1 PUSH1 0x1 PUSH1 0xA0 SHL SUB AND CALLER SUB PUSH2 0x163C JUMPI JUMP JUMPDEST PUSH4 0x118CDAA7 PUSH1 0xE0 SHL PUSH1 0x0 MSTORE CALLER PUSH1 0x4 MSTORE PUSH1 0x24 PUSH1 0x0 REVERT JUMPDEST PUSH1 0x40 MLOAD SWAP1 PUSH2 0x1660 PUSH1 0x40 DUP4 PUSH2 0xEFD JUMP JUMPDEST PUSH1 0x16 DUP3 MSTORE PUSH22 0x687474703A2F2F6C6F63616C686F73743A333030312F PUSH1 0x50 SHL PUSH1 0x20 DUP4 ADD MSTORE JUMP INVALID LOG2 PUSH5 0x6970667358 0x22 SLT KECCAK256 ORIGIN 0xD2 MCOPY SLOAD PUSH17 0x608C3DE272D676C44A0A4950D664FA290E 0xAC PUSH12 0xC792FEF84DA7FE1164736F6C PUSH4 0x4300081B STOP CALLER LOG2 PUSH5 0x6970667358 0x22 SLT KECCAK256 DUP6 0xC7 SWAP8 PUSH0 0xD9 PUSH16 0xEACC495A794A45BC8E9531D053FF5526 0xD7 0x28 0xF7 0x4B SUB 0xEA CALLDATASIZE SWAP13 PUSH32 0xA064736F6C634300081B00330000000000000000000000000000000000000000 "},"methodIdentifiers":{"createCollectionWithCards(string,string,uint256,(uint256,string,string)[])":"7234e920","getCardsInCollection(string)":"1738f711","getCollectionById(string)":"7b287a47","getCollections()":"46e63586","getUserCardsDetailed(address)":"ed2b3e32","mint(string,address,(uint256,string,string))":"e03c83a6","owner()":"8da5cb5b","renounceOwnership()":"715018a6","transferOwnership(address)":"f2fde38b"}}}}}