{"contracts/src/Collection.sol":{"Collection":{"abi":[{"inputs":[{"internalType":"string","name":"_id","type":"string"},{"internalType":"address","name":"owner","type":"address"},{"internalType":"string","name":"_name","type":"string"},{"internalType":"string","name":"_img","type":"string"},{"internalType":"uint256","name":"_cardCount","type":"uint256"},{"components":[{"internalType":"uint256","name":"id","type":"uint256"},{"internalType":"string","name":"name","type":"string"},{"internalType":"string","name":"uri","type":"string"}],"internalType":"struct Collection.Card[]","name":"_cards","type":"tuple[]"}],"stateMutability":"nonpayable","type":"constructor"},{"inputs":[{"internalType":"address","name":"sender","type":"address"},{"internalType":"uint256","name":"tokenId","type":"uint256"},{"internalType":"address","name":"owner","type":"address"}],"name":"ERC721IncorrectOwner","type":"error"},{"inputs":[{"internalType":"address","name":"operator","type":"address"},{"internalType":"uint256","name":"tokenId","type":"uint256"}],"name":"ERC721InsufficientApproval","type":"error"},{"inputs":[{"internalType":"address","name":"approver","type":"address"}],"name":"ERC721InvalidApprover","type":"error"},{"inputs":[{"internalType":"address","name":"operator","type":"address"}],"name":"ERC721InvalidOperator","type":"error"},{"inputs":[{"internalType":"address","name":"owner","type":"address"}],"name":"ERC721InvalidOwner","type":"error"},{"inputs":[{"internalType":"address","name":"receiver","type":"address"}],"name":"ERC721InvalidReceiver","type":"error"},{"inputs":[{"internalType":"address","name":"sender","type":"address"}],"name":"ERC721InvalidSender","type":"error"},{"inputs":[{"internalType":"uint256","name":"tokenId","type":"uint256"}],"name":"ERC721NonexistentToken","type":"error"},{"inputs":[{"internalType":"address","name":"owner","type":"address"}],"name":"OwnableInvalidOwner","type":"error"},{"inputs":[{"internalType":"address","name":"account","type":"address"}],"name":"OwnableUnauthorizedAccount","type":"error"},{"anonymous":false,"inputs":[{"indexed":true,"internalType":"address","name":"owner","type":"address"},{"indexed":true,"internalType":"address","name":"approved","type":"address"},{"indexed":true,"internalType":"uint256","name":"tokenId","type":"uint256"}],"name":"Approval","type":"event"},{"anonymous":false,"inputs":[{"indexed":true,"internalType":"address","name":"owner","type":"address"},{"indexed":true,"internalType":"address","name":"operator","type":"address"},{"indexed":false,"internalType":"bool","name":"approved","type":"bool"}],"name":"ApprovalForAll","type":"event"},{"anonymous":false,"inputs":[{"indexed":false,"internalType":"uint256","name":"_fromTokenId","type":"uint256"},{"indexed":false,"internalType":"uint256","name":"_toTokenId","type":"uint256"}],"name":"BatchMetadataUpdate","type":"event"},{"anonymous":false,"inputs":[{"indexed":false,"internalType":"uint256","name":"_tokenId","type":"uint256"}],"name":"MetadataUpdate","type":"event"},{"anonymous":false,"inputs":[{"indexed":true,"internalType":"address","name":"previousOwner","type":"address"},{"indexed":true,"internalType":"address","name":"newOwner","type":"address"}],"name":"OwnershipTransferred","type":"event"},{"anonymous":false,"inputs":[{"indexed":true,"internalType":"address","name":"from","type":"address"},{"indexed":true,"internalType":"address","name":"to","type":"address"},{"indexed":true,"internalType":"uint256","name":"tokenId","type":"uint256"}],"name":"Transfer","type":"event"},{"inputs":[{"internalType":"address","name":"to","type":"address"},{"internalType":"uint256","name":"tokenId","type":"uint256"}],"name":"approve","outputs":[],"stateMutability":"nonpayable","type":"function"},{"inputs":[{"internalType":"address","name":"owner","type":"address"}],"name":"balanceOf","outputs":[{"internalType":"uint256","name":"","type":"uint256"}],"stateMutability":"view","type":"function"},{"inputs":[],"name":"cardCount","outputs":[{"internalType":"uint256","name":"","type":"uint256"}],"stateMutability":"view","type":"function"},{"inputs":[{"internalType":"uint256","name":"","type":"uint256"}],"name":"cards","outputs":[{"internalType":"uint256","name":"id","type":"uint256"},{"internalType":"string","name":"name","type":"string"},{"internalType":"string","name":"uri","type":"string"}],"stateMutability":"view","type":"function"},{"inputs":[],"name":"collectionName","outputs":[{"internalType":"string","name":"","type":"string"}],"stateMutability":"view","type":"function"},{"inputs":[{"internalType":"uint256","name":"tokenId","type":"uint256"}],"name":"getApproved","outputs":[{"internalType":"address","name":"","type":"address"}],"stateMutability":"view","type":"function"},{"inputs":[],"name":"getCards","outputs":[{"components":[{"internalType":"uint256","name":"id","type":"uint256"},{"internalType":"string","name":"name","type":"string"},{"internalType":"string","name":"uri","type":"string"}],"internalType":"struct Collection.Card[]","name":"","type":"tuple[]"}],"stateMutability":"view","type":"function"},{"inputs":[],"name":"getId","outputs":[{"internalType":"string","name":"","type":"string"}],"stateMutability":"view","type":"function"},{"inputs":[],"name":"getLogo","outputs":[{"internalType":"string","name":"","type":"string"}],"stateMutability":"view","type":"function"},{"inputs":[],"name":"id","outputs":[{"internalType":"string","name":"","type":"string"}],"stateMutability":"view","type":"function"},{"inputs":[],"name":"img","outputs":[{"internalType":"string","name":"","type":"string"}],"stateMutability":"view","type":"function"},{"inputs":[{"internalType":"address","name":"owner","type":"address"},{"internalType":"address","name":"operator","type":"address"}],"name":"isApprovedForAll","outputs":[{"internalType":"bool","name":"","type":"bool"}],"stateMutability":"view","type":"function"},{"inputs":[{"internalType":"address","name":"to","type":"address"},{"internalType":"string","name":"_tokenURI","type":"string"}],"name":"mintCard","outputs":[{"internalType":"uint256","name":"","type":"uint256"}],"stateMutability":"nonpayable","type":"function"},{"inputs":[],"name":"name","outputs":[{"internalType":"string","name":"","type":"string"}],"stateMutability":"view","type":"function"},{"inputs":[],"name":"owner","outputs":[{"internalType":"address","name":"","type":"address"}],"stateMutability":"view","type":"function"},{"inputs":[{"internalType":"uint256","name":"tokenId","type":"uint256"}],"name":"ownerOf","outputs":[{"internalType":"address","name":"","type":"address"}],"stateMutability":"view","type":"function"},{"inputs":[],"name":"renounceOwnership","outputs":[],"stateMutability":"nonpayable","type":"function"},{"inputs":[{"internalType":"address","name":"from","type":"address"},{"internalType":"address","name":"to","type":"address"},{"internalType":"uint256","name":"tokenId","type":"uint256"}],"name":"safeTransferFrom","outputs":[],"stateMutability":"nonpayable","type":"function"},{"inputs":[{"internalType":"address","name":"from","type":"address"},{"internalType":"address","name":"to","type":"address"},{"internalType":"uint256","name":"tokenId","type":"uint256"},{"internalType":"bytes","name":"data","type":"bytes"}],"name":"safeTransferFrom","outputs":[],"stateMutability":"nonpayable","type":"function"},{"inputs":[{"internalType":"address","name":"operator","type":"address"},{"internalType":"bool","name":"approved","type":"bool"}],"name":"setApprovalForAll","outputs":[],"stateMutability":"nonpayable","type":"function"},{"inputs":[{"internalType":"bytes4","name":"interfaceId","type":"bytes4"}],"name":"supportsInterface","outputs":[{"internalType":"bool","name":"","type":"bool"}],"stateMutability":"view","type":"function"},{"inputs":[],"name":"symbol","outputs":[{"internalType":"string","name":"","type":"string"}],"stateMutability":"view","type":"function"},{"inputs":[{"internalType":"uint256","name":"tokenId","type":"uint256"}],"name":"tokenURI","outputs":[{"internalType":"string","name":"","type":"string"}],"stateMutability":"view","type":"function"},{"inputs":[{"internalType":"address","name":"from","type":"address"},{"internalType":"address","name":"to","type":"address"},{"internalType":"uint256","name":"tokenId","type":"uint256"}],"name":"transferFrom","outputs":[],"stateMutability":"nonpayable","type":"function"},{"inputs":[{"internalType":"address","name":"newOwner","type":"address"}],"name":"transferOwnership","outputs":[],"stateMutability":"nonpayable","type":"function"}],"evm":{"bytecode":{"linkReferences":{},"object":"608060405234610c545761246e8038038061001981610c59565b928339810160c082820312610c545781516001600160401b038111610c545781610044918401610c7e565b602083015190926001600160a01b03821691829003610c545760408101516001600160401b038111610c54578361007c918301610c7e565b60608201516001600160401b038111610c54578461009b918401610c7e565b9460808301519260a08101519060018060401b038211610c5457019480601f87011215610c54578551956001600160401b0387116107e2578660051b6020806100e5818401610c59565b809a8152019183010191838311610c545760208101915b838310610bb257505050505060409361011485610c59565b600381526254434760e81b602082015283516001600160401b0381116107e257600054600181811c91168015610ba8575b60208210146107c257601f8111610b44575b50806020601f8211600114610ae057600091610ad5575b508160011b916000199060031b1c1916176000555b8051906001600160401b0382116107e25760015490600182811c92168015610acb575b60208310146107c25781601f849311610a5b575b50602090601f83116001146109f3576000926109e8575b50508160011b916000199060031b1c1916176001555b80156109d257600780546001600160a01b0319811683179091556001600160a01b03167f8be0079c531659141344cd1fd0a4f28419497f9722a3daafe3b4186f6b6457e0600080a38051906001600160401b0382116107e257600c5490600182811c921680156109c8575b60208310146107c25781601f849311610958575b50602090601f83116001146108f0576000926108e5575b50508160011b916000199060031b1c191617600c555b8051906001600160401b0382116107e25760085490600182811c921680156108db575b60208310146107c25781601f84931161086b575b50602090601f8311600114610803576000926107f8575b50508160011b916000199060031b1c1916176008555b83516001600160401b0381116107e257600954600181811c911680156107d8575b60208210146107c257601f811161075d575b50602094601f82116001146106f3579481929394956000926106e8575b50508160011b916000199060031b1c1916176009559190915b600a556000915b81518310156106db5760009260208160051b84010151600d54680100000000000000008110156106c7576001810180600d558110156106b357600d865281516003919091027fd7b6990105719101dabeb77144f2a3385c8033acd3af97e9423a695e81ad1eb58101918255602083015180519092917fd7b6990105719101dabeb77144f2a3385c8033acd3af97e9423a695e81ad1eb601906001600160401b03811161069f578154600181811c91168015610695575b6020821014610681579081601f899594931161062d575b50602094601f82116001146105c5576002949582918c926105ba575b50508160011b916000199060031b1c19161790555b0191015180519060018060401b0382116105a6578254600181811c9116801561059c575b602082101461058857601f8111610543575b50602090601f83116001146104df579082916001969798926104d4575b5050600019600383901b1c191690841b1790555b019190610367565b0151905038806104b8565b601f198316848952828920985b81811061052b5750916001969798918488959410610512575b505050811b0190556104cc565b015160001960f88460031b161c19169055388080610505565b92986020600181928c8601518155019a0193016104ec565b83885260208820601f840160051c8101916020851061057e575b601f0160051c01905b818110610573575061049b565b888155600101610566565b909150819061055d565b634e487b7160e01b88526022600452602488fd5b90607f1690610489565b634e487b7160e01b87526041600452602487fd5b015190503880610450565b828b52858b2090601f1983168c5b81811061061257509683929160019460029899106105f9575b505050811b019055610465565b015160001960f88460031b161c191690553880806105ec565b8289015184556020988901988c9850600190940193016105d3565b9091809394508a5260208a20601f830160051c81019160208410610677575b90601f8a96959493920160051c01905b8181106106695750610434565b8b815589955060010161065c565b909150819061064c565b634e487b7160e01b8a52602260045260248afd5b90607f169061041d565b634e487b7160e01b89526041600452602489fd5b634e487b7160e01b86526032600452602486fd5b634e487b7160e01b86526041600452602486fd5b516117849081610cea8239f35b015190503880610347565b601f198216956009600052806000209160005b8881106107455750836001959697981061072c575b505050811b01600955919091610360565b015160001960f88460031b161c1916905538808061071b565b91926020600181928685015181550194019201610706565b60096000527f6e1540171b6c0c960b71a7020d9f60077f6af931a8bbf590da0223dacf75c7af601f830160051c810191602084106107b8575b601f0160051c01905b8181106107ac575061032a565b6000815560010161079f565b9091508190610796565b634e487b7160e01b600052602260045260246000fd5b90607f1690610318565b634e487b7160e01b600052604160045260246000fd5b0151905038806102e1565b600860009081528281209350601f198516905b818110610853575090846001959493921061083a575b505050811b016008556102f7565b015160001960f88460031b161c1916905538808061082c565b92936020600181928786015181550195019301610816565b60086000529091507ff3f7a9fe364faab93b216da50a3214154f22a0a2b415b23a84c8169e8b636ee3601f840160051c810191602085106108d1575b90601f859493920160051c01905b8181106108c257506102ca565b600081558493506001016108b5565b90915081906108a7565b91607f16916102b6565b01519050388061027d565b600c60009081528281209350601f198516905b8181106109405750908460019594939210610927575b505050811b01600c55610293565b015160001960f88460031b161c19169055388080610919565b92936020600181928786015181550195019301610903565b600c6000529091507fdf6966c971051c3d54ec59162606531493a51404a002842f56009d7e5cf4a8c7601f840160051c810191602085106109be575b90601f859493920160051c01905b8181106109af5750610266565b600081558493506001016109a2565b9091508190610994565b91607f1691610252565b631e4fbdf760e01b600052600060045260246000fd5b0151905038806101d1565b600160009081528281209350601f198516905b818110610a435750908460019594939210610a2a575b505050811b016001556101e7565b015160001960f88460031b161c19169055388080610a1c565b92936020600181928786015181550195019301610a06565b60016000529091507fb10e2d527612073b26eecdfd717e6a320cf44b4afac2b0732d9fcbe2b7fa0cf6601f840160051c81019160208510610ac1575b90601f859493920160051c01905b818110610ab257506101ba565b60008155849350600101610aa5565b9091508190610a97565b91607f16916101a6565b90508501513861016e565b60008080528181209250601f198416905b818110610b2c57509083600194939210610b13575b5050811b01600055610183565b87015160001960f88460031b161c191690553880610b06565b9192602060018192868c015181550194019201610af1565b600080527f290decd9548b62a8d60345a988386fc84ba6bc95484008f6362f93160ef3e563601f830160051c81019160208410610b9e575b601f0160051c01905b818110610b925750610157565b60008155600101610b85565b9091508190610b7c565b90607f1690610145565b82516001600160401b038111610c54578201906060828703601f190112610c545760405190606082016001600160401b038111838210176107e2576040908152602084015183528301516001600160401b038111610c5457876020610c1992860101610c7e565b60208301526060830151916001600160401b038311610c5457610c4488602080969581960101610c7e565b60408201528152019201916100fc565b600080fd5b6040519190601f01601f191682016001600160401b038111838210176107e257604052565b81601f82011215610c54578051906001600160401b0382116107e257610cad601f8301601f1916602001610c59565b9282845260208383010111610c545760005b828110610cd457505060206000918301015290565b80602080928401015182828701015201610cbf56fe608080604052600436101561001357600080fd5b60003560e01c90816301ffc9a714610dc25750806306fdde0314610d1d578063081812fc14610cdf578063095ea7b314610bf05780630b6700d614610b9f5780631b6cde1014610bd257806323b872dd14610bbb578063426bfd0014610b9f57806342842e0e14610b755780635d1ca631146108365780636352211e14610b4557806370a0823114610aef578063715018a614610a925780638da5cb5b14610a695780638dc107681461099b57806395d89b41146108f3578063a22cb46514610852578063af640d0f14610836578063b0df9e53146106db578063b88d4fde14610679578063c87b56dd1461065a578063cd7e53cc14610301578063e5326ab11461021c578063e985e9c5146101c15763f2fde38b1461013257600080fd5b346101bc5760203660031901126101bc5761014b610e8f565b6101536116f1565b6001600160a01b031680156101a657600780546001600160a01b0319811683179091556001600160a01b03167f8be0079c531659141344cd1fd0a4f28419497f9722a3daafe3b4186f6b6457e0600080a3005b631e4fbdf760e01b600052600060045260246000fd5b600080fd5b346101bc5760403660031901126101bc576101da610e8f565b6101e2610ea5565b9060018060a01b0316600052600560205260406000209060018060a01b0316600052602052602060ff604060002054166040519015158152f35b346101bc5760003660031901126101bc57604051600060085461023e81610ef5565b80845290600181169081156102dd575060011461027e575b61027a8361026681850382610f2f565b604051918291602083526020830190610e6a565b0390f35b600860009081527ff3f7a9fe364faab93b216da50a3214154f22a0a2b415b23a84c8169e8b636ee3939250905b8082106102c357509091508101602001610266610256565b9192600181602092548385880101520191019092916102ab565b60ff191660208086019190915291151560051b840190910191506102669050610256565b346101bc5760403660031901126101bc5761031a610e8f565b60243567ffffffffffffffff81116101bc57366023820112156101bc5761034b90369060248160040135910161115f565b906103546116f1565b600b54600019811461064457600101600b819055906001600160a01b0316801561062e5760009082825260026020528260018060a01b0360408420541691827fddf252ad1be2c89b69c2b068fc378daa952ba7f163c4a11628f55a4df523b3ef81151595866105f9575b83815260036020526040812060018154019055848152600260205260408120846bffffffffffffffffffffffff60a01b82541617905580a4506105e35780600052600660205260406000209180519267ffffffffffffffff84116105cd576104268154610ef5565b93601f8511610585575b602094508085601f821160011461052357600091610518575b508160011b916000199060031b1c19161790555b7ff8e1a15aba9398e019f0b49df1a4fde98ee17ae345cb5f6b5e2c27f5033e8ce783604051848152a16000806040926104ed61050185519261049f8785610f2f565b6009845268026b4b73a32b2101d160bd1b8985015286519283916104db8b840196635821efa160e01b8852606060248601526084850190610e6a565b83810360231901604485015290610e6a565b88606483015203601f198101835282610f2f565b51906a636f6e736f6c652e6c6f675afa5051908152f35b905083015186610449565b60008481528181209250601f198416905b81811061056e57509083600194939210610555575b5050811b01905561045d565b85015160001960f88460031b161c191690558680610549565b91928860018192868a015181550194019201610534565b816000526020600020601f820160051c810195602083106105c3575b601f0160051c01945b8581106105b75750610430565b600081556001016105aa565b90955085906105a1565b634e487b7160e01b600052604160045260246000fd5b6339e3563760e11b600052600060045260246000fd5b600085815260046020526040902080546001600160a01b031916905582815260036020526040812080546000190190556103be565b633250574960e11b600052600060045260246000fd5b634e487b7160e01b600052601160045260246000fd5b346101bc5760203660031901126101bc5761027a6102666004356114bf565b346101bc5760803660031901126101bc57610692610e8f565b61069a610ea5565b6064359167ffffffffffffffff83116101bc57366023840112156101bc576106cf6106d993369060248160040135910161115f565b916044359161132c565b005b346101bc5760003660031901126101bc57600d5467ffffffffffffffff81116105cd576040519061071260208260051b0183610f2f565b808252602082018091600d6000527fd7b6990105719101dabeb77144f2a3385c8033acd3af97e9423a695e81ad1eb5916000905b8282106107de57848660405191829160208301906020845251809152604083019060408160051b85010192916000905b82821061078557505050500390f35b919360019193955060206107ce8192603f198a82030186528851908151815260406107bd858401516060878501526060840190610e6a565b920151906040818403910152610e6a565b9601920192018594939192610776565b6040516060810181811067ffffffffffffffff8211176105cd57600192600392602092604052875481526108138589016110a1565b83820152610823600289016110a1565b6040820152815201940191019092610746565b346101bc5760003660031901126101bc5761027a61026661100a565b346101bc5760403660031901126101bc5761086b610e8f565b602435908115158092036101bc576001600160a01b03169081156108de57336000526005602052604060002082600052602052604060002060ff1981541660ff83161790556040519081527f17307eab39ab6107e8899845ad3d59bd9653f200f220920489ca2b5937696c3160203392a3005b50630b61174360e31b60005260045260246000fd5b346101bc5760003660031901126101bc57604051600060015461091581610ef5565b80845290600181169081156102dd575060011461093c5761027a8361026681850382610f2f565b600160009081527fb10e2d527612073b26eecdfd717e6a320cf44b4afac2b0732d9fcbe2b7fa0cf6939250905b80821061098157509091508101602001610266610256565b919260018160209254838588010152019101909291610969565b346101bc5760203660031901126101bc57600435600d548110156101bc57600390600d60005202807fd7b6990105719101dabeb77144f2a3385c8033acd3af97e9423a695e81ad1eb5015461027a610a3f7fd7b6990105719101dabeb77144f2a3385c8033acd3af97e9423a695e81ad1eb7610a387fd7b6990105719101dabeb77144f2a3385c8033acd3af97e9423a695e81ad1eb686016110a1565b94016110a1565b610a5b6040519485948552606060208601526060850190610e6a565b908382036040850152610e6a565b346101bc5760003660031901126101bc576007546040516001600160a01b039091168152602090f35b346101bc5760003660031901126101bc57610aab6116f1565b600780546001600160a01b031981169091556000906001600160a01b03167f8be0079c531659141344cd1fd0a4f28419497f9722a3daafe3b4186f6b6457e08280a3005b346101bc5760203660031901126101bc576001600160a01b03610b10610e8f565b168015610b2f5760005260036020526020604060002054604051908152f35b6322718ad960e21b600052600060045260246000fd5b346101bc5760203660031901126101bc576020610b636004356116ba565b6040516001600160a01b039091168152f35b346101bc576106d9610b8636610ebb565b9060405192610b96602085610f2f565b6000845261132c565b346101bc5760003660031901126101bc5761027a610266610f51565b346101bc576106d9610bcc36610ebb565b91611196565b346101bc5760003660031901126101bc576020600a54604051908152f35b346101bc5760403660031901126101bc57610c09610e8f565b602435610c15816116ba565b33151580610ccc575b80610c9e575b610c895781906001600160a01b0384811691167f8c5be1e5ebec7d5bd14f71427d1e84f3dd0314c0f7b2291e5b200ac8c7c3b925600080a4600090815260046020526040902080546001600160a01b0319166001600160a01b03909216919091179055005b63a9fbf51f60e01b6000523360045260246000fd5b506001600160a01b038116600090815260056020908152604080832033845290915290205460ff1615610c24565b506001600160a01b038116331415610c1e565b346101bc5760203660031901126101bc57600435610cfc816116ba565b506000526004602052602060018060a01b0360406000205416604051908152f35b346101bc5760003660031901126101bc5760405160008054610d3e81610ef5565b80845290600181169081156102dd5750600114610d655761027a8361026681850382610f2f565b60008080527f290decd9548b62a8d60345a988386fc84ba6bc95484008f6362f93160ef3e563939250905b808210610da857509091508101602001610266610256565b919260018160209254838588010152019101909291610d90565b346101bc5760203660031901126101bc576004359063ffffffff60e01b82168092036101bc57602091632483248360e11b8114908115610e04575b5015158152f35b6380ac58cd60e01b811491508115610e36575b8115610e25575b5083610dfd565b6301ffc9a760e01b14905083610e1e565b635b5e139f60e01b81149150610e17565b60005b838110610e5a5750506000910152565b8181015183820152602001610e4a565b90602091610e8381518092818552858086019101610e47565b601f01601f1916010190565b600435906001600160a01b03821682036101bc57565b602435906001600160a01b03821682036101bc57565b60609060031901126101bc576004356001600160a01b03811681036101bc57906024356001600160a01b03811681036101bc579060443590565b90600182811c92168015610f25575b6020831014610f0f57565b634e487b7160e01b600052602260045260246000fd5b91607f1691610f04565b90601f8019910116810190811067ffffffffffffffff8211176105cd57604052565b6040519060008260095491610f6583610ef5565b8083529260018116908115610feb5750600114610f8b575b610f8992500383610f2f565b565b506009600090815290917f6e1540171b6c0c960b71a7020d9f60077f6af931a8bbf590da0223dacf75c7af5b818310610fcf575050906020610f8992820101610f7d565b6020919350806001915483858901015201910190918492610fb7565b60209250610f8994915060ff191682840152151560051b820101610f7d565b60405190600082600c549161101e83610ef5565b8083529260018116908115610feb575060011461104157610f8992500383610f2f565b50600c600090815290917fdf6966c971051c3d54ec59162606531493a51404a002842f56009d7e5cf4a8c75b818310611085575050906020610f8992820101610f7d565b602091935080600191548385890101520191019091849261106d565b90604051918260008254926110b584610ef5565b808452936001811690811561112157506001146110da575b50610f8992500383610f2f565b90506000929192526020600020906000915b818310611105575050906020610f8992820101386110cd565b60209193508060019154838589010152019101909184926110ec565b905060209250610f8994915060ff191682840152151560051b820101386110cd565b67ffffffffffffffff81116105cd57601f01601f191660200190565b92919261116b82611143565b916111796040519384610f2f565b8294818452818301116101bc578281602093846000960137010152565b6001600160a01b039091169190821561062e576000828152600260205260408120546001600160a01b0316938391859033151580611294575b507fddf252ad1be2c89b69c2b068fc378daa952ba7f163c4a11628f55a4df523b3ef908261125f575b83815260036020526040812060018154019055848152600260205260408120846bffffffffffffffffffffffff60a01b82541617905580a46001600160a01b031680830361124557505050565b6364283d7b60e01b60005260045260245260445260646000fd5b600085815260046020526040902080546001600160a01b031916905582815260036020526040812080546000190190556111f8565b9150919250806112dd575b156112ae5790848492386111cf565b8390856112c757602491637e27328960e01b8252600452fd5b60449163177e802f60e01b825233600452602452fd5b50338514801561130b575b8061129f5750838152600460205260408120546001600160a01b0316331461129f565b5084815260056020908152604080832033845290915281205460ff166112e8565b9291611339818386611196565b813b611346575b50505050565b604051630a85bd0160e11b81523360048201526001600160a01b0394851660248201526044810191909152608060648201529216919060209082908190611391906084830190610e6a565b03816000865af18091600091611430575b50906113fb57503d156113f4573d6113b981611143565b906113c76040519283610f2f565b81523d6000602083013e5b805190816113ef5782633250574960e11b60005260045260246000fd5b602001fd5b60606113d2565b6001600160e01b03191663757a42ff60e11b0161141c575038808080611340565b633250574960e11b60005260045260246000fd5b6020813d602011611472575b8161144960209383610f2f565b8101031261146e5751906001600160e01b03198216820361146b5750386113a2565b80fd5b5080fd5b3d915061143c565b610f89909291926020604051948261149b8794518092858088019101610e47565b83016114af82518093858085019101610e47565b010103601f198101845283610f2f565b6114c8816116ba565b508060005260066020526114df60406000206110a1565b6114e761171a565b8051156116b45781516116aa5750506114ff816116ba565b5061150861171a565b8051909190600090156116935750808160009272184f03e93ff9f4daa797ed6e38ed64bf6a1f0160401b81101561166d575b50806d04ee2d6d415b85acef8100000000600a921015611652575b662386f26fc1000081101561163e575b6305f5e10081101561162d575b61271081101561161e575b6064811015611610575b1015611605575b600a602160018401936115a085611143565b946115ae6040519687610f2f565b8086526115bd601f1991611143565b013660208701378401015b60001901916f181899199a1a9b1b9c1cb0b131b232b360811b8282061a8353049081156115f757600a906115c8565b50506116029161147a565b90565b60019091019061158e565b606460029104930192611587565b6127106004910493019261157d565b6305f5e10060089104930192611572565b662386f26fc1000060109104930192611565565b6d04ee2d6d415b85acef810000000060209104930192611555565b6040935072184f03e93ff9f4daa797ed6e38ed64bf6a1f0160401b90049050600a61153a565b915050604051906116a5602083610f2f565b815290565b611602925061147a565b50905090565b6000818152600260205260409020546001600160a01b03169081156116dd575090565b637e27328960e01b60005260045260246000fd5b6007546001600160a01b0316330361170557565b63118cdaa760e01b6000523360045260246000fd5b60405190611729604083610f2f565b6016825275687474703a2f2f6c6f63616c686f73743a333030312f60501b602083015256fea26469706673582212207e3481015daf0b16b3ee7e37552c371d1d41c204d373eb8107a33107c6e08c9a64736f6c634300081b0033","opcodes":"PUSH1 0x80 PUSH1 0x40 MSTORE CALLVALUE PUSH2 0xC54 JUMPI PUSH2 0x246E DUP1 CODESIZE SUB DUP1 PUSH2 0x19 DUP2 PUSH2 0xC59 JUMP JUMPDEST SWAP3 DUP4 CODECOPY DUP2 ADD PUSH1 0xC0 DUP3 DUP3 SUB SLT PUSH2 0xC54 JUMPI DUP2 MLOAD PUSH1 0x1 PUSH1 0x1 PUSH1 0x40 SHL SUB DUP2 GT PUSH2 0xC54 JUMPI DUP2 PUSH2 0x44 SWAP2 DUP5 ADD PUSH2 0xC7E JUMP JUMPDEST PUSH1 0x20 DUP4 ADD MLOAD SWAP1 SWAP3 PUSH1 0x1 PUSH1 0x1 PUSH1 0xA0 SHL SUB DUP3 AND SWAP2 DUP3 SWAP1 SUB PUSH2 0xC54 JUMPI PUSH1 0x40 DUP2 ADD MLOAD PUSH1 0x1 PUSH1 0x1 PUSH1 0x40 SHL SUB DUP2 GT PUSH2 0xC54 JUMPI DUP4 PUSH2 0x7C SWAP2 DUP4 ADD PUSH2 0xC7E JUMP JUMPDEST PUSH1 0x60 DUP3 ADD MLOAD PUSH1 0x1 PUSH1 0x1 PUSH1 0x40 SHL SUB DUP2 GT PUSH2 0xC54 JUMPI DUP5 PUSH2 0x9B SWAP2 DUP5 ADD PUSH2 0xC7E JUMP JUMPDEST SWAP5 PUSH1 0x80 DUP4 ADD MLOAD SWAP3 PUSH1 0xA0 DUP2 ADD MLOAD SWAP1 PUSH1 0x1 DUP1 PUSH1 0x40 SHL SUB DUP3 GT PUSH2 0xC54 JUMPI ADD SWAP5 DUP1 PUSH1 0x1F DUP8 ADD SLT ISZERO PUSH2 0xC54 JUMPI DUP6 MLOAD SWAP6 PUSH1 0x1 PUSH1 0x1 PUSH1 0x40 SHL SUB DUP8 GT PUSH2 0x7E2 JUMPI DUP7 PUSH1 0x5 SHL PUSH1 0x20 DUP1 PUSH2 0xE5 DUP2 DUP5 ADD PUSH2 0xC59 JUMP JUMPDEST DUP1 SWAP11 DUP2 MSTORE ADD SWAP2 DUP4 ADD ADD SWAP2 DUP4 DUP4 GT PUSH2 0xC54 JUMPI PUSH1 0x20 DUP2 ADD SWAP2 JUMPDEST DUP4 DUP4 LT PUSH2 0xBB2 JUMPI POP POP POP POP POP PUSH1 0x40 SWAP4 PUSH2 0x114 DUP6 PUSH2 0xC59 JUMP JUMPDEST PUSH1 0x3 DUP2 MSTORE PUSH3 0x544347 PUSH1 0xE8 SHL PUSH1 0x20 DUP3 ADD MSTORE DUP4 MLOAD PUSH1 0x1 PUSH1 0x1 PUSH1 0x40 SHL SUB DUP2 GT PUSH2 0x7E2 JUMPI PUSH1 0x0 SLOAD PUSH1 0x1 DUP2 DUP2 SHR SWAP2 AND DUP1 ISZERO PUSH2 0xBA8 JUMPI JUMPDEST PUSH1 0x20 DUP3 LT EQ PUSH2 0x7C2 JUMPI PUSH1 0x1F DUP2 GT PUSH2 0xB44 JUMPI JUMPDEST POP DUP1 PUSH1 0x20 PUSH1 0x1F DUP3 GT PUSH1 0x1 EQ PUSH2 0xAE0 JUMPI PUSH1 0x0 SWAP2 PUSH2 0xAD5 JUMPI JUMPDEST POP DUP2 PUSH1 0x1 SHL SWAP2 PUSH1 0x0 NOT SWAP1 PUSH1 0x3 SHL SHR NOT AND OR PUSH1 0x0 SSTORE JUMPDEST DUP1 MLOAD SWAP1 PUSH1 0x1 PUSH1 0x1 PUSH1 0x40 SHL SUB DUP3 GT PUSH2 0x7E2 JUMPI PUSH1 0x1 SLOAD SWAP1 PUSH1 0x1 DUP3 DUP2 SHR SWAP3 AND DUP1 ISZERO PUSH2 0xACB JUMPI JUMPDEST PUSH1 0x20 DUP4 LT EQ PUSH2 0x7C2 JUMPI DUP2 PUSH1 0x1F DUP5 SWAP4 GT PUSH2 0xA5B JUMPI JUMPDEST POP PUSH1 0x20 SWAP1 PUSH1 0x1F DUP4 GT PUSH1 0x1 EQ PUSH2 0x9F3 JUMPI PUSH1 0x0 SWAP3 PUSH2 0x9E8 JUMPI JUMPDEST POP POP DUP2 PUSH1 0x1 SHL SWAP2 PUSH1 0x0 NOT SWAP1 PUSH1 0x3 SHL SHR NOT AND OR PUSH1 0x1 SSTORE JUMPDEST DUP1 ISZERO PUSH2 0x9D2 JUMPI PUSH1 0x7 DUP1 SLOAD PUSH1 0x1 PUSH1 0x1 PUSH1 0xA0 SHL SUB NOT DUP2 AND DUP4 OR SWAP1 SWAP2 SSTORE PUSH1 0x1 PUSH1 0x1 PUSH1 0xA0 SHL SUB AND PUSH32 0x8BE0079C531659141344CD1FD0A4F28419497F9722A3DAAFE3B4186F6B6457E0 PUSH1 0x0 DUP1 LOG3 DUP1 MLOAD SWAP1 PUSH1 0x1 PUSH1 0x1 PUSH1 0x40 SHL SUB DUP3 GT PUSH2 0x7E2 JUMPI PUSH1 0xC SLOAD SWAP1 PUSH1 0x1 DUP3 DUP2 SHR SWAP3 AND DUP1 ISZERO PUSH2 0x9C8 JUMPI JUMPDEST PUSH1 0x20 DUP4 LT EQ PUSH2 0x7C2 JUMPI DUP2 PUSH1 0x1F DUP5 SWAP4 GT PUSH2 0x958 JUMPI JUMPDEST POP PUSH1 0x20 SWAP1 PUSH1 0x1F DUP4 GT PUSH1 0x1 EQ PUSH2 0x8F0 JUMPI PUSH1 0x0 SWAP3 PUSH2 0x8E5 JUMPI JUMPDEST POP POP DUP2 PUSH1 0x1 SHL SWAP2 PUSH1 0x0 NOT SWAP1 PUSH1 0x3 SHL SHR NOT AND OR PUSH1 0xC SSTORE JUMPDEST DUP1 MLOAD SWAP1 PUSH1 0x1 PUSH1 0x1 PUSH1 0x40 SHL SUB DUP3 GT PUSH2 0x7E2 JUMPI PUSH1 0x8 SLOAD SWAP1 PUSH1 0x1 DUP3 DUP2 SHR SWAP3 AND DUP1 ISZERO PUSH2 0x8DB JUMPI JUMPDEST PUSH1 0x20 DUP4 LT EQ PUSH2 0x7C2 JUMPI DUP2 PUSH1 0x1F DUP5 SWAP4 GT PUSH2 0x86B JUMPI JUMPDEST POP PUSH1 0x20 SWAP1 PUSH1 0x1F DUP4 GT PUSH1 0x1 EQ PUSH2 0x803 JUMPI PUSH1 0x0 SWAP3 PUSH2 0x7F8 JUMPI JUMPDEST POP POP DUP2 PUSH1 0x1 SHL SWAP2 PUSH1 0x0 NOT SWAP1 PUSH1 0x3 SHL SHR NOT AND OR PUSH1 0x8 SSTORE JUMPDEST DUP4 MLOAD PUSH1 0x1 PUSH1 0x1 PUSH1 0x40 SHL SUB DUP2 GT PUSH2 0x7E2 JUMPI PUSH1 0x9 SLOAD PUSH1 0x1 DUP2 DUP2 SHR SWAP2 AND DUP1 ISZERO PUSH2 0x7D8 JUMPI JUMPDEST PUSH1 0x20 DUP3 LT EQ PUSH2 0x7C2 JUMPI PUSH1 0x1F DUP2 GT PUSH2 0x75D JUMPI JUMPDEST POP PUSH1 0x20 SWAP5 PUSH1 0x1F DUP3 GT PUSH1 0x1 EQ PUSH2 0x6F3 JUMPI SWAP5 DUP2 SWAP3 SWAP4 SWAP5 SWAP6 PUSH1 0x0 SWAP3 PUSH2 0x6E8 JUMPI JUMPDEST POP POP DUP2 PUSH1 0x1 SHL SWAP2 PUSH1 0x0 NOT SWAP1 PUSH1 0x3 SHL SHR NOT AND OR PUSH1 0x9 SSTORE SWAP2 SWAP1 SWAP2 JUMPDEST PUSH1 0xA SSTORE PUSH1 0x0 SWAP2 JUMPDEST DUP2 MLOAD DUP4 LT ISZERO PUSH2 0x6DB JUMPI PUSH1 0x0 SWAP3 PUSH1 0x20 DUP2 PUSH1 0x5 SHL DUP5 ADD ADD MLOAD PUSH1 0xD SLOAD PUSH9 0x10000000000000000 DUP2 LT ISZERO PUSH2 0x6C7 JUMPI PUSH1 0x1 DUP2 ADD DUP1 PUSH1 0xD SSTORE DUP2 LT ISZERO PUSH2 0x6B3 JUMPI PUSH1 0xD DUP7 MSTORE DUP2 MLOAD PUSH1 0x3 SWAP2 SWAP1 SWAP2 MUL PUSH32 0xD7B6990105719101DABEB77144F2A3385C8033ACD3AF97E9423A695E81AD1EB5 DUP2 ADD SWAP2 DUP3 SSTORE PUSH1 0x20 DUP4 ADD MLOAD DUP1 MLOAD SWAP1 SWAP3 SWAP2 PUSH32 0xD7B6990105719101DABEB77144F2A3385C8033ACD3AF97E9423A695E81AD1EB6 ADD SWAP1 PUSH1 0x1 PUSH1 0x1 PUSH1 0x40 SHL SUB DUP2 GT PUSH2 0x69F JUMPI DUP2 SLOAD PUSH1 0x1 DUP2 DUP2 SHR SWAP2 AND DUP1 ISZERO PUSH2 0x695 JUMPI JUMPDEST PUSH1 0x20 DUP3 LT EQ PUSH2 0x681 JUMPI SWAP1 DUP2 PUSH1 0x1F DUP10 SWAP6 SWAP5 SWAP4 GT PUSH2 0x62D JUMPI JUMPDEST POP PUSH1 0x20 SWAP5 PUSH1 0x1F DUP3 GT PUSH1 0x1 EQ PUSH2 0x5C5 JUMPI PUSH1 0x2 SWAP5 SWAP6 DUP3 SWAP2 DUP13 SWAP3 PUSH2 0x5BA JUMPI JUMPDEST POP POP DUP2 PUSH1 0x1 SHL SWAP2 PUSH1 0x0 NOT SWAP1 PUSH1 0x3 SHL SHR NOT AND OR SWAP1 SSTORE JUMPDEST ADD SWAP2 ADD MLOAD DUP1 MLOAD SWAP1 PUSH1 0x1 DUP1 PUSH1 0x40 SHL SUB DUP3 GT PUSH2 0x5A6 JUMPI DUP3 SLOAD PUSH1 0x1 DUP2 DUP2 SHR SWAP2 AND DUP1 ISZERO PUSH2 0x59C JUMPI JUMPDEST PUSH1 0x20 DUP3 LT EQ PUSH2 0x588 JUMPI PUSH1 0x1F DUP2 GT PUSH2 0x543 JUMPI JUMPDEST POP PUSH1 0x20 SWAP1 PUSH1 0x1F DUP4 GT PUSH1 0x1 EQ PUSH2 0x4DF JUMPI SWAP1 DUP3 SWAP2 PUSH1 0x1 SWAP7 SWAP8 SWAP9 SWAP3 PUSH2 0x4D4 JUMPI JUMPDEST POP POP PUSH1 0x0 NOT PUSH1 0x3 DUP4 SWAP1 SHL SHR NOT AND SWAP1 DUP5 SHL OR SWAP1 SSTORE JUMPDEST ADD SWAP2 SWAP1 PUSH2 0x367 JUMP JUMPDEST ADD MLOAD SWAP1 POP CODESIZE DUP1 PUSH2 0x4B8 JUMP JUMPDEST PUSH1 0x1F NOT DUP4 AND DUP5 DUP10 MSTORE DUP3 DUP10 KECCAK256 SWAP9 JUMPDEST DUP2 DUP2 LT PUSH2 0x52B JUMPI POP SWAP2 PUSH1 0x1 SWAP7 SWAP8 SWAP9 SWAP2 DUP5 DUP9 SWAP6 SWAP5 LT PUSH2 0x512 JUMPI JUMPDEST POP POP POP DUP2 SHL ADD SWAP1 SSTORE PUSH2 0x4CC JUMP JUMPDEST ADD MLOAD PUSH1 0x0 NOT PUSH1 0xF8 DUP5 PUSH1 0x3 SHL AND SHR NOT AND SWAP1 SSTORE CODESIZE DUP1 DUP1 PUSH2 0x505 JUMP JUMPDEST SWAP3 SWAP9 PUSH1 0x20 PUSH1 0x1 DUP2 SWAP3 DUP13 DUP7 ADD MLOAD DUP2 SSTORE ADD SWAP11 ADD SWAP4 ADD PUSH2 0x4EC JUMP JUMPDEST DUP4 DUP9 MSTORE PUSH1 0x20 DUP9 KECCAK256 PUSH1 0x1F DUP5 ADD PUSH1 0x5 SHR DUP2 ADD SWAP2 PUSH1 0x20 DUP6 LT PUSH2 0x57E JUMPI JUMPDEST PUSH1 0x1F ADD PUSH1 0x5 SHR ADD SWAP1 JUMPDEST DUP2 DUP2 LT PUSH2 0x573 JUMPI POP PUSH2 0x49B JUMP JUMPDEST DUP9 DUP2 SSTORE PUSH1 0x1 ADD PUSH2 0x566 JUMP JUMPDEST SWAP1 SWAP2 POP DUP2 SWAP1 PUSH2 0x55D JUMP JUMPDEST PUSH4 0x4E487B71 PUSH1 0xE0 SHL DUP9 MSTORE PUSH1 0x22 PUSH1 0x4 MSTORE PUSH1 0x24 DUP9 REVERT JUMPDEST SWAP1 PUSH1 0x7F AND SWAP1 PUSH2 0x489 JUMP JUMPDEST PUSH4 0x4E487B71 PUSH1 0xE0 SHL DUP8 MSTORE PUSH1 0x41 PUSH1 0x4 MSTORE PUSH1 0x24 DUP8 REVERT JUMPDEST ADD MLOAD SWAP1 POP CODESIZE DUP1 PUSH2 0x450 JUMP JUMPDEST DUP3 DUP12 MSTORE DUP6 DUP12 KECCAK256 SWAP1 PUSH1 0x1F NOT DUP4 AND DUP13 JUMPDEST DUP2 DUP2 LT PUSH2 0x612 JUMPI POP SWAP7 DUP4 SWAP3 SWAP2 PUSH1 0x1 SWAP5 PUSH1 0x2 SWAP9 SWAP10 LT PUSH2 0x5F9 JUMPI JUMPDEST POP POP POP DUP2 SHL ADD SWAP1 SSTORE PUSH2 0x465 JUMP JUMPDEST ADD MLOAD PUSH1 0x0 NOT PUSH1 0xF8 DUP5 PUSH1 0x3 SHL AND SHR NOT AND SWAP1 SSTORE CODESIZE DUP1 DUP1 PUSH2 0x5EC JUMP JUMPDEST DUP3 DUP10 ADD MLOAD DUP5 SSTORE PUSH1 0x20 SWAP9 DUP10 ADD SWAP9 DUP13 SWAP9 POP PUSH1 0x1 SWAP1 SWAP5 ADD SWAP4 ADD PUSH2 0x5D3 JUMP JUMPDEST SWAP1 SWAP2 DUP1 SWAP4 SWAP5 POP DUP11 MSTORE PUSH1 0x20 DUP11 KECCAK256 PUSH1 0x1F DUP4 ADD PUSH1 0x5 SHR DUP2 ADD SWAP2 PUSH1 0x20 DUP5 LT PUSH2 0x677 JUMPI JUMPDEST SWAP1 PUSH1 0x1F DUP11 SWAP7 SWAP6 SWAP5 SWAP4 SWAP3 ADD PUSH1 0x5 SHR ADD SWAP1 JUMPDEST DUP2 DUP2 LT PUSH2 0x669 JUMPI POP PUSH2 0x434 JUMP JUMPDEST DUP12 DUP2 SSTORE DUP10 SWAP6 POP PUSH1 0x1 ADD PUSH2 0x65C JUMP JUMPDEST SWAP1 SWAP2 POP DUP2 SWAP1 PUSH2 0x64C JUMP JUMPDEST PUSH4 0x4E487B71 PUSH1 0xE0 SHL DUP11 MSTORE PUSH1 0x22 PUSH1 0x4 MSTORE PUSH1 0x24 DUP11 REVERT JUMPDEST SWAP1 PUSH1 0x7F AND SWAP1 PUSH2 0x41D JUMP JUMPDEST PUSH4 0x4E487B71 PUSH1 0xE0 SHL DUP10 MSTORE PUSH1 0x41 PUSH1 0x4 MSTORE PUSH1 0x24 DUP10 REVERT JUMPDEST PUSH4 0x4E487B71 PUSH1 0xE0 SHL DUP7 MSTORE PUSH1 0x32 PUSH1 0x4 MSTORE PUSH1 0x24 DUP7 REVERT JUMPDEST PUSH4 0x4E487B71 PUSH1 0xE0 SHL DUP7 MSTORE PUSH1 0x41 PUSH1 0x4 MSTORE PUSH1 0x24 DUP7 REVERT JUMPDEST MLOAD PUSH2 0x1784 SWAP1 DUP2 PUSH2 0xCEA DUP3 CODECOPY RETURN JUMPDEST ADD MLOAD SWAP1 POP CODESIZE DUP1 PUSH2 0x347 JUMP JUMPDEST PUSH1 0x1F NOT DUP3 AND SWAP6 PUSH1 0x9 PUSH1 0x0 MSTORE DUP1 PUSH1 0x0 KECCAK256 SWAP2 PUSH1 0x0 JUMPDEST DUP9 DUP2 LT PUSH2 0x745 JUMPI POP DUP4 PUSH1 0x1 SWAP6 SWAP7 SWAP8 SWAP9 LT PUSH2 0x72C JUMPI JUMPDEST POP POP POP DUP2 SHL ADD PUSH1 0x9 SSTORE SWAP2 SWAP1 SWAP2 PUSH2 0x360 JUMP JUMPDEST ADD MLOAD PUSH1 0x0 NOT PUSH1 0xF8 DUP5 PUSH1 0x3 SHL AND SHR NOT AND SWAP1 SSTORE CODESIZE DUP1 DUP1 PUSH2 0x71B JUMP JUMPDEST SWAP2 SWAP3 PUSH1 0x20 PUSH1 0x1 DUP2 SWAP3 DUP7 DUP6 ADD MLOAD DUP2 SSTORE ADD SWAP5 ADD SWAP3 ADD PUSH2 0x706 JUMP JUMPDEST PUSH1 0x9 PUSH1 0x0 MSTORE PUSH32 0x6E1540171B6C0C960B71A7020D9F60077F6AF931A8BBF590DA0223DACF75C7AF PUSH1 0x1F DUP4 ADD PUSH1 0x5 SHR DUP2 ADD SWAP2 PUSH1 0x20 DUP5 LT PUSH2 0x7B8 JUMPI JUMPDEST PUSH1 0x1F ADD PUSH1 0x5 SHR ADD SWAP1 JUMPDEST DUP2 DUP2 LT PUSH2 0x7AC JUMPI POP PUSH2 0x32A JUMP JUMPDEST PUSH1 0x0 DUP2 SSTORE PUSH1 0x1 ADD PUSH2 0x79F JUMP JUMPDEST SWAP1 SWAP2 POP DUP2 SWAP1 PUSH2 0x796 JUMP JUMPDEST PUSH4 0x4E487B71 PUSH1 0xE0 SHL PUSH1 0x0 MSTORE PUSH1 0x22 PUSH1 0x4 MSTORE PUSH1 0x24 PUSH1 0x0 REVERT JUMPDEST SWAP1 PUSH1 0x7F AND SWAP1 PUSH2 0x318 JUMP JUMPDEST PUSH4 0x4E487B71 PUSH1 0xE0 SHL PUSH1 0x0 MSTORE PUSH1 0x41 PUSH1 0x4 MSTORE PUSH1 0x24 PUSH1 0x0 REVERT JUMPDEST ADD MLOAD SWAP1 POP CODESIZE DUP1 PUSH2 0x2E1 JUMP JUMPDEST PUSH1 0x8 PUSH1 0x0 SWAP1 DUP2 MSTORE DUP3 DUP2 KECCAK256 SWAP4 POP PUSH1 0x1F NOT DUP6 AND SWAP1 JUMPDEST DUP2 DUP2 LT PUSH2 0x853 JUMPI POP SWAP1 DUP5 PUSH1 0x1 SWAP6 SWAP5 SWAP4 SWAP3 LT PUSH2 0x83A JUMPI JUMPDEST POP POP POP DUP2 SHL ADD PUSH1 0x8 SSTORE PUSH2 0x2F7 JUMP JUMPDEST ADD MLOAD PUSH1 0x0 NOT PUSH1 0xF8 DUP5 PUSH1 0x3 SHL AND SHR NOT AND SWAP1 SSTORE CODESIZE DUP1 DUP1 PUSH2 0x82C JUMP JUMPDEST SWAP3 SWAP4 PUSH1 0x20 PUSH1 0x1 DUP2 SWAP3 DUP8 DUP7 ADD MLOAD DUP2 SSTORE ADD SWAP6 ADD SWAP4 ADD PUSH2 0x816 JUMP JUMPDEST PUSH1 0x8 PUSH1 0x0 MSTORE SWAP1 SWAP2 POP PUSH32 0xF3F7A9FE364FAAB93B216DA50A3214154F22A0A2B415B23A84C8169E8B636EE3 PUSH1 0x1F DUP5 ADD PUSH1 0x5 SHR DUP2 ADD SWAP2 PUSH1 0x20 DUP6 LT PUSH2 0x8D1 JUMPI JUMPDEST SWAP1 PUSH1 0x1F DUP6 SWAP5 SWAP4 SWAP3 ADD PUSH1 0x5 SHR ADD SWAP1 JUMPDEST DUP2 DUP2 LT PUSH2 0x8C2 JUMPI POP PUSH2 0x2CA JUMP JUMPDEST PUSH1 0x0 DUP2 SSTORE DUP5 SWAP4 POP PUSH1 0x1 ADD PUSH2 0x8B5 JUMP JUMPDEST SWAP1 SWAP2 POP DUP2 SWAP1 PUSH2 0x8A7 JUMP JUMPDEST SWAP2 PUSH1 0x7F AND SWAP2 PUSH2 0x2B6 JUMP JUMPDEST ADD MLOAD SWAP1 POP CODESIZE DUP1 PUSH2 0x27D JUMP JUMPDEST PUSH1 0xC PUSH1 0x0 SWAP1 DUP2 MSTORE DUP3 DUP2 KECCAK256 SWAP4 POP PUSH1 0x1F NOT DUP6 AND SWAP1 JUMPDEST DUP2 DUP2 LT PUSH2 0x940 JUMPI POP SWAP1 DUP5 PUSH1 0x1 SWAP6 SWAP5 SWAP4 SWAP3 LT PUSH2 0x927 JUMPI JUMPDEST POP POP POP DUP2 SHL ADD PUSH1 0xC SSTORE PUSH2 0x293 JUMP JUMPDEST ADD MLOAD PUSH1 0x0 NOT PUSH1 0xF8 DUP5 PUSH1 0x3 SHL AND SHR NOT AND SWAP1 SSTORE CODESIZE DUP1 DUP1 PUSH2 0x919 JUMP JUMPDEST SWAP3 SWAP4 PUSH1 0x20 PUSH1 0x1 DUP2 SWAP3 DUP8 DUP7 ADD MLOAD DUP2 SSTORE ADD SWAP6 ADD SWAP4 ADD PUSH2 0x903 JUMP JUMPDEST PUSH1 0xC PUSH1 0x0 MSTORE SWAP1 SWAP2 POP PUSH32 0xDF6966C971051C3D54EC59162606531493A51404A002842F56009D7E5CF4A8C7 PUSH1 0x1F DUP5 ADD PUSH1 0x5 SHR DUP2 ADD SWAP2 PUSH1 0x20 DUP6 LT PUSH2 0x9BE JUMPI JUMPDEST SWAP1 PUSH1 0x1F DUP6 SWAP5 SWAP4 SWAP3 ADD PUSH1 0x5 SHR ADD SWAP1 JUMPDEST DUP2 DUP2 LT PUSH2 0x9AF JUMPI POP PUSH2 0x266 JUMP JUMPDEST PUSH1 0x0 DUP2 SSTORE DUP5 SWAP4 POP PUSH1 0x1 ADD PUSH2 0x9A2 JUMP JUMPDEST SWAP1 SWAP2 POP DUP2 SWAP1 PUSH2 0x994 JUMP JUMPDEST SWAP2 PUSH1 0x7F AND SWAP2 PUSH2 0x252 JUMP JUMPDEST PUSH4 0x1E4FBDF7 PUSH1 0xE0 SHL PUSH1 0x0 MSTORE PUSH1 0x0 PUSH1 0x4 MSTORE PUSH1 0x24 PUSH1 0x0 REVERT JUMPDEST ADD MLOAD SWAP1 POP CODESIZE DUP1 PUSH2 0x1D1 JUMP JUMPDEST PUSH1 0x1 PUSH1 0x0 SWAP1 DUP2 MSTORE DUP3 DUP2 KECCAK256 SWAP4 POP PUSH1 0x1F NOT DUP6 AND SWAP1 JUMPDEST DUP2 DUP2 LT PUSH2 0xA43 JUMPI POP SWAP1 DUP5 PUSH1 0x1 SWAP6 SWAP5 SWAP4 SWAP3 LT PUSH2 0xA2A JUMPI JUMPDEST POP POP POP DUP2 SHL ADD PUSH1 0x1 SSTORE PUSH2 0x1E7 JUMP JUMPDEST ADD MLOAD PUSH1 0x0 NOT PUSH1 0xF8 DUP5 PUSH1 0x3 SHL AND SHR NOT AND SWAP1 SSTORE CODESIZE DUP1 DUP1 PUSH2 0xA1C JUMP JUMPDEST SWAP3 SWAP4 PUSH1 0x20 PUSH1 0x1 DUP2 SWAP3 DUP8 DUP7 ADD MLOAD DUP2 SSTORE ADD SWAP6 ADD SWAP4 ADD PUSH2 0xA06 JUMP JUMPDEST PUSH1 0x1 PUSH1 0x0 MSTORE SWAP1 SWAP2 POP PUSH32 0xB10E2D527612073B26EECDFD717E6A320CF44B4AFAC2B0732D9FCBE2B7FA0CF6 PUSH1 0x1F DUP5 ADD PUSH1 0x5 SHR DUP2 ADD SWAP2 PUSH1 0x20 DUP6 LT PUSH2 0xAC1 JUMPI JUMPDEST SWAP1 PUSH1 0x1F DUP6 SWAP5 SWAP4 SWAP3 ADD PUSH1 0x5 SHR ADD SWAP1 JUMPDEST DUP2 DUP2 LT PUSH2 0xAB2 JUMPI POP PUSH2 0x1BA JUMP JUMPDEST PUSH1 0x0 DUP2 SSTORE DUP5 SWAP4 POP PUSH1 0x1 ADD PUSH2 0xAA5 JUMP JUMPDEST SWAP1 SWAP2 POP DUP2 SWAP1 PUSH2 0xA97 JUMP JUMPDEST SWAP2 PUSH1 0x7F AND SWAP2 PUSH2 0x1A6 JUMP JUMPDEST SWAP1 POP DUP6 ADD MLOAD CODESIZE PUSH2 0x16E JUMP JUMPDEST PUSH1 0x0 DUP1 DUP1 MSTORE DUP2 DUP2 KECCAK256 SWAP3 POP PUSH1 0x1F NOT DUP5 AND SWAP1 JUMPDEST DUP2 DUP2 LT PUSH2 0xB2C JUMPI POP SWAP1 DUP4 PUSH1 0x1 SWAP5 SWAP4 SWAP3 LT PUSH2 0xB13 JUMPI JUMPDEST POP POP DUP2 SHL ADD PUSH1 0x0 SSTORE PUSH2 0x183 JUMP JUMPDEST DUP8 ADD MLOAD PUSH1 0x0 NOT PUSH1 0xF8 DUP5 PUSH1 0x3 SHL AND SHR NOT AND SWAP1 SSTORE CODESIZE DUP1 PUSH2 0xB06 JUMP JUMPDEST SWAP2 SWAP3 PUSH1 0x20 PUSH1 0x1 DUP2 SWAP3 DUP7 DUP13 ADD MLOAD DUP2 SSTORE ADD SWAP5 ADD SWAP3 ADD PUSH2 0xAF1 JUMP JUMPDEST PUSH1 0x0 DUP1 MSTORE PUSH32 0x290DECD9548B62A8D60345A988386FC84BA6BC95484008F6362F93160EF3E563 PUSH1 0x1F DUP4 ADD PUSH1 0x5 SHR DUP2 ADD SWAP2 PUSH1 0x20 DUP5 LT PUSH2 0xB9E JUMPI JUMPDEST PUSH1 0x1F ADD PUSH1 0x5 SHR ADD SWAP1 JUMPDEST DUP2 DUP2 LT PUSH2 0xB92 JUMPI POP PUSH2 0x157 JUMP JUMPDEST PUSH1 0x0 DUP2 SSTORE PUSH1 0x1 ADD PUSH2 0xB85 JUMP JUMPDEST SWAP1 SWAP2 POP DUP2 SWAP1 PUSH2 0xB7C JUMP JUMPDEST SWAP1 PUSH1 0x7F AND SWAP1 PUSH2 0x145 JUMP JUMPDEST DUP3 MLOAD PUSH1 0x1 PUSH1 0x1 PUSH1 0x40 SHL SUB DUP2 GT PUSH2 0xC54 JUMPI DUP3 ADD SWAP1 PUSH1 0x60 DUP3 DUP8 SUB PUSH1 0x1F NOT ADD SLT PUSH2 0xC54 JUMPI PUSH1 0x40 MLOAD SWAP1 PUSH1 0x60 DUP3 ADD PUSH1 0x1 PUSH1 0x1 PUSH1 0x40 SHL SUB DUP2 GT DUP4 DUP3 LT OR PUSH2 0x7E2 JUMPI PUSH1 0x40 SWAP1 DUP2 MSTORE PUSH1 0x20 DUP5 ADD MLOAD DUP4 MSTORE DUP4 ADD MLOAD PUSH1 0x1 PUSH1 0x1 PUSH1 0x40 SHL SUB DUP2 GT PUSH2 0xC54 JUMPI DUP8 PUSH1 0x20 PUSH2 0xC19 SWAP3 DUP7 ADD ADD PUSH2 0xC7E JUMP JUMPDEST PUSH1 0x20 DUP4 ADD MSTORE PUSH1 0x60 DUP4 ADD MLOAD SWAP2 PUSH1 0x1 PUSH1 0x1 PUSH1 0x40 SHL SUB DUP4 GT PUSH2 0xC54 JUMPI PUSH2 0xC44 DUP9 PUSH1 0x20 DUP1 SWAP7 SWAP6 DUP2 SWAP7 ADD ADD PUSH2 0xC7E JUMP JUMPDEST PUSH1 0x40 DUP3 ADD MSTORE DUP2 MSTORE ADD SWAP3 ADD SWAP2 PUSH2 0xFC JUMP JUMPDEST PUSH1 0x0 DUP1 REVERT JUMPDEST PUSH1 0x40 MLOAD SWAP2 SWAP1 PUSH1 0x1F ADD PUSH1 0x1F NOT AND DUP3 ADD PUSH1 0x1 PUSH1 0x1 PUSH1 0x40 SHL SUB DUP2 GT DUP4 DUP3 LT OR PUSH2 0x7E2 JUMPI PUSH1 0x40 MSTORE JUMP JUMPDEST DUP2 PUSH1 0x1F DUP3 ADD SLT ISZERO PUSH2 0xC54 JUMPI DUP1 MLOAD SWAP1 PUSH1 0x1 PUSH1 0x1 PUSH1 0x40 SHL SUB DUP3 GT PUSH2 0x7E2 JUMPI PUSH2 0xCAD PUSH1 0x1F DUP4 ADD PUSH1 0x1F NOT AND PUSH1 0x20 ADD PUSH2 0xC59 JUMP JUMPDEST SWAP3 DUP3 DUP5 MSTORE PUSH1 0x20 DUP4 DUP4 ADD ADD GT PUSH2 0xC54 JUMPI PUSH1 0x0 JUMPDEST DUP3 DUP2 LT PUSH2 0xCD4 JUMPI POP POP PUSH1 0x20 PUSH1 0x0 SWAP2 DUP4 ADD ADD MSTORE SWAP1 JUMP JUMPDEST DUP1 PUSH1 0x20 DUP1 SWAP3 DUP5 ADD ADD MLOAD DUP3 DUP3 DUP8 ADD ADD MSTORE ADD PUSH2 0xCBF JUMP INVALID PUSH1 0x80 DUP1 PUSH1 0x40 MSTORE PUSH1 0x4 CALLDATASIZE LT ISZERO PUSH2 0x13 JUMPI PUSH1 0x0 DUP1 REVERT JUMPDEST PUSH1 0x0 CALLDATALOAD PUSH1 0xE0 SHR SWAP1 DUP2 PUSH4 0x1FFC9A7 EQ PUSH2 0xDC2 JUMPI POP DUP1 PUSH4 0x6FDDE03 EQ PUSH2 0xD1D JUMPI DUP1 PUSH4 0x81812FC EQ PUSH2 0xCDF JUMPI DUP1 PUSH4 0x95EA7B3 EQ PUSH2 0xBF0 JUMPI DUP1 PUSH4 0xB6700D6 EQ PUSH2 0xB9F JUMPI DUP1 PUSH4 0x1B6CDE10 EQ PUSH2 0xBD2 JUMPI DUP1 PUSH4 0x23B872DD EQ PUSH2 0xBBB JUMPI DUP1 PUSH4 0x426BFD00 EQ PUSH2 0xB9F JUMPI DUP1 PUSH4 0x42842E0E EQ PUSH2 0xB75 JUMPI DUP1 PUSH4 0x5D1CA631 EQ PUSH2 0x836 JUMPI DUP1 PUSH4 0x6352211E EQ PUSH2 0xB45 JUMPI DUP1 PUSH4 0x70A08231 EQ PUSH2 0xAEF JUMPI DUP1 PUSH4 0x715018A6 EQ PUSH2 0xA92 JUMPI DUP1 PUSH4 0x8DA5CB5B EQ PUSH2 0xA69 JUMPI DUP1 PUSH4 0x8DC10768 EQ PUSH2 0x99B JUMPI DUP1 PUSH4 0x95D89B41 EQ PUSH2 0x8F3 JUMPI DUP1 PUSH4 0xA22CB465 EQ PUSH2 0x852 JUMPI DUP1 PUSH4 0xAF640D0F EQ PUSH2 0x836 JUMPI DUP1 PUSH4 0xB0DF9E53 EQ PUSH2 0x6DB JUMPI DUP1 PUSH4 0xB88D4FDE EQ PUSH2 0x679 JUMPI DUP1 PUSH4 0xC87B56DD EQ PUSH2 0x65A JUMPI DUP1 PUSH4 0xCD7E53CC EQ PUSH2 0x301 JUMPI DUP1 PUSH4 0xE5326AB1 EQ PUSH2 0x21C JUMPI DUP1 PUSH4 0xE985E9C5 EQ PUSH2 0x1C1 JUMPI PUSH4 0xF2FDE38B EQ PUSH2 0x132 JUMPI PUSH1 0x0 DUP1 REVERT JUMPDEST CALLVALUE PUSH2 0x1BC JUMPI PUSH1 0x20 CALLDATASIZE PUSH1 0x3 NOT ADD SLT PUSH2 0x1BC JUMPI PUSH2 0x14B PUSH2 0xE8F JUMP JUMPDEST PUSH2 0x153 PUSH2 0x16F1 JUMP JUMPDEST PUSH1 0x1 PUSH1 0x1 PUSH1 0xA0 SHL SUB AND DUP1 ISZERO PUSH2 0x1A6 JUMPI PUSH1 0x7 DUP1 SLOAD PUSH1 0x1 PUSH1 0x1 PUSH1 0xA0 SHL SUB NOT DUP2 AND DUP4 OR SWAP1 SWAP2 SSTORE PUSH1 0x1 PUSH1 0x1 PUSH1 0xA0 SHL SUB AND PUSH32 0x8BE0079C531659141344CD1FD0A4F28419497F9722A3DAAFE3B4186F6B6457E0 PUSH1 0x0 DUP1 LOG3 STOP JUMPDEST PUSH4 0x1E4FBDF7 PUSH1 0xE0 SHL PUSH1 0x0 MSTORE PUSH1 0x0 PUSH1 0x4 MSTORE PUSH1 0x24 PUSH1 0x0 REVERT JUMPDEST PUSH1 0x0 DUP1 REVERT JUMPDEST CALLVALUE PUSH2 0x1BC JUMPI PUSH1 0x40 CALLDATASIZE PUSH1 0x3 NOT ADD SLT PUSH2 0x1BC JUMPI PUSH2 0x1DA PUSH2 0xE8F JUMP JUMPDEST PUSH2 0x1E2 PUSH2 0xEA5 JUMP JUMPDEST SWAP1 PUSH1 0x1 DUP1 PUSH1 0xA0 SHL SUB AND PUSH1 0x0 MSTORE PUSH1 0x5 PUSH1 0x20 MSTORE PUSH1 0x40 PUSH1 0x0 KECCAK256 SWAP1 PUSH1 0x1 DUP1 PUSH1 0xA0 SHL SUB AND PUSH1 0x0 MSTORE PUSH1 0x20 MSTORE PUSH1 0x20 PUSH1 0xFF PUSH1 0x40 PUSH1 0x0 KECCAK256 SLOAD AND PUSH1 0x40 MLOAD SWAP1 ISZERO ISZERO DUP2 MSTORE RETURN JUMPDEST CALLVALUE PUSH2 0x1BC JUMPI PUSH1 0x0 CALLDATASIZE PUSH1 0x3 NOT ADD SLT PUSH2 0x1BC JUMPI PUSH1 0x40 MLOAD PUSH1 0x0 PUSH1 0x8 SLOAD PUSH2 0x23E DUP2 PUSH2 0xEF5 JUMP JUMPDEST DUP1 DUP5 MSTORE SWAP1 PUSH1 0x1 DUP2 AND SWAP1 DUP2 ISZERO PUSH2 0x2DD JUMPI POP PUSH1 0x1 EQ PUSH2 0x27E JUMPI JUMPDEST PUSH2 0x27A DUP4 PUSH2 0x266 DUP2 DUP6 SUB DUP3 PUSH2 0xF2F JUMP JUMPDEST PUSH1 0x40 MLOAD SWAP2 DUP3 SWAP2 PUSH1 0x20 DUP4 MSTORE PUSH1 0x20 DUP4 ADD SWAP1 PUSH2 0xE6A JUMP JUMPDEST SUB SWAP1 RETURN JUMPDEST PUSH1 0x8 PUSH1 0x0 SWAP1 DUP2 MSTORE PUSH32 0xF3F7A9FE364FAAB93B216DA50A3214154F22A0A2B415B23A84C8169E8B636EE3 SWAP4 SWAP3 POP SWAP1 JUMPDEST DUP1 DUP3 LT PUSH2 0x2C3 JUMPI POP SWAP1 SWAP2 POP DUP2 ADD PUSH1 0x20 ADD PUSH2 0x266 PUSH2 0x256 JUMP JUMPDEST SWAP2 SWAP3 PUSH1 0x1 DUP2 PUSH1 0x20 SWAP3 SLOAD DUP4 DUP6 DUP9 ADD ADD MSTORE ADD SWAP2 ADD SWAP1 SWAP3 SWAP2 PUSH2 0x2AB JUMP JUMPDEST PUSH1 0xFF NOT AND PUSH1 0x20 DUP1 DUP7 ADD SWAP2 SWAP1 SWAP2 MSTORE SWAP2 ISZERO ISZERO PUSH1 0x5 SHL DUP5 ADD SWAP1 SWAP2 ADD SWAP2 POP PUSH2 0x266 SWAP1 POP PUSH2 0x256 JUMP JUMPDEST CALLVALUE PUSH2 0x1BC JUMPI PUSH1 0x40 CALLDATASIZE PUSH1 0x3 NOT ADD SLT PUSH2 0x1BC JUMPI PUSH2 0x31A PUSH2 0xE8F JUMP JUMPDEST PUSH1 0x24 CALLDATALOAD PUSH8 0xFFFFFFFFFFFFFFFF DUP2 GT PUSH2 0x1BC JUMPI CALLDATASIZE PUSH1 0x23 DUP3 ADD SLT ISZERO PUSH2 0x1BC JUMPI PUSH2 0x34B SWAP1 CALLDATASIZE SWAP1 PUSH1 0x24 DUP2 PUSH1 0x4 ADD CALLDATALOAD SWAP2 ADD PUSH2 0x115F JUMP JUMPDEST SWAP1 PUSH2 0x354 PUSH2 0x16F1 JUMP JUMPDEST PUSH1 0xB SLOAD PUSH1 0x0 NOT DUP2 EQ PUSH2 0x644 JUMPI PUSH1 0x1 ADD PUSH1 0xB DUP2 SWAP1 SSTORE SWAP1 PUSH1 0x1 PUSH1 0x1 PUSH1 0xA0 SHL SUB AND DUP1 ISZERO PUSH2 0x62E JUMPI PUSH1 0x0 SWAP1 DUP3 DUP3 MSTORE PUSH1 0x2 PUSH1 0x20 MSTORE DUP3 PUSH1 0x1 DUP1 PUSH1 0xA0 SHL SUB PUSH1 0x40 DUP5 KECCAK256 SLOAD AND SWAP2 DUP3 PUSH32 0xDDF252AD1BE2C89B69C2B068FC378DAA952BA7F163C4A11628F55A4DF523B3EF DUP2 ISZERO ISZERO SWAP6 DUP7 PUSH2 0x5F9 JUMPI JUMPDEST DUP4 DUP2 MSTORE PUSH1 0x3 PUSH1 0x20 MSTORE PUSH1 0x40 DUP2 KECCAK256 PUSH1 0x1 DUP2 SLOAD ADD SWAP1 SSTORE DUP5 DUP2 MSTORE PUSH1 0x2 PUSH1 0x20 MSTORE PUSH1 0x40 DUP2 KECCAK256 DUP5 PUSH12 0xFFFFFFFFFFFFFFFFFFFFFFFF PUSH1 0xA0 SHL DUP3 SLOAD AND OR SWAP1 SSTORE DUP1 LOG4 POP PUSH2 0x5E3 JUMPI DUP1 PUSH1 0x0 MSTORE PUSH1 0x6 PUSH1 0x20 MSTORE PUSH1 0x40 PUSH1 0x0 KECCAK256 SWAP2 DUP1 MLOAD SWAP3 PUSH8 0xFFFFFFFFFFFFFFFF DUP5 GT PUSH2 0x5CD JUMPI PUSH2 0x426 DUP2 SLOAD PUSH2 0xEF5 JUMP JUMPDEST SWAP4 PUSH1 0x1F DUP6 GT PUSH2 0x585 JUMPI JUMPDEST PUSH1 0x20 SWAP5 POP DUP1 DUP6 PUSH1 0x1F DUP3 GT PUSH1 0x1 EQ PUSH2 0x523 JUMPI PUSH1 0x0 SWAP2 PUSH2 0x518 JUMPI JUMPDEST POP DUP2 PUSH1 0x1 SHL SWAP2 PUSH1 0x0 NOT SWAP1 PUSH1 0x3 SHL SHR NOT AND OR SWAP1 SSTORE JUMPDEST PUSH32 0xF8E1A15ABA9398E019F0B49DF1A4FDE98EE17AE345CB5F6B5E2C27F5033E8CE7 DUP4 PUSH1 0x40 MLOAD DUP5 DUP2 MSTORE LOG1 PUSH1 0x0 DUP1 PUSH1 0x40 SWAP3 PUSH2 0x4ED PUSH2 0x501 DUP6 MLOAD SWAP3 PUSH2 0x49F DUP8 DUP6 PUSH2 0xF2F JUMP JUMPDEST PUSH1 0x9 DUP5 MSTORE PUSH9 0x26B4B73A32B2101D1 PUSH1 0xBD SHL DUP10 DUP6 ADD MSTORE DUP7 MLOAD SWAP3 DUP4 SWAP2 PUSH2 0x4DB DUP12 DUP5 ADD SWAP7 PUSH4 0x5821EFA1 PUSH1 0xE0 SHL DUP9 MSTORE PUSH1 0x60 PUSH1 0x24 DUP7 ADD MSTORE PUSH1 0x84 DUP6 ADD SWAP1 PUSH2 0xE6A JUMP JUMPDEST DUP4 DUP2 SUB PUSH1 0x23 NOT ADD PUSH1 0x44 DUP6 ADD MSTORE SWAP1 PUSH2 0xE6A JUMP JUMPDEST DUP9 PUSH1 0x64 DUP4 ADD MSTORE SUB PUSH1 0x1F NOT DUP2 ADD DUP4 MSTORE DUP3 PUSH2 0xF2F JUMP JUMPDEST MLOAD SWAP1 PUSH11 0x636F6E736F6C652E6C6F67 GAS STATICCALL POP MLOAD SWAP1 DUP2 MSTORE RETURN JUMPDEST SWAP1 POP DUP4 ADD MLOAD DUP7 PUSH2 0x449 JUMP JUMPDEST PUSH1 0x0 DUP5 DUP2 MSTORE DUP2 DUP2 KECCAK256 SWAP3 POP PUSH1 0x1F NOT DUP5 AND SWAP1 JUMPDEST DUP2 DUP2 LT PUSH2 0x56E JUMPI POP SWAP1 DUP4 PUSH1 0x1 SWAP5 SWAP4 SWAP3 LT PUSH2 0x555 JUMPI JUMPDEST POP POP DUP2 SHL ADD SWAP1 SSTORE PUSH2 0x45D JUMP JUMPDEST DUP6 ADD MLOAD PUSH1 0x0 NOT PUSH1 0xF8 DUP5 PUSH1 0x3 SHL AND SHR NOT AND SWAP1 SSTORE DUP7 DUP1 PUSH2 0x549 JUMP JUMPDEST SWAP2 SWAP3 DUP9 PUSH1 0x1 DUP2 SWAP3 DUP7 DUP11 ADD MLOAD DUP2 SSTORE ADD SWAP5 ADD SWAP3 ADD PUSH2 0x534 JUMP JUMPDEST DUP2 PUSH1 0x0 MSTORE PUSH1 0x20 PUSH1 0x0 KECCAK256 PUSH1 0x1F DUP3 ADD PUSH1 0x5 SHR DUP2 ADD SWAP6 PUSH1 0x20 DUP4 LT PUSH2 0x5C3 JUMPI JUMPDEST PUSH1 0x1F ADD PUSH1 0x5 SHR ADD SWAP5 JUMPDEST DUP6 DUP2 LT PUSH2 0x5B7 JUMPI POP PUSH2 0x430 JUMP JUMPDEST PUSH1 0x0 DUP2 SSTORE PUSH1 0x1 ADD PUSH2 0x5AA JUMP JUMPDEST SWAP1 SWAP6 POP DUP6 SWAP1 PUSH2 0x5A1 JUMP JUMPDEST PUSH4 0x4E487B71 PUSH1 0xE0 SHL PUSH1 0x0 MSTORE PUSH1 0x41 PUSH1 0x4 MSTORE PUSH1 0x24 PUSH1 0x0 REVERT JUMPDEST PUSH4 0x39E35637 PUSH1 0xE1 SHL PUSH1 0x0 MSTORE PUSH1 0x0 PUSH1 0x4 MSTORE PUSH1 0x24 PUSH1 0x0 REVERT JUMPDEST PUSH1 0x0 DUP6 DUP2 MSTORE PUSH1 0x4 PUSH1 0x20 MSTORE PUSH1 0x40 SWAP1 KECCAK256 DUP1 SLOAD PUSH1 0x1 PUSH1 0x1 PUSH1 0xA0 SHL SUB NOT AND SWAP1 SSTORE DUP3 DUP2 MSTORE PUSH1 0x3 PUSH1 0x20 MSTORE PUSH1 0x40 DUP2 KECCAK256 DUP1 SLOAD PUSH1 0x0 NOT ADD SWAP1 SSTORE PUSH2 0x3BE JUMP JUMPDEST PUSH4 0x32505749 PUSH1 0xE1 SHL PUSH1 0x0 MSTORE PUSH1 0x0 PUSH1 0x4 MSTORE PUSH1 0x24 PUSH1 0x0 REVERT JUMPDEST PUSH4 0x4E487B71 PUSH1 0xE0 SHL PUSH1 0x0 MSTORE PUSH1 0x11 PUSH1 0x4 MSTORE PUSH1 0x24 PUSH1 0x0 REVERT JUMPDEST CALLVALUE PUSH2 0x1BC JUMPI PUSH1 0x20 CALLDATASIZE PUSH1 0x3 NOT ADD SLT PUSH2 0x1BC JUMPI PUSH2 0x27A PUSH2 0x266 PUSH1 0x4 CALLDATALOAD PUSH2 0x14BF JUMP JUMPDEST CALLVALUE PUSH2 0x1BC JUMPI PUSH1 0x80 CALLDATASIZE PUSH1 0x3 NOT ADD SLT PUSH2 0x1BC JUMPI PUSH2 0x692 PUSH2 0xE8F JUMP JUMPDEST PUSH2 0x69A PUSH2 0xEA5 JUMP JUMPDEST PUSH1 0x64 CALLDATALOAD SWAP2 PUSH8 0xFFFFFFFFFFFFFFFF DUP4 GT PUSH2 0x1BC JUMPI CALLDATASIZE PUSH1 0x23 DUP5 ADD SLT ISZERO PUSH2 0x1BC JUMPI PUSH2 0x6CF PUSH2 0x6D9 SWAP4 CALLDATASIZE SWAP1 PUSH1 0x24 DUP2 PUSH1 0x4 ADD CALLDATALOAD SWAP2 ADD PUSH2 0x115F JUMP JUMPDEST SWAP2 PUSH1 0x44 CALLDATALOAD SWAP2 PUSH2 0x132C JUMP JUMPDEST STOP JUMPDEST CALLVALUE PUSH2 0x1BC JUMPI PUSH1 0x0 CALLDATASIZE PUSH1 0x3 NOT ADD SLT PUSH2 0x1BC JUMPI PUSH1 0xD SLOAD PUSH8 0xFFFFFFFFFFFFFFFF DUP2 GT PUSH2 0x5CD JUMPI PUSH1 0x40 MLOAD SWAP1 PUSH2 0x712 PUSH1 0x20 DUP3 PUSH1 0x5 SHL ADD DUP4 PUSH2 0xF2F JUMP JUMPDEST DUP1 DUP3 MSTORE PUSH1 0x20 DUP3 ADD DUP1 SWAP2 PUSH1 0xD PUSH1 0x0 MSTORE PUSH32 0xD7B6990105719101DABEB77144F2A3385C8033ACD3AF97E9423A695E81AD1EB5 SWAP2 PUSH1 0x0 SWAP1 JUMPDEST DUP3 DUP3 LT PUSH2 0x7DE JUMPI DUP5 DUP7 PUSH1 0x40 MLOAD SWAP2 DUP3 SWAP2 PUSH1 0x20 DUP4 ADD SWAP1 PUSH1 0x20 DUP5 MSTORE MLOAD DUP1 SWAP2 MSTORE PUSH1 0x40 DUP4 ADD SWAP1 PUSH1 0x40 DUP2 PUSH1 0x5 SHL DUP6 ADD ADD SWAP3 SWAP2 PUSH1 0x0 SWAP1 JUMPDEST DUP3 DUP3 LT PUSH2 0x785 JUMPI POP POP POP POP SUB SWAP1 RETURN JUMPDEST SWAP2 SWAP4 PUSH1 0x1 SWAP2 SWAP4 SWAP6 POP PUSH1 0x20 PUSH2 0x7CE DUP2 SWAP3 PUSH1 0x3F NOT DUP11 DUP3 SUB ADD DUP7 MSTORE DUP9 MLOAD SWAP1 DUP2 MLOAD DUP2 MSTORE PUSH1 0x40 PUSH2 0x7BD DUP6 DUP5 ADD MLOAD PUSH1 0x60 DUP8 DUP6 ADD MSTORE PUSH1 0x60 DUP5 ADD SWAP1 PUSH2 0xE6A JUMP JUMPDEST SWAP3 ADD MLOAD SWAP1 PUSH1 0x40 DUP2 DUP5 SUB SWAP2 ADD MSTORE PUSH2 0xE6A JUMP JUMPDEST SWAP7 ADD SWAP3 ADD SWAP3 ADD DUP6 SWAP5 SWAP4 SWAP2 SWAP3 PUSH2 0x776 JUMP JUMPDEST PUSH1 0x40 MLOAD PUSH1 0x60 DUP2 ADD DUP2 DUP2 LT PUSH8 0xFFFFFFFFFFFFFFFF DUP3 GT OR PUSH2 0x5CD JUMPI PUSH1 0x1 SWAP3 PUSH1 0x3 SWAP3 PUSH1 0x20 SWAP3 PUSH1 0x40 MSTORE DUP8 SLOAD DUP2 MSTORE PUSH2 0x813 DUP6 DUP10 ADD PUSH2 0x10A1 JUMP JUMPDEST DUP4 DUP3 ADD MSTORE PUSH2 0x823 PUSH1 0x2 DUP10 ADD PUSH2 0x10A1 JUMP JUMPDEST PUSH1 0x40 DUP3 ADD MSTORE DUP2 MSTORE ADD SWAP5 ADD SWAP2 ADD SWAP1 SWAP3 PUSH2 0x746 JUMP JUMPDEST CALLVALUE PUSH2 0x1BC JUMPI PUSH1 0x0 CALLDATASIZE PUSH1 0x3 NOT ADD SLT PUSH2 0x1BC JUMPI PUSH2 0x27A PUSH2 0x266 PUSH2 0x100A JUMP JUMPDEST CALLVALUE PUSH2 0x1BC JUMPI PUSH1 0x40 CALLDATASIZE PUSH1 0x3 NOT ADD SLT PUSH2 0x1BC JUMPI PUSH2 0x86B PUSH2 0xE8F JUMP JUMPDEST PUSH1 0x24 CALLDATALOAD SWAP1 DUP2 ISZERO ISZERO DUP1 SWAP3 SUB PUSH2 0x1BC JUMPI PUSH1 0x1 PUSH1 0x1 PUSH1 0xA0 SHL SUB AND SWAP1 DUP2 ISZERO PUSH2 0x8DE JUMPI CALLER PUSH1 0x0 MSTORE PUSH1 0x5 PUSH1 0x20 MSTORE PUSH1 0x40 PUSH1 0x0 KECCAK256 DUP3 PUSH1 0x0 MSTORE PUSH1 0x20 MSTORE PUSH1 0x40 PUSH1 0x0 KECCAK256 PUSH1 0xFF NOT DUP2 SLOAD AND PUSH1 0xFF DUP4 AND OR SWAP1 SSTORE PUSH1 0x40 MLOAD SWAP1 DUP2 MSTORE PUSH32 0x17307EAB39AB6107E8899845AD3D59BD9653F200F220920489CA2B5937696C31 PUSH1 0x20 CALLER SWAP3 LOG3 STOP JUMPDEST POP PUSH4 0xB611743 PUSH1 0xE3 SHL PUSH1 0x0 MSTORE PUSH1 0x4 MSTORE PUSH1 0x24 PUSH1 0x0 REVERT JUMPDEST CALLVALUE PUSH2 0x1BC JUMPI PUSH1 0x0 CALLDATASIZE PUSH1 0x3 NOT ADD SLT PUSH2 0x1BC JUMPI PUSH1 0x40 MLOAD PUSH1 0x0 PUSH1 0x1 SLOAD PUSH2 0x915 DUP2 PUSH2 0xEF5 JUMP JUMPDEST DUP1 DUP5 MSTORE SWAP1 PUSH1 0x1 DUP2 AND SWAP1 DUP2 ISZERO PUSH2 0x2DD JUMPI POP PUSH1 0x1 EQ PUSH2 0x93C JUMPI PUSH2 0x27A DUP4 PUSH2 0x266 DUP2 DUP6 SUB DUP3 PUSH2 0xF2F JUMP JUMPDEST PUSH1 0x1 PUSH1 0x0 SWAP1 DUP2 MSTORE PUSH32 0xB10E2D527612073B26EECDFD717E6A320CF44B4AFAC2B0732D9FCBE2B7FA0CF6 SWAP4 SWAP3 POP SWAP1 JUMPDEST DUP1 DUP3 LT PUSH2 0x981 JUMPI POP SWAP1 SWAP2 POP DUP2 ADD PUSH1 0x20 ADD PUSH2 0x266 PUSH2 0x256 JUMP JUMPDEST SWAP2 SWAP3 PUSH1 0x1 DUP2 PUSH1 0x20 SWAP3 SLOAD DUP4 DUP6 DUP9 ADD ADD MSTORE ADD SWAP2 ADD SWAP1 SWAP3 SWAP2 PUSH2 0x969 JUMP JUMPDEST CALLVALUE PUSH2 0x1BC JUMPI PUSH1 0x20 CALLDATASIZE PUSH1 0x3 NOT ADD SLT PUSH2 0x1BC JUMPI PUSH1 0x4 CALLDATALOAD PUSH1 0xD SLOAD DUP2 LT ISZERO PUSH2 0x1BC JUMPI PUSH1 0x3 SWAP1 PUSH1 0xD PUSH1 0x0 MSTORE MUL DUP1 PUSH32 0xD7B6990105719101DABEB77144F2A3385C8033ACD3AF97E9423A695E81AD1EB5 ADD SLOAD PUSH2 0x27A PUSH2 0xA3F PUSH32 0xD7B6990105719101DABEB77144F2A3385C8033ACD3AF97E9423A695E81AD1EB7 PUSH2 0xA38 PUSH32 0xD7B6990105719101DABEB77144F2A3385C8033ACD3AF97E9423A695E81AD1EB6 DUP7 ADD PUSH2 0x10A1 JUMP JUMPDEST SWAP5 ADD PUSH2 0x10A1 JUMP JUMPDEST PUSH2 0xA5B PUSH1 0x40 MLOAD SWAP5 DUP6 SWAP5 DUP6 MSTORE PUSH1 0x60 PUSH1 0x20 DUP7 ADD MSTORE PUSH1 0x60 DUP6 ADD SWAP1 PUSH2 0xE6A JUMP JUMPDEST SWAP1 DUP4 DUP3 SUB PUSH1 0x40 DUP6 ADD MSTORE PUSH2 0xE6A JUMP JUMPDEST CALLVALUE PUSH2 0x1BC JUMPI PUSH1 0x0 CALLDATASIZE PUSH1 0x3 NOT ADD SLT PUSH2 0x1BC JUMPI PUSH1 0x7 SLOAD PUSH1 0x40 MLOAD PUSH1 0x1 PUSH1 0x1 PUSH1 0xA0 SHL SUB SWAP1 SWAP2 AND DUP2 MSTORE PUSH1 0x20 SWAP1 RETURN JUMPDEST CALLVALUE PUSH2 0x1BC JUMPI PUSH1 0x0 CALLDATASIZE PUSH1 0x3 NOT ADD SLT PUSH2 0x1BC JUMPI PUSH2 0xAAB PUSH2 0x16F1 JUMP JUMPDEST PUSH1 0x7 DUP1 SLOAD PUSH1 0x1 PUSH1 0x1 PUSH1 0xA0 SHL SUB NOT DUP2 AND SWAP1 SWAP2 SSTORE PUSH1 0x0 SWAP1 PUSH1 0x1 PUSH1 0x1 PUSH1 0xA0 SHL SUB AND PUSH32 0x8BE0079C531659141344CD1FD0A4F28419497F9722A3DAAFE3B4186F6B6457E0 DUP3 DUP1 LOG3 STOP JUMPDEST CALLVALUE PUSH2 0x1BC JUMPI PUSH1 0x20 CALLDATASIZE PUSH1 0x3 NOT ADD SLT PUSH2 0x1BC JUMPI PUSH1 0x1 PUSH1 0x1 PUSH1 0xA0 SHL SUB PUSH2 0xB10 PUSH2 0xE8F JUMP JUMPDEST AND DUP1 ISZERO PUSH2 0xB2F JUMPI PUSH1 0x0 MSTORE PUSH1 0x3 PUSH1 0x20 MSTORE PUSH1 0x20 PUSH1 0x40 PUSH1 0x0 KECCAK256 SLOAD PUSH1 0x40 MLOAD SWAP1 DUP2 MSTORE RETURN JUMPDEST PUSH4 0x22718AD9 PUSH1 0xE2 SHL PUSH1 0x0 MSTORE PUSH1 0x0 PUSH1 0x4 MSTORE PUSH1 0x24 PUSH1 0x0 REVERT JUMPDEST CALLVALUE PUSH2 0x1BC JUMPI PUSH1 0x20 CALLDATASIZE PUSH1 0x3 NOT ADD SLT PUSH2 0x1BC JUMPI PUSH1 0x20 PUSH2 0xB63 PUSH1 0x4 CALLDATALOAD PUSH2 0x16BA JUMP JUMPDEST PUSH1 0x40 MLOAD PUSH1 0x1 PUSH1 0x1 PUSH1 0xA0 SHL SUB SWAP1 SWAP2 AND DUP2 MSTORE RETURN JUMPDEST CALLVALUE PUSH2 0x1BC JUMPI PUSH2 0x6D9 PUSH2 0xB86 CALLDATASIZE PUSH2 0xEBB JUMP JUMPDEST SWAP1 PUSH1 0x40 MLOAD SWAP3 PUSH2 0xB96 PUSH1 0x20 DUP6 PUSH2 0xF2F JUMP JUMPDEST PUSH1 0x0 DUP5 MSTORE PUSH2 0x132C JUMP JUMPDEST CALLVALUE PUSH2 0x1BC JUMPI PUSH1 0x0 CALLDATASIZE PUSH1 0x3 NOT ADD SLT PUSH2 0x1BC JUMPI PUSH2 0x27A PUSH2 0x266 PUSH2 0xF51 JUMP JUMPDEST CALLVALUE PUSH2 0x1BC JUMPI PUSH2 0x6D9 PUSH2 0xBCC CALLDATASIZE PUSH2 0xEBB JUMP JUMPDEST SWAP2 PUSH2 0x1196 JUMP JUMPDEST CALLVALUE PUSH2 0x1BC JUMPI PUSH1 0x0 CALLDATASIZE PUSH1 0x3 NOT ADD SLT PUSH2 0x1BC JUMPI PUSH1 0x20 PUSH1 0xA SLOAD PUSH1 0x40 MLOAD SWAP1 DUP2 MSTORE RETURN JUMPDEST CALLVALUE PUSH2 0x1BC JUMPI PUSH1 0x40 CALLDATASIZE PUSH1 0x3 NOT ADD SLT PUSH2 0x1BC JUMPI PUSH2 0xC09 PUSH2 0xE8F JUMP JUMPDEST PUSH1 0x24 CALLDATALOAD PUSH2 0xC15 DUP2 PUSH2 0x16BA JUMP JUMPDEST CALLER ISZERO ISZERO DUP1 PUSH2 0xCCC JUMPI JUMPDEST DUP1 PUSH2 0xC9E JUMPI JUMPDEST PUSH2 0xC89 JUMPI DUP2 SWAP1 PUSH1 0x1 PUSH1 0x1 PUSH1 0xA0 SHL SUB DUP5 DUP2 AND SWAP2 AND PUSH32 0x8C5BE1E5EBEC7D5BD14F71427D1E84F3DD0314C0F7B2291E5B200AC8C7C3B925 PUSH1 0x0 DUP1 LOG4 PUSH1 0x0 SWAP1 DUP2 MSTORE PUSH1 0x4 PUSH1 0x20 MSTORE PUSH1 0x40 SWAP1 KECCAK256 DUP1 SLOAD PUSH1 0x1 PUSH1 0x1 PUSH1 0xA0 SHL SUB NOT AND PUSH1 0x1 PUSH1 0x1 PUSH1 0xA0 SHL SUB SWAP1 SWAP3 AND SWAP2 SWAP1 SWAP2 OR SWAP1 SSTORE STOP JUMPDEST PUSH4 0xA9FBF51F PUSH1 0xE0 SHL PUSH1 0x0 MSTORE CALLER PUSH1 0x4 MSTORE PUSH1 0x24 PUSH1 0x0 REVERT JUMPDEST POP PUSH1 0x1 PUSH1 0x1 PUSH1 0xA0 SHL SUB DUP2 AND PUSH1 0x0 SWAP1 DUP2 MSTORE PUSH1 0x5 PUSH1 0x20 SWAP1 DUP2 MSTORE PUSH1 0x40 DUP1 DUP4 KECCAK256 CALLER DUP5 MSTORE SWAP1 SWAP2 MSTORE SWAP1 KECCAK256 SLOAD PUSH1 0xFF AND ISZERO PUSH2 0xC24 JUMP JUMPDEST POP PUSH1 0x1 PUSH1 0x1 PUSH1 0xA0 SHL SUB DUP2 AND CALLER EQ ISZERO PUSH2 0xC1E JUMP JUMPDEST CALLVALUE PUSH2 0x1BC JUMPI PUSH1 0x20 CALLDATASIZE PUSH1 0x3 NOT ADD SLT PUSH2 0x1BC JUMPI PUSH1 0x4 CALLDATALOAD PUSH2 0xCFC DUP2 PUSH2 0x16BA JUMP JUMPDEST POP PUSH1 0x0 MSTORE PUSH1 0x4 PUSH1 0x20 MSTORE PUSH1 0x20 PUSH1 0x1 DUP1 PUSH1 0xA0 SHL SUB PUSH1 0x40 PUSH1 0x0 KECCAK256 SLOAD AND PUSH1 0x40 MLOAD SWAP1 DUP2 MSTORE RETURN JUMPDEST CALLVALUE PUSH2 0x1BC JUMPI PUSH1 0x0 CALLDATASIZE PUSH1 0x3 NOT ADD SLT PUSH2 0x1BC JUMPI PUSH1 0x40 MLOAD PUSH1 0x0 DUP1 SLOAD PUSH2 0xD3E DUP2 PUSH2 0xEF5 JUMP JUMPDEST DUP1 DUP5 MSTORE SWAP1 PUSH1 0x1 DUP2 AND SWAP1 DUP2 ISZERO PUSH2 0x2DD JUMPI POP PUSH1 0x1 EQ PUSH2 0xD65 JUMPI PUSH2 0x27A DUP4 PUSH2 0x266 DUP2 DUP6 SUB DUP3 PUSH2 0xF2F JUMP JUMPDEST PUSH1 0x0 DUP1 DUP1 MSTORE PUSH32 0x290DECD9548B62A8D60345A988386FC84BA6BC95484008F6362F93160EF3E563 SWAP4 SWAP3 POP SWAP1 JUMPDEST DUP1 DUP3 LT PUSH2 0xDA8 JUMPI POP SWAP1 SWAP2 POP DUP2 ADD PUSH1 0x20 ADD PUSH2 0x266 PUSH2 0x256 JUMP JUMPDEST SWAP2 SWAP3 PUSH1 0x1 DUP2 PUSH1 0x20 SWAP3 SLOAD DUP4 DUP6 DUP9 ADD ADD MSTORE ADD SWAP2 ADD SWAP1 SWAP3 SWAP2 PUSH2 0xD90 JUMP JUMPDEST CALLVALUE PUSH2 0x1BC JUMPI PUSH1 0x20 CALLDATASIZE PUSH1 0x3 NOT ADD SLT PUSH2 0x1BC JUMPI PUSH1 0x4 CALLDATALOAD SWAP1 PUSH4 0xFFFFFFFF PUSH1 0xE0 SHL DUP3 AND DUP1 SWAP3 SUB PUSH2 0x1BC JUMPI PUSH1 0x20 SWAP2 PUSH4 0x24832483 PUSH1 0xE1 SHL DUP2 EQ SWAP1 DUP2 ISZERO PUSH2 0xE04 JUMPI JUMPDEST POP ISZERO ISZERO DUP2 MSTORE RETURN JUMPDEST PUSH4 0x80AC58CD PUSH1 0xE0 SHL DUP2 EQ SWAP2 POP DUP2 ISZERO PUSH2 0xE36 JUMPI JUMPDEST DUP2 ISZERO PUSH2 0xE25 JUMPI JUMPDEST POP DUP4 PUSH2 0xDFD JUMP JUMPDEST PUSH4 0x1FFC9A7 PUSH1 0xE0 SHL EQ SWAP1 POP DUP4 PUSH2 0xE1E JUMP JUMPDEST PUSH4 0x5B5E139F PUSH1 0xE0 SHL DUP2 EQ SWAP2 POP PUSH2 0xE17 JUMP JUMPDEST PUSH1 0x0 JUMPDEST DUP4 DUP2 LT PUSH2 0xE5A JUMPI POP POP PUSH1 0x0 SWAP2 ADD MSTORE JUMP JUMPDEST DUP2 DUP2 ADD MLOAD DUP4 DUP3 ADD MSTORE PUSH1 0x20 ADD PUSH2 0xE4A JUMP JUMPDEST SWAP1 PUSH1 0x20 SWAP2 PUSH2 0xE83 DUP2 MLOAD DUP1 SWAP3 DUP2 DUP6 MSTORE DUP6 DUP1 DUP7 ADD SWAP2 ADD PUSH2 0xE47 JUMP JUMPDEST PUSH1 0x1F ADD PUSH1 0x1F NOT AND ADD ADD SWAP1 JUMP JUMPDEST PUSH1 0x4 CALLDATALOAD SWAP1 PUSH1 0x1 PUSH1 0x1 PUSH1 0xA0 SHL SUB DUP3 AND DUP3 SUB PUSH2 0x1BC JUMPI JUMP JUMPDEST PUSH1 0x24 CALLDATALOAD SWAP1 PUSH1 0x1 PUSH1 0x1 PUSH1 0xA0 SHL SUB DUP3 AND DUP3 SUB PUSH2 0x1BC JUMPI JUMP JUMPDEST PUSH1 0x60 SWAP1 PUSH1 0x3 NOT ADD SLT PUSH2 0x1BC JUMPI PUSH1 0x4 CALLDATALOAD PUSH1 0x1 PUSH1 0x1 PUSH1 0xA0 SHL SUB DUP2 AND DUP2 SUB PUSH2 0x1BC JUMPI SWAP1 PUSH1 0x24 CALLDATALOAD PUSH1 0x1 PUSH1 0x1 PUSH1 0xA0 SHL SUB DUP2 AND DUP2 SUB PUSH2 0x1BC JUMPI SWAP1 PUSH1 0x44 CALLDATALOAD SWAP1 JUMP JUMPDEST SWAP1 PUSH1 0x1 DUP3 DUP2 SHR SWAP3 AND DUP1 ISZERO PUSH2 0xF25 JUMPI JUMPDEST PUSH1 0x20 DUP4 LT EQ PUSH2 0xF0F JUMPI JUMP JUMPDEST PUSH4 0x4E487B71 PUSH1 0xE0 SHL PUSH1 0x0 MSTORE PUSH1 0x22 PUSH1 0x4 MSTORE PUSH1 0x24 PUSH1 0x0 REVERT JUMPDEST SWAP2 PUSH1 0x7F AND SWAP2 PUSH2 0xF04 JUMP JUMPDEST SWAP1 PUSH1 0x1F DUP1 NOT SWAP2 ADD AND DUP2 ADD SWAP1 DUP2 LT PUSH8 0xFFFFFFFFFFFFFFFF DUP3 GT OR PUSH2 0x5CD JUMPI PUSH1 0x40 MSTORE JUMP JUMPDEST PUSH1 0x40 MLOAD SWAP1 PUSH1 0x0 DUP3 PUSH1 0x9 SLOAD SWAP2 PUSH2 0xF65 DUP4 PUSH2 0xEF5 JUMP JUMPDEST DUP1 DUP4 MSTORE SWAP3 PUSH1 0x1 DUP2 AND SWAP1 DUP2 ISZERO PUSH2 0xFEB JUMPI POP PUSH1 0x1 EQ PUSH2 0xF8B JUMPI JUMPDEST PUSH2 0xF89 SWAP3 POP SUB DUP4 PUSH2 0xF2F JUMP JUMPDEST JUMP JUMPDEST POP PUSH1 0x9 PUSH1 0x0 SWAP1 DUP2 MSTORE SWAP1 SWAP2 PUSH32 0x6E1540171B6C0C960B71A7020D9F60077F6AF931A8BBF590DA0223DACF75C7AF JUMPDEST DUP2 DUP4 LT PUSH2 0xFCF JUMPI POP POP SWAP1 PUSH1 0x20 PUSH2 0xF89 SWAP3 DUP3 ADD ADD PUSH2 0xF7D JUMP JUMPDEST PUSH1 0x20 SWAP2 SWAP4 POP DUP1 PUSH1 0x1 SWAP2 SLOAD DUP4 DUP6 DUP10 ADD ADD MSTORE ADD SWAP2 ADD SWAP1 SWAP2 DUP5 SWAP3 PUSH2 0xFB7 JUMP JUMPDEST PUSH1 0x20 SWAP3 POP PUSH2 0xF89 SWAP5 SWAP2 POP PUSH1 0xFF NOT AND DUP3 DUP5 ADD MSTORE ISZERO ISZERO PUSH1 0x5 SHL DUP3 ADD ADD PUSH2 0xF7D JUMP JUMPDEST PUSH1 0x40 MLOAD SWAP1 PUSH1 0x0 DUP3 PUSH1 0xC SLOAD SWAP2 PUSH2 0x101E DUP4 PUSH2 0xEF5 JUMP JUMPDEST DUP1 DUP4 MSTORE SWAP3 PUSH1 0x1 DUP2 AND SWAP1 DUP2 ISZERO PUSH2 0xFEB JUMPI POP PUSH1 0x1 EQ PUSH2 0x1041 JUMPI PUSH2 0xF89 SWAP3 POP SUB DUP4 PUSH2 0xF2F JUMP JUMPDEST POP PUSH1 0xC PUSH1 0x0 SWAP1 DUP2 MSTORE SWAP1 SWAP2 PUSH32 0xDF6966C971051C3D54EC59162606531493A51404A002842F56009D7E5CF4A8C7 JUMPDEST DUP2 DUP4 LT PUSH2 0x1085 JUMPI POP POP SWAP1 PUSH1 0x20 PUSH2 0xF89 SWAP3 DUP3 ADD ADD PUSH2 0xF7D JUMP JUMPDEST PUSH1 0x20 SWAP2 SWAP4 POP DUP1 PUSH1 0x1 SWAP2 SLOAD DUP4 DUP6 DUP10 ADD ADD MSTORE ADD SWAP2 ADD SWAP1 SWAP2 DUP5 SWAP3 PUSH2 0x106D JUMP JUMPDEST SWAP1 PUSH1 0x40 MLOAD SWAP2 DUP3 PUSH1 0x0 DUP3 SLOAD SWAP3 PUSH2 0x10B5 DUP5 PUSH2 0xEF5 JUMP JUMPDEST DUP1 DUP5 MSTORE SWAP4 PUSH1 0x1 DUP2 AND SWAP1 DUP2 ISZERO PUSH2 0x1121 JUMPI POP PUSH1 0x1 EQ PUSH2 0x10DA JUMPI JUMPDEST POP PUSH2 0xF89 SWAP3 POP SUB DUP4 PUSH2 0xF2F JUMP JUMPDEST SWAP1 POP PUSH1 0x0 SWAP3 SWAP2 SWAP3 MSTORE PUSH1 0x20 PUSH1 0x0 KECCAK256 SWAP1 PUSH1 0x0 SWAP2 JUMPDEST DUP2 DUP4 LT PUSH2 0x1105 JUMPI POP POP SWAP1 PUSH1 0x20 PUSH2 0xF89 SWAP3 DUP3 ADD ADD CODESIZE PUSH2 0x10CD JUMP JUMPDEST PUSH1 0x20 SWAP2 SWAP4 POP DUP1 PUSH1 0x1 SWAP2 SLOAD DUP4 DUP6 DUP10 ADD ADD MSTORE ADD SWAP2 ADD SWAP1 SWAP2 DUP5 SWAP3 PUSH2 0x10EC JUMP JUMPDEST SWAP1 POP PUSH1 0x20 SWAP3 POP PUSH2 0xF89 SWAP5 SWAP2 POP PUSH1 0xFF NOT AND DUP3 DUP5 ADD MSTORE ISZERO ISZERO PUSH1 0x5 SHL DUP3 ADD ADD CODESIZE PUSH2 0x10CD JUMP JUMPDEST PUSH8 0xFFFFFFFFFFFFFFFF DUP2 GT PUSH2 0x5CD JUMPI PUSH1 0x1F ADD PUSH1 0x1F NOT AND PUSH1 0x20 ADD SWAP1 JUMP JUMPDEST SWAP3 SWAP2 SWAP3 PUSH2 0x116B DUP3 PUSH2 0x1143 JUMP JUMPDEST SWAP2 PUSH2 0x1179 PUSH1 0x40 MLOAD SWAP4 DUP5 PUSH2 0xF2F JUMP JUMPDEST DUP3 SWAP5 DUP2 DUP5 MSTORE DUP2 DUP4 ADD GT PUSH2 0x1BC JUMPI DUP3 DUP2 PUSH1 0x20 SWAP4 DUP5 PUSH1 0x0 SWAP7 ADD CALLDATACOPY ADD ADD MSTORE JUMP JUMPDEST PUSH1 0x1 PUSH1 0x1 PUSH1 0xA0 SHL SUB SWAP1 SWAP2 AND SWAP2 SWAP1 DUP3 ISZERO PUSH2 0x62E JUMPI PUSH1 0x0 DUP3 DUP2 MSTORE PUSH1 0x2 PUSH1 0x20 MSTORE PUSH1 0x40 DUP2 KECCAK256 SLOAD PUSH1 0x1 PUSH1 0x1 PUSH1 0xA0 SHL SUB AND SWAP4 DUP4 SWAP2 DUP6 SWAP1 CALLER ISZERO ISZERO DUP1 PUSH2 0x1294 JUMPI JUMPDEST POP PUSH32 0xDDF252AD1BE2C89B69C2B068FC378DAA952BA7F163C4A11628F55A4DF523B3EF SWAP1 DUP3 PUSH2 0x125F JUMPI JUMPDEST DUP4 DUP2 MSTORE PUSH1 0x3 PUSH1 0x20 MSTORE PUSH1 0x40 DUP2 KECCAK256 PUSH1 0x1 DUP2 SLOAD ADD SWAP1 SSTORE DUP5 DUP2 MSTORE PUSH1 0x2 PUSH1 0x20 MSTORE PUSH1 0x40 DUP2 KECCAK256 DUP5 PUSH12 0xFFFFFFFFFFFFFFFFFFFFFFFF PUSH1 0xA0 SHL DUP3 SLOAD AND OR SWAP1 SSTORE DUP1 LOG4 PUSH1 0x1 PUSH1 0x1 PUSH1 0xA0 SHL SUB AND DUP1 DUP4 SUB PUSH2 0x1245 JUMPI POP POP POP JUMP JUMPDEST PUSH4 0x64283D7B PUSH1 0xE0 SHL PUSH1 0x0 MSTORE PUSH1 0x4 MSTORE PUSH1 0x24 MSTORE PUSH1 0x44 MSTORE PUSH1 0x64 PUSH1 0x0 REVERT JUMPDEST PUSH1 0x0 DUP6 DUP2 MSTORE PUSH1 0x4 PUSH1 0x20 MSTORE PUSH1 0x40 SWAP1 KECCAK256 DUP1 SLOAD PUSH1 0x1 PUSH1 0x1 PUSH1 0xA0 SHL SUB NOT AND SWAP1 SSTORE DUP3 DUP2 MSTORE PUSH1 0x3 PUSH1 0x20 MSTORE PUSH1 0x40 DUP2 KECCAK256 DUP1 SLOAD PUSH1 0x0 NOT ADD SWAP1 SSTORE PUSH2 0x11F8 JUMP JUMPDEST SWAP2 POP SWAP2 SWAP3 POP DUP1 PUSH2 0x12DD JUMPI JUMPDEST ISZERO PUSH2 0x12AE JUMPI SWAP1 DUP5 DUP5 SWAP3 CODESIZE PUSH2 0x11CF JUMP JUMPDEST DUP4 SWAP1 DUP6 PUSH2 0x12C7 JUMPI PUSH1 0x24 SWAP2 PUSH4 0x7E273289 PUSH1 0xE0 SHL DUP3 MSTORE PUSH1 0x4 MSTORE REVERT JUMPDEST PUSH1 0x44 SWAP2 PUSH4 0x177E802F PUSH1 0xE0 SHL DUP3 MSTORE CALLER PUSH1 0x4 MSTORE PUSH1 0x24 MSTORE REVERT JUMPDEST POP CALLER DUP6 EQ DUP1 ISZERO PUSH2 0x130B JUMPI JUMPDEST DUP1 PUSH2 0x129F JUMPI POP DUP4 DUP2 MSTORE PUSH1 0x4 PUSH1 0x20 MSTORE PUSH1 0x40 DUP2 KECCAK256 SLOAD PUSH1 0x1 PUSH1 0x1 PUSH1 0xA0 SHL SUB AND CALLER EQ PUSH2 0x129F JUMP JUMPDEST POP DUP5 DUP2 MSTORE PUSH1 0x5 PUSH1 0x20 SWAP1 DUP2 MSTORE PUSH1 0x40 DUP1 DUP4 KECCAK256 CALLER DUP5 MSTORE SWAP1 SWAP2 MSTORE DUP2 KECCAK256 SLOAD PUSH1 0xFF AND PUSH2 0x12E8 JUMP JUMPDEST SWAP3 SWAP2 PUSH2 0x1339 DUP2 DUP4 DUP7 PUSH2 0x1196 JUMP JUMPDEST DUP2 EXTCODESIZE PUSH2 0x1346 JUMPI JUMPDEST POP POP POP POP JUMP JUMPDEST PUSH1 0x40 MLOAD PUSH4 0xA85BD01 PUSH1 0xE1 SHL DUP2 MSTORE CALLER PUSH1 0x4 DUP3 ADD MSTORE PUSH1 0x1 PUSH1 0x1 PUSH1 0xA0 SHL SUB SWAP5 DUP6 AND PUSH1 0x24 DUP3 ADD MSTORE PUSH1 0x44 DUP2 ADD SWAP2 SWAP1 SWAP2 MSTORE PUSH1 0x80 PUSH1 0x64 DUP3 ADD MSTORE SWAP3 AND SWAP2 SWAP1 PUSH1 0x20 SWAP1 DUP3 SWAP1 DUP2 SWAP1 PUSH2 0x1391 SWAP1 PUSH1 0x84 DUP4 ADD SWAP1 PUSH2 0xE6A JUMP JUMPDEST SUB DUP2 PUSH1 0x0 DUP7 GAS CALL DUP1 SWAP2 PUSH1 0x0 SWAP2 PUSH2 0x1430 JUMPI JUMPDEST POP SWAP1 PUSH2 0x13FB JUMPI POP RETURNDATASIZE ISZERO PUSH2 0x13F4 JUMPI RETURNDATASIZE PUSH2 0x13B9 DUP2 PUSH2 0x1143 JUMP JUMPDEST SWAP1 PUSH2 0x13C7 PUSH1 0x40 MLOAD SWAP3 DUP4 PUSH2 0xF2F JUMP JUMPDEST DUP2 MSTORE RETURNDATASIZE PUSH1 0x0 PUSH1 0x20 DUP4 ADD RETURNDATACOPY JUMPDEST DUP1 MLOAD SWAP1 DUP2 PUSH2 0x13EF JUMPI DUP3 PUSH4 0x32505749 PUSH1 0xE1 SHL PUSH1 0x0 MSTORE PUSH1 0x4 MSTORE PUSH1 0x24 PUSH1 0x0 REVERT JUMPDEST PUSH1 0x20 ADD REVERT JUMPDEST PUSH1 0x60 PUSH2 0x13D2 JUMP JUMPDEST PUSH1 0x1 PUSH1 0x1 PUSH1 0xE0 SHL SUB NOT AND PUSH4 0x757A42FF PUSH1 0xE1 SHL ADD PUSH2 0x141C JUMPI POP CODESIZE DUP1 DUP1 DUP1 PUSH2 0x1340 JUMP JUMPDEST PUSH4 0x32505749 PUSH1 0xE1 SHL PUSH1 0x0 MSTORE PUSH1 0x4 MSTORE PUSH1 0x24 PUSH1 0x0 REVERT JUMPDEST PUSH1 0x20 DUP2 RETURNDATASIZE PUSH1 0x20 GT PUSH2 0x1472 JUMPI JUMPDEST DUP2 PUSH2 0x1449 PUSH1 0x20 SWAP4 DUP4 PUSH2 0xF2F JUMP JUMPDEST DUP2 ADD SUB SLT PUSH2 0x146E JUMPI MLOAD SWAP1 PUSH1 0x1 PUSH1 0x1 PUSH1 0xE0 SHL SUB NOT DUP3 AND DUP3 SUB PUSH2 0x146B JUMPI POP CODESIZE PUSH2 0x13A2 JUMP JUMPDEST DUP1 REVERT JUMPDEST POP DUP1 REVERT JUMPDEST RETURNDATASIZE SWAP2 POP PUSH2 0x143C JUMP JUMPDEST PUSH2 0xF89 SWAP1 SWAP3 SWAP2 SWAP3 PUSH1 0x20 PUSH1 0x40 MLOAD SWAP5 DUP3 PUSH2 0x149B DUP8 SWAP5 MLOAD DUP1 SWAP3 DUP6 DUP1 DUP9 ADD SWAP2 ADD PUSH2 0xE47 JUMP JUMPDEST DUP4 ADD PUSH2 0x14AF DUP3 MLOAD DUP1 SWAP4 DUP6 DUP1 DUP6 ADD SWAP2 ADD PUSH2 0xE47 JUMP JUMPDEST ADD ADD SUB PUSH1 0x1F NOT DUP2 ADD DUP5 MSTORE DUP4 PUSH2 0xF2F JUMP JUMPDEST PUSH2 0x14C8 DUP2 PUSH2 0x16BA JUMP JUMPDEST POP DUP1 PUSH1 0x0 MSTORE PUSH1 0x6 PUSH1 0x20 MSTORE PUSH2 0x14DF PUSH1 0x40 PUSH1 0x0 KECCAK256 PUSH2 0x10A1 JUMP JUMPDEST PUSH2 0x14E7 PUSH2 0x171A JUMP JUMPDEST DUP1 MLOAD ISZERO PUSH2 0x16B4 JUMPI DUP2 MLOAD PUSH2 0x16AA JUMPI POP POP PUSH2 0x14FF DUP2 PUSH2 0x16BA JUMP JUMPDEST POP PUSH2 0x1508 PUSH2 0x171A JUMP JUMPDEST DUP1 MLOAD SWAP1 SWAP2 SWAP1 PUSH1 0x0 SWAP1 ISZERO PUSH2 0x1693 JUMPI POP DUP1 DUP2 PUSH1 0x0 SWAP3 PUSH19 0x184F03E93FF9F4DAA797ED6E38ED64BF6A1F01 PUSH1 0x40 SHL DUP2 LT ISZERO PUSH2 0x166D JUMPI JUMPDEST POP DUP1 PUSH14 0x4EE2D6D415B85ACEF8100000000 PUSH1 0xA SWAP3 LT ISZERO PUSH2 0x1652 JUMPI JUMPDEST PUSH7 0x2386F26FC10000 DUP2 LT ISZERO PUSH2 0x163E JUMPI JUMPDEST PUSH4 0x5F5E100 DUP2 LT ISZERO PUSH2 0x162D JUMPI JUMPDEST PUSH2 0x2710 DUP2 LT ISZERO PUSH2 0x161E JUMPI JUMPDEST PUSH1 0x64 DUP2 LT ISZERO PUSH2 0x1610 JUMPI JUMPDEST LT ISZERO PUSH2 0x1605 JUMPI JUMPDEST PUSH1 0xA PUSH1 0x21 PUSH1 0x1 DUP5 ADD SWAP4 PUSH2 0x15A0 DUP6 PUSH2 0x1143 JUMP JUMPDEST SWAP5 PUSH2 0x15AE PUSH1 0x40 MLOAD SWAP7 DUP8 PUSH2 0xF2F JUMP JUMPDEST DUP1 DUP7 MSTORE PUSH2 0x15BD PUSH1 0x1F NOT SWAP2 PUSH2 0x1143 JUMP JUMPDEST ADD CALLDATASIZE PUSH1 0x20 DUP8 ADD CALLDATACOPY DUP5 ADD ADD JUMPDEST PUSH1 0x0 NOT ADD SWAP2 PUSH16 0x181899199A1A9B1B9C1CB0B131B232B3 PUSH1 0x81 SHL DUP3 DUP3 MOD BYTE DUP4 MSTORE8 DIV SWAP1 DUP2 ISZERO PUSH2 0x15F7 JUMPI PUSH1 0xA SWAP1 PUSH2 0x15C8 JUMP JUMPDEST POP POP PUSH2 0x1602 SWAP2 PUSH2 0x147A JUMP JUMPDEST SWAP1 JUMP JUMPDEST PUSH1 0x1 SWAP1 SWAP2 ADD SWAP1 PUSH2 0x158E JUMP JUMPDEST PUSH1 0x64 PUSH1 0x2 SWAP2 DIV SWAP4 ADD SWAP3 PUSH2 0x1587 JUMP JUMPDEST PUSH2 0x2710 PUSH1 0x4 SWAP2 DIV SWAP4 ADD SWAP3 PUSH2 0x157D JUMP JUMPDEST PUSH4 0x5F5E100 PUSH1 0x8 SWAP2 DIV SWAP4 ADD SWAP3 PUSH2 0x1572 JUMP JUMPDEST PUSH7 0x2386F26FC10000 PUSH1 0x10 SWAP2 DIV SWAP4 ADD SWAP3 PUSH2 0x1565 JUMP JUMPDEST PUSH14 0x4EE2D6D415B85ACEF8100000000 PUSH1 0x20 SWAP2 DIV SWAP4 ADD SWAP3 PUSH2 0x1555 JUMP JUMPDEST PUSH1 0x40 SWAP4 POP PUSH19 0x184F03E93FF9F4DAA797ED6E38ED64BF6A1F01 PUSH1 0x40 SHL SWAP1 DIV SWAP1 POP PUSH1 0xA PUSH2 0x153A JUMP JUMPDEST SWAP2 POP POP PUSH1 0x40 MLOAD SWAP1 PUSH2 0x16A5 PUSH1 0x20 DUP4 PUSH2 0xF2F JUMP JUMPDEST DUP2 MSTORE SWAP1 JUMP JUMPDEST PUSH2 0x1602 SWAP3 POP PUSH2 0x147A JUMP JUMPDEST POP SWAP1 POP SWAP1 JUMP JUMPDEST PUSH1 0x0 DUP2 DUP2 MSTORE PUSH1 0x2 PUSH1 0x20 MSTORE PUSH1 0x40 SWAP1 KECCAK256 SLOAD PUSH1 0x1 PUSH1 0x1 PUSH1 0xA0 SHL SUB AND SWAP1 DUP2 ISZERO PUSH2 0x16DD JUMPI POP SWAP1 JUMP JUMPDEST PUSH4 0x7E273289 PUSH1 0xE0 SHL PUSH1 0x0 MSTORE PUSH1 0x4 MSTORE PUSH1 0x24 PUSH1 0x0 REVERT JUMPDEST PUSH1 0x7 SLOAD PUSH1 0x1 PUSH1 0x1 PUSH1 0xA0 SHL SUB AND CALLER SUB PUSH2 0x1705 JUMPI JUMP JUMPDEST PUSH4 0x118CDAA7 PUSH1 0xE0 SHL PUSH1 0x0 MSTORE CALLER PUSH1 0x4 MSTORE PUSH1 0x24 PUSH1 0x0 REVERT JUMPDEST PUSH1 0x40 MLOAD SWAP1 PUSH2 0x1729 PUSH1 0x40 DUP4 PUSH2 0xF2F JUMP JUMPDEST PUSH1 0x16 DUP3 MSTORE PUSH22 0x687474703A2F2F6C6F63616C686F73743A333030312F PUSH1 0x50 SHL PUSH1 0x20 DUP4 ADD MSTORE JUMP INVALID LOG2 PUSH5 0x6970667358 0x22 SLT KECCAK256 PUSH31 0x3481015DAF0B16B3EE7E37552C371D1D41C204D373EB8107A33107C6E08C9A PUSH5 0x736F6C6343 STOP ADDMOD SHL STOP CALLER "},"methodIdentifiers":{"approve(address,uint256)":"095ea7b3","balanceOf(address)":"70a08231","cardCount()":"1b6cde10","cards(uint256)":"8dc10768","collectionName()":"e5326ab1","getApproved(uint256)":"081812fc","getCards()":"b0df9e53","getId()":"5d1ca631","getLogo()":"0b6700d6","id()":"af640d0f","img()":"426bfd00","isApprovedForAll(address,address)":"e985e9c5","mintCard(address,string)":"cd7e53cc","name()":"06fdde03","owner()":"8da5cb5b","ownerOf(uint256)":"6352211e","renounceOwnership()":"715018a6","safeTransferFrom(address,address,uint256)":"42842e0e","safeTransferFrom(address,address,uint256,bytes)":"b88d4fde","setApprovalForAll(address,bool)":"a22cb465","supportsInterface(bytes4)":"01ffc9a7","symbol()":"95d89b41","tokenURI(uint256)":"c87b56dd","transferFrom(address,address,uint256)":"23b872dd","transferOwnership(address)":"f2fde38b"}}}}}