{
  "_format": "hh-sol-artifact-1",
  "contractName": "Main",
  "sourceName": "contracts/src/Main.sol",
  "abi": [
    {
      "inputs": [],
      "stateMutability": "nonpayable",
      "type": "constructor"
    },
    {
      "inputs": [
        {
          "internalType": "address",
          "name": "owner",
          "type": "address"
        }
      ],
      "name": "OwnableInvalidOwner",
      "type": "error"
    },
    {
      "inputs": [
        {
          "internalType": "address",
          "name": "account",
          "type": "address"
        }
      ],
      "name": "OwnableUnauthorizedAccount",
      "type": "error"
    },
    {
      "anonymous": false,
      "inputs": [
        {
          "indexed": true,
          "internalType": "address",
          "name": "previousOwner",
          "type": "address"
        },
        {
          "indexed": true,
          "internalType": "address",
          "name": "newOwner",
          "type": "address"
        }
      ],
      "name": "OwnershipTransferred",
      "type": "event"
    },
    {
      "inputs": [
        {
          "internalType": "string",
          "name": "id",
          "type": "string"
        },
        {
          "internalType": "string",
          "name": "name",
          "type": "string"
        },
        {
          "internalType": "string",
          "name": "img",
          "type": "string"
        },
        {
          "internalType": "uint256",
          "name": "cardCount",
          "type": "uint256"
        },
        {
          "components": [
            {
              "internalType": "uint256",
              "name": "id",
              "type": "uint256"
            },
            {
              "internalType": "string",
              "name": "name",
              "type": "string"
            },
            {
              "internalType": "string",
              "name": "uri",
              "type": "string"
            }
          ],
          "internalType": "struct Collection.Card[]",
          "name": "_cards",
          "type": "tuple[]"
        }
      ],
      "name": "createCollectionWithCards",
      "outputs": [],
      "stateMutability": "nonpayable",
      "type": "function"
    },
    {
      "inputs": [
        {
          "internalType": "string",
          "name": "id",
          "type": "string"
        }
      ],
      "name": "getCardsInCollection",
      "outputs": [
        {
          "components": [
            {
              "internalType": "uint256",
              "name": "id",
              "type": "uint256"
            },
            {
              "internalType": "string",
              "name": "name",
              "type": "string"
            },
            {
              "internalType": "string",
              "name": "uri",
              "type": "string"
            }
          ],
          "internalType": "struct Collection.Card[]",
          "name": "",
          "type": "tuple[]"
        }
      ],
      "stateMutability": "view",
      "type": "function"
    },
    {
      "inputs": [
        {
          "internalType": "string",
          "name": "id",
          "type": "string"
        }
      ],
      "name": "getCollectionById",
      "outputs": [
        {
          "internalType": "contract Collection",
          "name": "",
          "type": "address"
        }
      ],
      "stateMutability": "view",
      "type": "function"
    },
    {
      "inputs": [],
      "name": "getCollections",
      "outputs": [
        {
          "internalType": "contract Collection[]",
          "name": "",
          "type": "address[]"
        }
      ],
      "stateMutability": "view",
      "type": "function"
    },
    {
      "inputs": [
        {
          "internalType": "address",
          "name": "to",
          "type": "address"
        }
      ],
      "name": "getUserCardsDetailed",
      "outputs": [
        {
          "components": [
            {
              "internalType": "uint256",
              "name": "id",
              "type": "uint256"
            },
            {
              "internalType": "string",
              "name": "name",
              "type": "string"
            },
            {
              "internalType": "string",
              "name": "uri",
              "type": "string"
            }
          ],
          "internalType": "struct Collection.Card[]",
          "name": "",
          "type": "tuple[]"
        }
      ],
      "stateMutability": "view",
      "type": "function"
    },
    {
      "inputs": [
        {
          "internalType": "string",
          "name": "collectionId",
          "type": "string"
        },
        {
          "internalType": "address",
          "name": "to",
          "type": "address"
        },
        {
          "components": [
            {
              "internalType": "uint256",
              "name": "id",
              "type": "uint256"
            },
            {
              "internalType": "string",
              "name": "name",
              "type": "string"
            },
            {
              "internalType": "string",
              "name": "uri",
              "type": "string"
            }
          ],
          "internalType": "struct Collection.Card",
          "name": "card",
          "type": "tuple"
        }
      ],
      "name": "mint",
      "outputs": [
        {
          "internalType": "uint256",
          "name": "",
          "type": "uint256"
        }
      ],
      "stateMutability": "nonpayable",
      "type": "function"
    },
    {
      "inputs": [],
      "name": "owner",
      "outputs": [
        {
          "internalType": "address",
          "name": "",
          "type": "address"
        }
      ],
      "stateMutability": "view",
      "type": "function"
    },
    {
      "inputs": [],
      "name": "renounceOwnership",
      "outputs": [],
      "stateMutability": "nonpayable",
      "type": "function"
    },
    {
      "inputs": [
        {
          "internalType": "address",
          "name": "newOwner",
          "type": "address"
        }
      ],
      "name": "transferOwnership",
      "outputs": [],
      "stateMutability": "nonpayable",
      "type": "function"
    }
  ],
  "bytecode": "0x6080806040523460725760008054738626f6940e2eb28930efb4cef49b2d1f2c9c11996001600160a01b0319821681178355916001600160a01b03909116907f8be0079c531659141344cd1fd0a4f28419497f9722a3daafe3b4186f6b6457e09080a36001805561339990816100788239f35b600080fdfe6080604052600436101561001257600080fd5b60003560e01c806304b75662146109085780631738f7111461075257806346e635861461066f578063715018a6146106165780637b287a47146105b95780638da5cb5b14610590578063e03c83a6146101cf578063ed2b3e321461010d5763f2fde38b1461007f57600080fd5b3461010857602036600319011261010857610098610d60565b6100a0610ecc565b6001600160a01b031680156100f257600080546001600160a01b03198116831782556001600160a01b0316907f8be0079c531659141344cd1fd0a4f28419497f9722a3daafe3b4186f6b6457e09080a3005b631e4fbdf760e01b600052600060045260246000fd5b600080fd5b34610108576020366003190112610108576001600160a01b0361012e610d60565b1660005260046020526040600020805461014781610bb3565b916101556040519384610b92565b818352602083019060005260206000206000915b83831061018a576040516020808252819061018690820188610cdd565b0390f35b6003602060019260405161019d81610b77565b855481526101ac858701610e28565b838201526101bc60028701610e28565b6040820152815201920192019190610169565b34610108576060366003190112610108576004356001600160401b038111610108576101ff903690600401610b4a565b6024356001600160a01b03811692919083900361010857604435916001600160401b038311610108576102386000933690600401610c2c565b91610241610ecc565b806040519283378101906003825260208160018060a01b03930301902054169260206102976040840195865160405196878094819363335f94f360e21b8352886004840152604060248401526044830190610cb8565b03925af192831561058457600093610550575b506000526004602052604060002080549068010000000000000000821015610466576001820180825582101561053a576000526003602060002091020190805182556020600183019101518051906001600160401b038211610466576103108354610dee565b601f81116104f2575b50602090601f8311600114610487576002949392916000918361047c575b50508160011b916000199060031b1c19161790555b019151908151926001600160401b0384116104665761036b8154610dee565b93601f851161041e575b602094508493601f82116001146103bb5793819293946000926103b0575b50508160011b916000199060031b1c19161790555b604051908152f35b015190508580610393565b601f1982169483600052806000209160005b8781106104075750836001959697106103ee575b505050811b0190556103a8565b015160001960f88460031b161c191690558580806103e1565b9192886001819286850151815501940192016103cd565b816000526020600020601f820160051c8101956020831061045c575b601f0160051c01945b8581106104505750610375565b60008155600101610443565b909550859061043a565b634e487b7160e01b600052604160045260246000fd5b015190508780610337565b90601f1983169184600052816000209260005b8181106104da5750916001939185600298979694106104c1575b505050811b01905561034c565b015160001960f88460031b161c191690558780806104b4565b9293602060018192878601518155019501930161049a565b836000526020600020601f840160051c81019160208510610530575b601f0160051c01905b8181106105245750610319565b60008155600101610517565b909150819061050e565b634e487b7160e01b600052603260045260246000fd5b9092506020813d60201161057c575b8161056c60209383610b92565b81010312610108575191846102aa565b3d915061055f565b6040513d6000823e3d90fd5b34610108576000366003190112610108576000546040516001600160a01b039091168152602090f35b34610108576020366003190112610108576004356001600160401b0381116101085760206105ec81923690600401610b4a565b9190826040519384928337600390820190815203019020546040516001600160a01b039091168152f35b346101085760003660031901126101085761062f610ecc565b600080546001600160a01b0319811682556001600160a01b03167f8be0079c531659141344cd1fd0a4f28419497f9722a3daafe3b4186f6b6457e08280a3005b346101085760003660031901126101085760015461068c81610d97565b906106af61069983610bb3565b926106a76040519485610b92565b808452610bb3565b602083019190601f190136833760015b8181126107145782846040519182916020830190602084525180915260408301919060005b8181106106f2575050500390f35b82516001600160a01b03168452859450602093840193909201916001016106e4565b6000818152600260205260409020546001600160a01b03169061073681610d97565b91855183101561053a57602060019360051b87010152016106bf565b34610108576020366003190112610108576004356001600160401b03811161010857600061078560049236908401610b4a565b80604051928337600390820190815281900360200190205460405163b0df9e5360e01b815292839182906001600160a01b03165afa908115610584576000916107df575b6040516020808252819061018690820185610cdd565b3d8083833e6107ee8183610b92565b810190602081830312610900578051906001600160401b038211610904570181601f820112156109005780519261082484610bb3565b926108326040519485610b92565b84845260208085019560051b840101928184116109005760208101955b8487106108665750505050506101869150906107c9565b86516001600160401b0381116108fc5782016060818503601f1901126108fc576040519061089382610b77565b6020810151825260408101516001600160401b0381116108f8578560206108bc92840101610da9565b60208301526060810151906001600160401b0382116108f857916108e886602080969481960101610da9565b604082015281520196019561084f565b8680fd5b8480fd5b8280fd5b8380fd5b346101085760a0366003190112610108576004356001600160401b03811161010857610938903690600401610b4a565b6024356001600160401b03811161010857610957903690600401610b4a565b906044356001600160401b03811161010857610977903690600401610b4a565b6084929192356001600160401b03811161010857366023820112156101085780600401356109a481610bb3565b916109b26040519384610b92565b8183526024602084019260051b820101903682116101085760248101925b828410610b1b57505050506109e3610ecc565b6040519461246e94858701938785106001600160401b0386111761046657610a3a610a5e96610a48948a99610ef68b3960c08852610a268d8d60c08b0191610d76565b913060208a015288830360408a0152610d76565b918583036060870152610d76565b91606435608082015260a0818403910152610cdd565b03906000f08015610584576001546001600160ff1b038114610b055760018101600155600052600260205260406000209060018060a01b03166bffffffffffffffffffffffff60a01b825416179055610ab8600154610d97565b6000526002602052602060018060a01b03604060002054169282604051938492833760039082019081520301902080546001600160a01b0319166001600160a01b03909216919091179055005b634e487b7160e01b600052601160045260246000fd5b83356001600160401b03811161010857602091610b3f839260243691870101610c2c565b8152019301926109d0565b9181601f84011215610108578235916001600160401b038311610108576020838186019501011161010857565b606081019081106001600160401b0382111761046657604052565b90601f801991011681019081106001600160401b0382111761046657604052565b6001600160401b0381116104665760051b60200190565b6001600160401b03811161046657601f01601f191660200190565b81601f8201121561010857803590610bfc82610bca565b92610c0a6040519485610b92565b8284526020838301011161010857816000926020809301838601378301015290565b91906060838203126101085760405190610c4582610b77565b81938035835260208101356001600160401b0381116101085782610c6a918301610be5565b60208401526040810135916001600160401b03831161010857604092610c909201610be5565b910152565b60005b838110610ca85750506000910152565b8181015183820152602001610c98565b90602091610cd181518092818552858086019101610c95565b601f01601f1916010190565b9080602083519182815201916020808360051b8301019401926000915b838310610d0957505050505090565b9091929394602080610d51600193601f19868203018752895190815181526040610d40858401516060878501526060840190610cb8565b920151906040818403910152610cb8565b97019301930191939290610cfa565b600435906001600160a01b038216820361010857565b908060209392818452848401376000828201840152601f01601f1916010190565b906000198201918213600116610b0557565b81601f82011215610108578051610dbf81610bca565b92610dcd6040519485610b92565b8184526020828401011161010857610deb9160208085019101610c95565b90565b90600182811c92168015610e1e575b6020831014610e0857565b634e487b7160e01b600052602260045260246000fd5b91607f1691610dfd565b9060405191826000825492610e3c84610dee565b8084529360018116908115610eaa5750600114610e63575b50610e6192500383610b92565b565b90506000929192526020600020906000915b818310610e8e575050906020610e619282010138610e54565b6020919350806001915483858901015201910190918492610e75565b905060209250610e6194915060ff191682840152151560051b82010138610e54565b6000546001600160a01b03163303610ee057565b63118cdaa760e01b6000523360045260246000fdfe608060405234610c545761246e8038038061001981610c59565b928339810160c082820312610c545781516001600160401b038111610c545781610044918401610c7e565b602083015190926001600160a01b03821691829003610c545760408101516001600160401b038111610c54578361007c918301610c7e565b60608201516001600160401b038111610c54578461009b918401610c7e565b9460808301519260a08101519060018060401b038211610c5457019480601f87011215610c54578551956001600160401b0387116107e2578660051b6020806100e5818401610c59565b809a8152019183010191838311610c545760208101915b838310610bb257505050505060409361011485610c59565b600381526254434760e81b602082015283516001600160401b0381116107e257600054600181811c91168015610ba8575b60208210146107c257601f8111610b44575b50806020601f8211600114610ae057600091610ad5575b508160011b916000199060031b1c1916176000555b8051906001600160401b0382116107e25760015490600182811c92168015610acb575b60208310146107c25781601f849311610a5b575b50602090601f83116001146109f3576000926109e8575b50508160011b916000199060031b1c1916176001555b80156109d257600780546001600160a01b0319811683179091556001600160a01b03167f8be0079c531659141344cd1fd0a4f28419497f9722a3daafe3b4186f6b6457e0600080a38051906001600160401b0382116107e257600c5490600182811c921680156109c8575b60208310146107c25781601f849311610958575b50602090601f83116001146108f0576000926108e5575b50508160011b916000199060031b1c191617600c555b8051906001600160401b0382116107e25760085490600182811c921680156108db575b60208310146107c25781601f84931161086b575b50602090601f8311600114610803576000926107f8575b50508160011b916000199060031b1c1916176008555b83516001600160401b0381116107e257600954600181811c911680156107d8575b60208210146107c257601f811161075d575b50602094601f82116001146106f3579481929394956000926106e8575b50508160011b916000199060031b1c1916176009559190915b600a556000915b81518310156106db5760009260208160051b84010151600d54680100000000000000008110156106c7576001810180600d558110156106b357600d865281516003919091027fd7b6990105719101dabeb77144f2a3385c8033acd3af97e9423a695e81ad1eb58101918255602083015180519092917fd7b6990105719101dabeb77144f2a3385c8033acd3af97e9423a695e81ad1eb601906001600160401b03811161069f578154600181811c91168015610695575b6020821014610681579081601f899594931161062d575b50602094601f82116001146105c5576002949582918c926105ba575b50508160011b916000199060031b1c19161790555b0191015180519060018060401b0382116105a6578254600181811c9116801561059c575b602082101461058857601f8111610543575b50602090601f83116001146104df579082916001969798926104d4575b5050600019600383901b1c191690841b1790555b019190610367565b0151905038806104b8565b601f198316848952828920985b81811061052b5750916001969798918488959410610512575b505050811b0190556104cc565b015160001960f88460031b161c19169055388080610505565b92986020600181928c8601518155019a0193016104ec565b83885260208820601f840160051c8101916020851061057e575b601f0160051c01905b818110610573575061049b565b888155600101610566565b909150819061055d565b634e487b7160e01b88526022600452602488fd5b90607f1690610489565b634e487b7160e01b87526041600452602487fd5b015190503880610450565b828b52858b2090601f1983168c5b81811061061257509683929160019460029899106105f9575b505050811b019055610465565b015160001960f88460031b161c191690553880806105ec565b8289015184556020988901988c9850600190940193016105d3565b9091809394508a5260208a20601f830160051c81019160208410610677575b90601f8a96959493920160051c01905b8181106106695750610434565b8b815589955060010161065c565b909150819061064c565b634e487b7160e01b8a52602260045260248afd5b90607f169061041d565b634e487b7160e01b89526041600452602489fd5b634e487b7160e01b86526032600452602486fd5b634e487b7160e01b86526041600452602486fd5b516117849081610cea8239f35b015190503880610347565b601f198216956009600052806000209160005b8881106107455750836001959697981061072c575b505050811b01600955919091610360565b015160001960f88460031b161c1916905538808061071b565b91926020600181928685015181550194019201610706565b60096000527f6e1540171b6c0c960b71a7020d9f60077f6af931a8bbf590da0223dacf75c7af601f830160051c810191602084106107b8575b601f0160051c01905b8181106107ac575061032a565b6000815560010161079f565b9091508190610796565b634e487b7160e01b600052602260045260246000fd5b90607f1690610318565b634e487b7160e01b600052604160045260246000fd5b0151905038806102e1565b600860009081528281209350601f198516905b818110610853575090846001959493921061083a575b505050811b016008556102f7565b015160001960f88460031b161c1916905538808061082c565b92936020600181928786015181550195019301610816565b60086000529091507ff3f7a9fe364faab93b216da50a3214154f22a0a2b415b23a84c8169e8b636ee3601f840160051c810191602085106108d1575b90601f859493920160051c01905b8181106108c257506102ca565b600081558493506001016108b5565b90915081906108a7565b91607f16916102b6565b01519050388061027d565b600c60009081528281209350601f198516905b8181106109405750908460019594939210610927575b505050811b01600c55610293565b015160001960f88460031b161c19169055388080610919565b92936020600181928786015181550195019301610903565b600c6000529091507fdf6966c971051c3d54ec59162606531493a51404a002842f56009d7e5cf4a8c7601f840160051c810191602085106109be575b90601f859493920160051c01905b8181106109af5750610266565b600081558493506001016109a2565b9091508190610994565b91607f1691610252565b631e4fbdf760e01b600052600060045260246000fd5b0151905038806101d1565b600160009081528281209350601f198516905b818110610a435750908460019594939210610a2a575b505050811b016001556101e7565b015160001960f88460031b161c19169055388080610a1c565b92936020600181928786015181550195019301610a06565b60016000529091507fb10e2d527612073b26eecdfd717e6a320cf44b4afac2b0732d9fcbe2b7fa0cf6601f840160051c81019160208510610ac1575b90601f859493920160051c01905b818110610ab257506101ba565b60008155849350600101610aa5565b9091508190610a97565b91607f16916101a6565b90508501513861016e565b60008080528181209250601f198416905b818110610b2c57509083600194939210610b13575b5050811b01600055610183565b87015160001960f88460031b161c191690553880610b06565b9192602060018192868c015181550194019201610af1565b600080527f290decd9548b62a8d60345a988386fc84ba6bc95484008f6362f93160ef3e563601f830160051c81019160208410610b9e575b601f0160051c01905b818110610b925750610157565b60008155600101610b85565b9091508190610b7c565b90607f1690610145565b82516001600160401b038111610c54578201906060828703601f190112610c545760405190606082016001600160401b038111838210176107e2576040908152602084015183528301516001600160401b038111610c5457876020610c1992860101610c7e565b60208301526060830151916001600160401b038311610c5457610c4488602080969581960101610c7e565b60408201528152019201916100fc565b600080fd5b6040519190601f01601f191682016001600160401b038111838210176107e257604052565b81601f82011215610c54578051906001600160401b0382116107e257610cad601f8301601f1916602001610c59565b9282845260208383010111610c545760005b828110610cd457505060206000918301015290565b80602080928401015182828701015201610cbf56fe608080604052600436101561001357600080fd5b60003560e01c90816301ffc9a714610dc25750806306fdde0314610d1d578063081812fc14610cdf578063095ea7b314610bf05780630b6700d614610b9f5780631b6cde1014610bd257806323b872dd14610bbb578063426bfd0014610b9f57806342842e0e14610b755780635d1ca631146108365780636352211e14610b4557806370a0823114610aef578063715018a614610a925780638da5cb5b14610a695780638dc107681461099b57806395d89b41146108f3578063a22cb46514610852578063af640d0f14610836578063b0df9e53146106db578063b88d4fde14610679578063c87b56dd1461065a578063cd7e53cc14610301578063e5326ab11461021c578063e985e9c5146101c15763f2fde38b1461013257600080fd5b346101bc5760203660031901126101bc5761014b610e8f565b6101536116f1565b6001600160a01b031680156101a657600780546001600160a01b0319811683179091556001600160a01b03167f8be0079c531659141344cd1fd0a4f28419497f9722a3daafe3b4186f6b6457e0600080a3005b631e4fbdf760e01b600052600060045260246000fd5b600080fd5b346101bc5760403660031901126101bc576101da610e8f565b6101e2610ea5565b9060018060a01b0316600052600560205260406000209060018060a01b0316600052602052602060ff604060002054166040519015158152f35b346101bc5760003660031901126101bc57604051600060085461023e81610ef5565b80845290600181169081156102dd575060011461027e575b61027a8361026681850382610f2f565b604051918291602083526020830190610e6a565b0390f35b600860009081527ff3f7a9fe364faab93b216da50a3214154f22a0a2b415b23a84c8169e8b636ee3939250905b8082106102c357509091508101602001610266610256565b9192600181602092548385880101520191019092916102ab565b60ff191660208086019190915291151560051b840190910191506102669050610256565b346101bc5760403660031901126101bc5761031a610e8f565b60243567ffffffffffffffff81116101bc57366023820112156101bc5761034b90369060248160040135910161115f565b906103546116f1565b600b54600019811461064457600101600b819055906001600160a01b0316801561062e5760009082825260026020528260018060a01b0360408420541691827fddf252ad1be2c89b69c2b068fc378daa952ba7f163c4a11628f55a4df523b3ef81151595866105f9575b83815260036020526040812060018154019055848152600260205260408120846bffffffffffffffffffffffff60a01b82541617905580a4506105e35780600052600660205260406000209180519267ffffffffffffffff84116105cd576104268154610ef5565b93601f8511610585575b602094508085601f821160011461052357600091610518575b508160011b916000199060031b1c19161790555b7ff8e1a15aba9398e019f0b49df1a4fde98ee17ae345cb5f6b5e2c27f5033e8ce783604051848152a16000806040926104ed61050185519261049f8785610f2f565b6009845268026b4b73a32b2101d160bd1b8985015286519283916104db8b840196635821efa160e01b8852606060248601526084850190610e6a565b83810360231901604485015290610e6a565b88606483015203601f198101835282610f2f565b51906a636f6e736f6c652e6c6f675afa5051908152f35b905083015186610449565b60008481528181209250601f198416905b81811061056e57509083600194939210610555575b5050811b01905561045d565b85015160001960f88460031b161c191690558680610549565b91928860018192868a015181550194019201610534565b816000526020600020601f820160051c810195602083106105c3575b601f0160051c01945b8581106105b75750610430565b600081556001016105aa565b90955085906105a1565b634e487b7160e01b600052604160045260246000fd5b6339e3563760e11b600052600060045260246000fd5b600085815260046020526040902080546001600160a01b031916905582815260036020526040812080546000190190556103be565b633250574960e11b600052600060045260246000fd5b634e487b7160e01b600052601160045260246000fd5b346101bc5760203660031901126101bc5761027a6102666004356114bf565b346101bc5760803660031901126101bc57610692610e8f565b61069a610ea5565b6064359167ffffffffffffffff83116101bc57366023840112156101bc576106cf6106d993369060248160040135910161115f565b916044359161132c565b005b346101bc5760003660031901126101bc57600d5467ffffffffffffffff81116105cd576040519061071260208260051b0183610f2f565b808252602082018091600d6000527fd7b6990105719101dabeb77144f2a3385c8033acd3af97e9423a695e81ad1eb5916000905b8282106107de57848660405191829160208301906020845251809152604083019060408160051b85010192916000905b82821061078557505050500390f35b919360019193955060206107ce8192603f198a82030186528851908151815260406107bd858401516060878501526060840190610e6a565b920151906040818403910152610e6a565b9601920192018594939192610776565b6040516060810181811067ffffffffffffffff8211176105cd57600192600392602092604052875481526108138589016110a1565b83820152610823600289016110a1565b6040820152815201940191019092610746565b346101bc5760003660031901126101bc5761027a61026661100a565b346101bc5760403660031901126101bc5761086b610e8f565b602435908115158092036101bc576001600160a01b03169081156108de57336000526005602052604060002082600052602052604060002060ff1981541660ff83161790556040519081527f17307eab39ab6107e8899845ad3d59bd9653f200f220920489ca2b5937696c3160203392a3005b50630b61174360e31b60005260045260246000fd5b346101bc5760003660031901126101bc57604051600060015461091581610ef5565b80845290600181169081156102dd575060011461093c5761027a8361026681850382610f2f565b600160009081527fb10e2d527612073b26eecdfd717e6a320cf44b4afac2b0732d9fcbe2b7fa0cf6939250905b80821061098157509091508101602001610266610256565b919260018160209254838588010152019101909291610969565b346101bc5760203660031901126101bc57600435600d548110156101bc57600390600d60005202807fd7b6990105719101dabeb77144f2a3385c8033acd3af97e9423a695e81ad1eb5015461027a610a3f7fd7b6990105719101dabeb77144f2a3385c8033acd3af97e9423a695e81ad1eb7610a387fd7b6990105719101dabeb77144f2a3385c8033acd3af97e9423a695e81ad1eb686016110a1565b94016110a1565b610a5b6040519485948552606060208601526060850190610e6a565b908382036040850152610e6a565b346101bc5760003660031901126101bc576007546040516001600160a01b039091168152602090f35b346101bc5760003660031901126101bc57610aab6116f1565b600780546001600160a01b031981169091556000906001600160a01b03167f8be0079c531659141344cd1fd0a4f28419497f9722a3daafe3b4186f6b6457e08280a3005b346101bc5760203660031901126101bc576001600160a01b03610b10610e8f565b168015610b2f5760005260036020526020604060002054604051908152f35b6322718ad960e21b600052600060045260246000fd5b346101bc5760203660031901126101bc576020610b636004356116ba565b6040516001600160a01b039091168152f35b346101bc576106d9610b8636610ebb565b9060405192610b96602085610f2f565b6000845261132c565b346101bc5760003660031901126101bc5761027a610266610f51565b346101bc576106d9610bcc36610ebb565b91611196565b346101bc5760003660031901126101bc576020600a54604051908152f35b346101bc5760403660031901126101bc57610c09610e8f565b602435610c15816116ba565b33151580610ccc575b80610c9e575b610c895781906001600160a01b0384811691167f8c5be1e5ebec7d5bd14f71427d1e84f3dd0314c0f7b2291e5b200ac8c7c3b925600080a4600090815260046020526040902080546001600160a01b0319166001600160a01b03909216919091179055005b63a9fbf51f60e01b6000523360045260246000fd5b506001600160a01b038116600090815260056020908152604080832033845290915290205460ff1615610c24565b506001600160a01b038116331415610c1e565b346101bc5760203660031901126101bc57600435610cfc816116ba565b506000526004602052602060018060a01b0360406000205416604051908152f35b346101bc5760003660031901126101bc5760405160008054610d3e81610ef5565b80845290600181169081156102dd5750600114610d655761027a8361026681850382610f2f565b60008080527f290decd9548b62a8d60345a988386fc84ba6bc95484008f6362f93160ef3e563939250905b808210610da857509091508101602001610266610256565b919260018160209254838588010152019101909291610d90565b346101bc5760203660031901126101bc576004359063ffffffff60e01b82168092036101bc57602091632483248360e11b8114908115610e04575b5015158152f35b6380ac58cd60e01b811491508115610e36575b8115610e25575b5083610dfd565b6301ffc9a760e01b14905083610e1e565b635b5e139f60e01b81149150610e17565b60005b838110610e5a5750506000910152565b8181015183820152602001610e4a565b90602091610e8381518092818552858086019101610e47565b601f01601f1916010190565b600435906001600160a01b03821682036101bc57565b602435906001600160a01b03821682036101bc57565b60609060031901126101bc576004356001600160a01b03811681036101bc57906024356001600160a01b03811681036101bc579060443590565b90600182811c92168015610f25575b6020831014610f0f57565b634e487b7160e01b600052602260045260246000fd5b91607f1691610f04565b90601f8019910116810190811067ffffffffffffffff8211176105cd57604052565b6040519060008260095491610f6583610ef5565b8083529260018116908115610feb5750600114610f8b575b610f8992500383610f2f565b565b506009600090815290917f6e1540171b6c0c960b71a7020d9f60077f6af931a8bbf590da0223dacf75c7af5b818310610fcf575050906020610f8992820101610f7d565b6020919350806001915483858901015201910190918492610fb7565b60209250610f8994915060ff191682840152151560051b820101610f7d565b60405190600082600c549161101e83610ef5565b8083529260018116908115610feb575060011461104157610f8992500383610f2f565b50600c600090815290917fdf6966c971051c3d54ec59162606531493a51404a002842f56009d7e5cf4a8c75b818310611085575050906020610f8992820101610f7d565b602091935080600191548385890101520191019091849261106d565b90604051918260008254926110b584610ef5565b808452936001811690811561112157506001146110da575b50610f8992500383610f2f565b90506000929192526020600020906000915b818310611105575050906020610f8992820101386110cd565b60209193508060019154838589010152019101909184926110ec565b905060209250610f8994915060ff191682840152151560051b820101386110cd565b67ffffffffffffffff81116105cd57601f01601f191660200190565b92919261116b82611143565b916111796040519384610f2f565b8294818452818301116101bc578281602093846000960137010152565b6001600160a01b039091169190821561062e576000828152600260205260408120546001600160a01b0316938391859033151580611294575b507fddf252ad1be2c89b69c2b068fc378daa952ba7f163c4a11628f55a4df523b3ef908261125f575b83815260036020526040812060018154019055848152600260205260408120846bffffffffffffffffffffffff60a01b82541617905580a46001600160a01b031680830361124557505050565b6364283d7b60e01b60005260045260245260445260646000fd5b600085815260046020526040902080546001600160a01b031916905582815260036020526040812080546000190190556111f8565b9150919250806112dd575b156112ae5790848492386111cf565b8390856112c757602491637e27328960e01b8252600452fd5b60449163177e802f60e01b825233600452602452fd5b50338514801561130b575b8061129f5750838152600460205260408120546001600160a01b0316331461129f565b5084815260056020908152604080832033845290915281205460ff166112e8565b9291611339818386611196565b813b611346575b50505050565b604051630a85bd0160e11b81523360048201526001600160a01b0394851660248201526044810191909152608060648201529216919060209082908190611391906084830190610e6a565b03816000865af18091600091611430575b50906113fb57503d156113f4573d6113b981611143565b906113c76040519283610f2f565b81523d6000602083013e5b805190816113ef5782633250574960e11b60005260045260246000fd5b602001fd5b60606113d2565b6001600160e01b03191663757a42ff60e11b0161141c575038808080611340565b633250574960e11b60005260045260246000fd5b6020813d602011611472575b8161144960209383610f2f565b8101031261146e5751906001600160e01b03198216820361146b5750386113a2565b80fd5b5080fd5b3d915061143c565b610f89909291926020604051948261149b8794518092858088019101610e47565b83016114af82518093858085019101610e47565b010103601f198101845283610f2f565b6114c8816116ba565b508060005260066020526114df60406000206110a1565b6114e761171a565b8051156116b45781516116aa5750506114ff816116ba565b5061150861171a565b8051909190600090156116935750808160009272184f03e93ff9f4daa797ed6e38ed64bf6a1f0160401b81101561166d575b50806d04ee2d6d415b85acef8100000000600a921015611652575b662386f26fc1000081101561163e575b6305f5e10081101561162d575b61271081101561161e575b6064811015611610575b1015611605575b600a602160018401936115a085611143565b946115ae6040519687610f2f565b8086526115bd601f1991611143565b013660208701378401015b60001901916f181899199a1a9b1b9c1cb0b131b232b360811b8282061a8353049081156115f757600a906115c8565b50506116029161147a565b90565b60019091019061158e565b606460029104930192611587565b6127106004910493019261157d565b6305f5e10060089104930192611572565b662386f26fc1000060109104930192611565565b6d04ee2d6d415b85acef810000000060209104930192611555565b6040935072184f03e93ff9f4daa797ed6e38ed64bf6a1f0160401b90049050600a61153a565b915050604051906116a5602083610f2f565b815290565b611602925061147a565b50905090565b6000818152600260205260409020546001600160a01b03169081156116dd575090565b637e27328960e01b60005260045260246000fd5b6007546001600160a01b0316330361170557565b63118cdaa760e01b6000523360045260246000fd5b60405190611729604083610f2f565b6016825275687474703a2f2f6c6f63616c686f73743a333030312f60501b602083015256fea26469706673582212207e3481015daf0b16b3ee7e37552c371d1d41c204d373eb8107a33107c6e08c9a64736f6c634300081b0033a264697066735822122058a5c422157133a66e2f828b4bbca3584411d6eeb849d6ccfdcc793502fdd74c64736f6c634300081b0033",
  "linkReferences": {},
  "deployedLinkReferences": {}
}