{
  "_format": "hh-sol-artifact-1",
  "contractName": "Main",
  "sourceName": "contracts/src/Main.sol",
  "abi": [
    {
      "inputs": [],
      "stateMutability": "nonpayable",
      "type": "constructor"
    },
    {
      "inputs": [
        {
          "internalType": "address",
          "name": "owner",
          "type": "address"
        }
      ],
      "name": "OwnableInvalidOwner",
      "type": "error"
    },
    {
      "inputs": [
        {
          "internalType": "address",
          "name": "account",
          "type": "address"
        }
      ],
      "name": "OwnableUnauthorizedAccount",
      "type": "error"
    },
    {
      "anonymous": false,
      "inputs": [
        {
          "indexed": false,
          "internalType": "string",
          "name": "name",
          "type": "string"
        }
      ],
      "name": "CollectionCreated",
      "type": "event"
    },
    {
      "anonymous": false,
      "inputs": [
        {
          "indexed": true,
          "internalType": "address",
          "name": "previousOwner",
          "type": "address"
        },
        {
          "indexed": true,
          "internalType": "address",
          "name": "newOwner",
          "type": "address"
        }
      ],
      "name": "OwnershipTransferred",
      "type": "event"
    },
    {
      "anonymous": false,
      "inputs": [
        {
          "indexed": false,
          "internalType": "uint256",
          "name": "id",
          "type": "uint256"
        }
      ],
      "name": "TOKENID",
      "type": "event"
    },
    {
      "inputs": [
        {
          "internalType": "string",
          "name": "id",
          "type": "string"
        },
        {
          "internalType": "string",
          "name": "name",
          "type": "string"
        },
        {
          "internalType": "uint256",
          "name": "cardCount",
          "type": "uint256"
        }
      ],
      "name": "createCollectionWithCards",
      "outputs": [],
      "stateMutability": "nonpayable",
      "type": "function"
    },
    {
      "inputs": [
        {
          "internalType": "int256",
          "name": "collectionId",
          "type": "int256"
        },
        {
          "internalType": "address",
          "name": "user",
          "type": "address"
        }
      ],
      "name": "getUserCards",
      "outputs": [
        {
          "internalType": "uint256[]",
          "name": "",
          "type": "uint256[]"
        }
      ],
      "stateMutability": "view",
      "type": "function"
    },
    {
      "inputs": [],
      "name": "getUsers",
      "outputs": [
        {
          "internalType": "address[]",
          "name": "",
          "type": "address[]"
        }
      ],
      "stateMutability": "view",
      "type": "function"
    },
    {
      "inputs": [
        {
          "internalType": "string",
          "name": "collectionId",
          "type": "string"
        },
        {
          "internalType": "address",
          "name": "to",
          "type": "address"
        },
        {
          "internalType": "string",
          "name": "tokenURI",
          "type": "string"
        }
      ],
      "name": "mint",
      "outputs": [
        {
          "internalType": "uint256",
          "name": "",
          "type": "uint256"
        }
      ],
      "stateMutability": "nonpayable",
      "type": "function"
    },
    {
      "inputs": [],
      "name": "owner",
      "outputs": [
        {
          "internalType": "address",
          "name": "",
          "type": "address"
        }
      ],
      "stateMutability": "view",
      "type": "function"
    },
    {
      "inputs": [],
      "name": "renounceOwnership",
      "outputs": [],
      "stateMutability": "nonpayable",
      "type": "function"
    },
    {
      "inputs": [
        {
          "internalType": "address",
          "name": "newOwner",
          "type": "address"
        }
      ],
      "name": "transferOwnership",
      "outputs": [],
      "stateMutability": "nonpayable",
      "type": "function"
    },
    {
      "inputs": [
        {
          "internalType": "uint256",
          "name": "",
          "type": "uint256"
        }
      ],
      "name": "users",
      "outputs": [
        {
          "internalType": "address",
          "name": "",
          "type": "address"
        }
      ],
      "stateMutability": "view",
      "type": "function"
    }
  ],
  "bytecode": "0x6080604052348015600f57600080fd5b50738626f6940e2eb28930efb4cef49b2d1f2c9c1199602c816035565b50600180556085565b600080546001600160a01b038381166001600160a01b0319831681178455604051919092169283917f8be0079c531659141344cd1fd0a4f28419497f9722a3daafe3b4186f6b6457e09190a35050565b612a6b806100946000396000f3fe608060405234801561001057600080fd5b50600436106100875760003560e01c8063821ddd311161005b578063821ddd31146100f25780638da5cb5b14610112578063ad6cf0a514610123578063f2fde38b1461014457600080fd5b8062ce8e3e1461008c57806327823b94146100aa578063365b98b2146100bf578063715018a6146100ea575b600080fd5b610094610157565b6040516100a1919061057d565b60405180910390f35b6100bd6100b8366004610612565b6101b9565b005b6100d26100cd36600461068b565b610309565b6040516001600160a01b0390911681526020016100a1565b6100bd610333565b6101056101003660046106c0565b610347565b6040516100a191906106ec565b6000546001600160a01b03166100d2565b61013661013136600461076b565b6103d1565b6040519081526020016100a1565b6100bd610152366004610848565b6104b0565b606060048054806020026020016040519081016040528092919081815260200182805480156101af57602002820191906000526020600020905b81546001600160a01b03168152600190910190602001808311610191575b5050505050905090565b6101c16104f3565b7ff2e193f96c77b8eebe5989f9851e54078a47d1e2d8e3ca74dca8a4aeb249aebf83836040516101f2929190610893565b60405180910390a1600030905060008185858560405161021190610570565b61021e94939291906108a7565b604051809103906000f08015801561023a573d6000803e3d6000fd5b509050806002600060016000815480929190610255906108f3565b91905055815260200190815260200160002060006101000a8154816001600160a01b0302191690836001600160a01b03160217905550600260006001805461029d9190610912565b815260200190815260200160002060009054906101000a90046001600160a01b0316600388886040516102d1929190610939565b90815260405190819003602001902080546001600160a01b03929092166001600160a01b031990921691909117905550505050505050565b6004818154811061031957600080fd5b6000918252602090912001546001600160a01b0316905081565b61033b6104f3565b6103456000610520565b565b600082815260026020526040908190205490516328cee46960e11b81526001600160a01b0383811660048301526060921690819063519dc8d290602401600060405180830381865afa1580156103a1573d6000803e3d6000fd5b505050506040513d6000823e601f3d908101601f191682016040526103c99190810190610949565b949350505050565b60006103db6104f3565b6000600386866040516103ef929190610939565b9081526040519081900360200181205463335f94f360e21b82526001600160a01b03169063cd7e53cc9061042990879087906004016109fa565b6020604051808303816000875af1158015610448573d6000803e3d6000fd5b505050506040513d601f19601f8201168201806040525081019061046c9190610a57565b90507f507c17549beddb84c153a5b2cade2c6ad50221c3860593221cc4d2cdccee1f568160405161049f91815260200190565b60405180910390a195945050505050565b6104b86104f3565b6001600160a01b0381166104e757604051631e4fbdf760e01b8152600060048201526024015b60405180910390fd5b6104f081610520565b50565b6000546001600160a01b031633146103455760405163118cdaa760e01b81523360048201526024016104de565b600080546001600160a01b038381166001600160a01b0319831681178455604051919092169283917f8be0079c531659141344cd1fd0a4f28419497f9722a3daafe3b4186f6b6457e09190a35050565b611fc580610a7183390190565b602080825282518282018190526000918401906040840190835b818110156105be5783516001600160a01b0316835260209384019390920191600101610597565b509095945050505050565b60008083601f8401126105db57600080fd5b50813567ffffffffffffffff8111156105f357600080fd5b60208301915083602082850101111561060b57600080fd5b9250929050565b60008060008060006060868803121561062a57600080fd5b853567ffffffffffffffff81111561064157600080fd5b61064d888289016105c9565b909650945050602086013567ffffffffffffffff81111561066d57600080fd5b610679888289016105c9565b96999598509660400135949350505050565b60006020828403121561069d57600080fd5b5035919050565b80356001600160a01b03811681146106bb57600080fd5b919050565b600080604083850312156106d357600080fd5b823591506106e3602084016106a4565b90509250929050565b602080825282518282018190526000918401906040840190835b818110156105be578351835260209384019390920191600101610706565b634e487b7160e01b600052604160045260246000fd5b604051601f8201601f1916810167ffffffffffffffff8111828210171561076357610763610724565b604052919050565b6000806000806060858703121561078157600080fd5b843567ffffffffffffffff81111561079857600080fd5b6107a4878288016105c9565b90955093506107b79050602086016106a4565b9150604085013567ffffffffffffffff8111156107d357600080fd5b8501601f810187136107e457600080fd5b803567ffffffffffffffff8111156107fe576107fe610724565b610811601f8201601f191660200161073a565b81815288602083850101111561082657600080fd5b8160208401602083013760006020838301015280935050505092959194509250565b60006020828403121561085a57600080fd5b610863826106a4565b9392505050565b81835281816020850137506000828201602090810191909152601f909101601f19169091010190565b6020815260006103c960208301848661086a565b6001600160a01b03851681526060602082018190526000906108cc908301858761086a565b905082604083015295945050505050565b634e487b7160e01b600052601160045260246000fd5b60006001600160ff1b01820161090b5761090b6108dd565b5060010190565b8181036000831280158383131683831282161715610932576109326108dd565b5092915050565b8183823760009101908152919050565b60006020828403121561095b57600080fd5b815167ffffffffffffffff81111561097257600080fd5b8201601f8101841361098357600080fd5b805167ffffffffffffffff81111561099d5761099d610724565b8060051b6109ad6020820161073a565b918252602081840181019290810190878411156109c957600080fd5b6020850194505b838510156109ef578451808352602095860195909350909101906109d0565b979650505050505050565b60018060a01b0383168152604060208201526000825180604084015260005b81811015610a365760208186018101516060868401015201610a19565b506000606082850101526060601f19601f8301168401019150509392505050565b600060208284031215610a6957600080fd5b505191905056fe60806040526000600f5534801561001557600080fd5b50604051611fc5380380611fc5833981016040819052610034916101f2565b60408051808201909152600381526254434760e81b602082015283908390600061005e8382610359565b50600161006b8282610359565b5050506001600160a01b03811661009c57604051631e4fbdf760e01b81526000600482015260240160405180910390fd5b6100a5816100e8565b50600c6100b28382610359565b5080600d819055506100db604051806060016040528060238152602001611fa26023913961013a565b50506000600e555061044a565b600b80546001600160a01b038381166001600160a01b0319831681179093556040519116919082907f8be0079c531659141344cd1fd0a4f28419497f9722a3daafe3b4186f6b6457e090600090a35050565b6101818160405160240161014e9190610417565b60408051601f198184030181529190526020810180516001600160e01b0390811663104c13eb60e21b1790915261018416565b50565b6101818161019760201b6108721760201c565b60006a636f6e736f6c652e6c6f679050600080835160208501845afa505050565b634e487b7160e01b600052604160045260246000fd5b60005b838110156101e95781810151838201526020016101d1565b50506000910152565b60008060006060848603121561020757600080fd5b83516001600160a01b038116811461021e57600080fd5b60208501519093506001600160401b0381111561023a57600080fd5b8401601f8101861361024b57600080fd5b80516001600160401b03811115610264576102646101b8565b604051601f8201601f19908116603f011681016001600160401b0381118282101715610292576102926101b8565b6040528181528282016020018810156102aa57600080fd5b6102bb8260208301602086016101ce565b60409690960151949795965093949350505050565b600181811c908216806102e457607f821691505b60208210810361030457634e487b7160e01b600052602260045260246000fd5b50919050565b601f82111561035457806000526020600020601f840160051c810160208510156103315750805b601f840160051c820191505b81811015610351576000815560010161033d565b50505b505050565b81516001600160401b03811115610372576103726101b8565b6103868161038084546102d0565b8461030a565b6020601f8211600181146103ba57600083156103a25750848201515b600019600385901b1c1916600184901b178455610351565b600084815260208120601f198516915b828110156103ea57878501518255602094850194600190920191016103ca565b50848210156104085786840151600019600387901b60f8161c191681555b50505050600190811b01905550565b60208152600082518060208401526104368160408501602087016101ce565b601f01601f19169190910160400192915050565b611b49806104596000396000f3fe608060405234801561001057600080fd5b50600436106101735760003560e01c80636352211e116100de578063b88d4fde11610097578063cf721b1511610071578063cf721b1514610322578063e5326ab11461032b578063e985e9c514610333578063f2fde38b1461034657600080fd5b8063b88d4fde146102e9578063c87b56dd146102fc578063cd7e53cc1461030f57600080fd5b80636352211e1461028f57806370a08231146102a2578063715018a6146102b55780638da5cb5b146102bd57806395d89b41146102ce578063a22cb465146102d657600080fd5b806323b872dd1161013057806323b872dd146102105780632f745c59146102235780633a50cda71461023657806342842e0e146102495780634f6ccce71461025c578063519dc8d21461026f57600080fd5b806301ffc9a71461017857806306fdde03146101a0578063081812fc146101b5578063095ea7b3146101e057806318160ddd146101f55780631b6cde1014610207575b600080fd5b61018b610186366004611539565b610359565b60405190151581526020015b60405180910390f35b6101a861036a565b60405161019791906115a6565b6101c86101c33660046115b9565b6103fc565b6040516001600160a01b039091168152602001610197565b6101f36101ee3660046115ee565b610425565b005b6009545b604051908152602001610197565b6101f9600d5481565b6101f361021e366004611618565b610434565b6101f96102313660046115ee565b6104c4565b6101f96102443660046115ee565b610529565b6101f3610257366004611618565b61055a565b6101f961026a3660046115b9565b61057a565b61028261027d366004611655565b6105d3565b6040516101979190611670565b6101c861029d3660046115b9565b61063f565b6101f96102b0366004611655565b61064a565b6101f3610692565b600b546001600160a01b03166101c8565b6101a86106a6565b6101f36102e43660046116b3565b6106b5565b6101f36102f736600461177f565b6106c0565b6101a861030a3660046115b9565b6106d8565b6101f961031d3660046117fb565b6106e3565b6101f9600e5481565b6101a8610778565b61018b61034136600461185d565b610806565b6101f3610354366004611655565b610834565b600061036482610893565b92915050565b60606000805461037990611890565b80601f01602080910402602001604051908101604052809291908181526020018280546103a590611890565b80156103f25780601f106103c7576101008083540402835291602001916103f2565b820191906000526020600020905b8154815290600101906020018083116103d557829003601f168201915b5050505050905090565b6000610407826108b8565b506000828152600460205260409020546001600160a01b0316610364565b6104308282336108f1565b5050565b6001600160a01b03821661046357604051633250574960e11b8152600060048201526024015b60405180910390fd5b60006104708383336108fe565b9050836001600160a01b0316816001600160a01b0316146104be576040516364283d7b60e01b81526001600160a01b038086166004830152602482018490528216604482015260640161045a565b50505050565b60006104cf8361064a565b82106105005760405163295f44f760e21b81526001600160a01b03841660048201526024810183905260440161045a565b506001600160a01b03919091166000908152600760209081526040808320938352929052205490565b6010602052816000526040600020818154811061054557600080fd5b90600052602060002001600091509150505481565b610575838383604051806020016040528060008152506106c0565b505050565b600061058560095490565b82106105ae5760405163295f44f760e21b8152600060048201526024810183905260440161045a565b600982815481106105c1576105c16118ca565b90600052602060002001549050919050565b6001600160a01b03811660009081526010602090815260409182902080548351818402810184019094528084526060939283018282801561063357602002820191906000526020600020905b81548152602001906001019080831161061f575b50505050509050919050565b6000610364826108b8565b60006001600160a01b038216610676576040516322718ad960e21b81526000600482015260240161045a565b506001600160a01b031660009081526003602052604090205490565b61069a610913565b6106a46000610940565b565b60606001805461037990611890565b610430338383610992565b6106cb848484610434565b6104be3385858585610a31565b606061036482610b5c565b60006106ed610913565b600f80549060006106fd836118f6565b9091555050600f5461070f8482610c8a565b6107198184610cef565b6001600160a01b038416600090815260106020908152604080832080546001810182559084529282902090920183905581518083019092526009825268026b4b73a32b2101d160bd1b90820152610771908483610d3f565b9392505050565b600c805461078590611890565b80601f01602080910402602001604051908101604052809291908181526020018280546107b190611890565b80156107fe5780601f106107d3576101008083540402835291602001916107fe565b820191906000526020600020905b8154815290600101906020018083116107e157829003601f168201915b505050505081565b6001600160a01b03918216600090815260056020908152604080832093909416825291909152205460ff1690565b61083c610913565b6001600160a01b03811661086657604051631e4fbdf760e01b81526000600482015260240161045a565b61086f81610940565b50565b60006a636f6e736f6c652e6c6f679050600080835160208501845afa505050565b60006001600160e01b0319821663780e9d6360e01b1480610364575061036482610d86565b6000818152600260205260408120546001600160a01b03168061036457604051637e27328960e01b81526004810184905260240161045a565b6105758383836001610dab565b600061090b848484610eb1565b949350505050565b600b546001600160a01b031633146106a45760405163118cdaa760e01b815233600482015260240161045a565b600b80546001600160a01b038381166001600160a01b0319831681179093556040519116919082907f8be0079c531659141344cd1fd0a4f28419497f9722a3daafe3b4186f6b6457e090600090a35050565b6001600160a01b0382166109c457604051630b61174360e31b81526001600160a01b038316600482015260240161045a565b6001600160a01b03838116600081815260056020908152604080832094871680845294825291829020805460ff191686151590811790915591519182527f17307eab39ab6107e8899845ad3d59bd9653f200f220920489ca2b5937696c31910160405180910390a3505050565b6001600160a01b0383163b15610b5557604051630a85bd0160e11b81526001600160a01b0384169063150b7a0290610a7390889088908790879060040161190f565b6020604051808303816000875af1925050508015610aae575060408051601f3d908101601f19168201909252610aab9181019061194c565b60015b610b17573d808015610adc576040519150601f19603f3d011682016040523d82523d6000602084013e610ae1565b606091505b508051600003610b0f57604051633250574960e11b81526001600160a01b038516600482015260240161045a565b805181602001fd5b6001600160e01b03198116630a85bd0160e11b14610b5357604051633250574960e11b81526001600160a01b038516600482015260240161045a565b505b5050505050565b6060610b67826108b8565b5060008281526006602052604081208054610b8190611890565b80601f0160208091040260200160405190810160405280929190818152602001828054610bad90611890565b8015610bfa5780601f10610bcf57610100808354040283529160200191610bfa565b820191906000526020600020905b815481529060010190602001808311610bdd57829003601f168201915b505050505090506000610c3d60408051808201909152601e81527f687474703a2f2f6c6f63616c686f73743a333033302f676574436172642f0000602082015290565b90508051600003610c4f575092915050565b815115610c81578082604051602001610c69929190611969565b60405160208183030381529060405292505050919050565b61090b84610f7e565b6001600160a01b038216610cb457604051633250574960e11b81526000600482015260240161045a565b6000610cc2838360006108fe565b90506001600160a01b03811615610575576040516339e3563760e11b81526000600482015260240161045a565b6000828152600660205260409020610d0782826119df565b506040518281527ff8e1a15aba9398e019f0b49df1a4fde98ee17ae345cb5f6b5e2c27f5033e8ce79060200160405180910390a15050565b610575838383604051602401610d5793929190611a9e565b60408051601f198184030181529190526020810180516001600160e01b0316635821efa160e01b179052611017565b60006001600160e01b03198216632483248360e11b1480610364575061036482611020565b8080610dbf57506001600160a01b03821615155b15610e81576000610dcf846108b8565b90506001600160a01b03831615801590610dfb5750826001600160a01b0316816001600160a01b031614155b8015610e0e5750610e0c8184610806565b155b15610e375760405163a9fbf51f60e01b81526001600160a01b038416600482015260240161045a565b8115610e7f5783856001600160a01b0316826001600160a01b03167f8c5be1e5ebec7d5bd14f71427d1e84f3dd0314c0f7b2291e5b200ac8c7c3b92560405160405180910390a45b505b5050600090815260046020526040902080546001600160a01b0319166001600160a01b0392909216919091179055565b600080610ebf858585611070565b90506001600160a01b038116610f1c57610f1784600980546000838152600a60205260408120829055600182018355919091527f6e1540171b6c0c960b71a7020d9f60077f6af931a8bbf590da0223dacf75c7af0155565b610f3f565b846001600160a01b0316816001600160a01b031614610f3f57610f3f8185611169565b6001600160a01b038516610f5b57610f56846111ea565b61090b565b846001600160a01b0316816001600160a01b03161461090b5761090b8585611299565b6060610f89826108b8565b506000610fc660408051808201909152601e81527f687474703a2f2f6c6f63616c686f73743a333033302f676574436172642f0000602082015290565b90506000815111610fe65760405180602001604052806000815250610771565b80610ff0846112e9565b604051602001611001929190611969565b6040516020818303038152906040529392505050565b61086f81610872565b60006001600160e01b031982166380ac58cd60e01b148061105157506001600160e01b03198216635b5e139f60e01b145b8061036457506301ffc9a760e01b6001600160e01b0319831614610364565b6000828152600260205260408120546001600160a01b039081169083161561109d5761109d81848661137c565b6001600160a01b038116156110db576110ba600085600080610dab565b6001600160a01b038116600090815260036020526040902080546000190190555b6001600160a01b0385161561110a576001600160a01b0385166000908152600360205260409020805460010190555b60008481526002602052604080822080546001600160a01b0319166001600160a01b0389811691821790925591518793918516917fddf252ad1be2c89b69c2b068fc378daa952ba7f163c4a11628f55a4df523b3ef91a4949350505050565b60006111748361064a565b6000838152600860209081526040808320546001600160a01b03881684526007909252909120919250908183146111cb57600083815260208281526040808320548584528184208190558352600890915290208290555b6000938452600860209081526040808620869055938552525081205550565b6009546000906111fc90600190611ad4565b6000838152600a602052604081205460098054939450909284908110611224576112246118ca565b906000526020600020015490508060098381548110611245576112456118ca565b6000918252602080832090910192909255828152600a9091526040808220849055858252812055600980548061127d5761127d611ae7565b6001900381819060005260206000200160009055905550505050565b600060016112a68461064a565b6112b09190611ad4565b6001600160a01b039093166000908152600760209081526040808320868452825280832085905593825260089052919091209190915550565b606060006112f6836113e0565b600101905060008167ffffffffffffffff811115611316576113166116ef565b6040519080825280601f01601f191660200182016040528015611340576020820181803683370190505b5090508181016020015b600019016f181899199a1a9b1b9c1cb0b131b232b360811b600a86061a8153600a850494508461134a57509392505050565b6113878383836114b8565b610575576001600160a01b0383166113b557604051637e27328960e01b81526004810182905260240161045a565b60405163177e802f60e01b81526001600160a01b03831660048201526024810182905260440161045a565b60008072184f03e93ff9f4daa797ed6e38ed64bf6a1f0160401b831061141f5772184f03e93ff9f4daa797ed6e38ed64bf6a1f0160401b830492506040015b6d04ee2d6d415b85acef8100000000831061144b576d04ee2d6d415b85acef8100000000830492506020015b662386f26fc10000831061146957662386f26fc10000830492506010015b6305f5e1008310611481576305f5e100830492506008015b612710831061149557612710830492506004015b606483106114a7576064830492506002015b600a83106103645760010192915050565b60006001600160a01b0383161580159061090b5750826001600160a01b0316846001600160a01b031614806114f257506114f28484610806565b8061090b5750506000908152600460205260409020546001600160a01b03908116911614919050565b6106a4611afd565b6001600160e01b03198116811461086f57600080fd5b60006020828403121561154b57600080fd5b813561077181611523565b60005b83811015611571578181015183820152602001611559565b50506000910152565b60008151808452611592816020860160208601611556565b601f01601f19169290920160200192915050565b602081526000610771602083018461157a565b6000602082840312156115cb57600080fd5b5035919050565b80356001600160a01b03811681146115e957600080fd5b919050565b6000806040838503121561160157600080fd5b61160a836115d2565b946020939093013593505050565b60008060006060848603121561162d57600080fd5b611636846115d2565b9250611644602085016115d2565b929592945050506040919091013590565b60006020828403121561166757600080fd5b610771826115d2565b602080825282518282018190526000918401906040840190835b818110156116a857835183526020938401939092019160010161168a565b509095945050505050565b600080604083850312156116c657600080fd5b6116cf836115d2565b9150602083013580151581146116e457600080fd5b809150509250929050565b634e487b7160e01b600052604160045260246000fd5b60008067ffffffffffffffff841115611720576117206116ef565b50604051601f19601f85018116603f0116810181811067ffffffffffffffff8211171561174f5761174f6116ef565b60405283815290508082840185101561176757600080fd5b83836020830137600060208583010152509392505050565b6000806000806080858703121561179557600080fd5b61179e856115d2565b93506117ac602086016115d2565b925060408501359150606085013567ffffffffffffffff8111156117cf57600080fd5b8501601f810187136117e057600080fd5b6117ef87823560208401611705565b91505092959194509250565b6000806040838503121561180e57600080fd5b611817836115d2565b9150602083013567ffffffffffffffff81111561183357600080fd5b8301601f8101851361184457600080fd5b61185385823560208401611705565b9150509250929050565b6000806040838503121561187057600080fd5b611879836115d2565b9150611887602084016115d2565b90509250929050565b600181811c908216806118a457607f821691505b6020821081036118c457634e487b7160e01b600052602260045260246000fd5b50919050565b634e487b7160e01b600052603260045260246000fd5b634e487b7160e01b600052601160045260246000fd5b600060018201611908576119086118e0565b5060010190565b6001600160a01b03858116825284166020820152604081018390526080606082018190526000906119429083018461157a565b9695505050505050565b60006020828403121561195e57600080fd5b815161077181611523565b6000835161197b818460208801611556565b83519083019061198f818360208801611556565b01949350505050565b601f82111561057557806000526020600020601f840160051c810160208510156119bf5750805b601f840160051c820191505b81811015610b5557600081556001016119cb565b815167ffffffffffffffff8111156119f9576119f96116ef565b611a0d81611a078454611890565b84611998565b6020601f821160018114611a415760008315611a295750848201515b600019600385901b1c1916600184901b178455610b55565b600084815260208120601f198516915b82811015611a715787850151825560209485019460019092019101611a51565b5084821015611a8f5786840151600019600387901b60f8161c191681555b50505050600190811b01905550565b606081526000611ab1606083018661157a565b8281036020840152611ac3818661157a565b915050826040830152949350505050565b81810381811115610364576103646118e0565b634e487b7160e01b600052603160045260246000fd5b634e487b7160e01b600052605160045260246000fdfea26469706673582212209a57f37eafa92b01489bfa00baf0336557f5c90efa1eedbc27dd7867643a84bb64736f6c634300081b0033436f6c6c656374696f6e2e736f6c203a20436f6c6c656374696f6e2063726561746564a2646970667358221220df9004b044843708974f51fdd03364016e4801d9e70f6da56b388ec8827736b064736f6c634300081b0033",
  "linkReferences": {},
  "deployedLinkReferences": {}
}