{
  "_format": "hh-sol-artifact-1",
  "contractName": "Main",
  "sourceName": "contracts/src/Main.sol",
  "abi": [
    {
      "inputs": [],
      "stateMutability": "nonpayable",
      "type": "constructor"
    },
    {
      "inputs": [
        {
          "internalType": "address",
          "name": "owner",
          "type": "address"
        }
      ],
      "name": "OwnableInvalidOwner",
      "type": "error"
    },
    {
      "inputs": [
        {
          "internalType": "address",
          "name": "account",
          "type": "address"
        }
      ],
      "name": "OwnableUnauthorizedAccount",
      "type": "error"
    },
    {
      "anonymous": false,
      "inputs": [
        {
          "indexed": true,
          "internalType": "address",
          "name": "previousOwner",
          "type": "address"
        },
        {
          "indexed": true,
          "internalType": "address",
          "name": "newOwner",
          "type": "address"
        }
      ],
      "name": "OwnershipTransferred",
      "type": "event"
    },
    {
      "inputs": [
        {
          "internalType": "string",
          "name": "id",
          "type": "string"
        },
        {
          "internalType": "string",
          "name": "name",
          "type": "string"
        },
        {
          "internalType": "string",
          "name": "img",
          "type": "string"
        },
        {
          "internalType": "uint256",
          "name": "cardCount",
          "type": "uint256"
        },
        {
          "components": [
            {
              "internalType": "uint256",
              "name": "id",
              "type": "uint256"
            },
            {
              "internalType": "string",
              "name": "name",
              "type": "string"
            },
            {
              "internalType": "string",
              "name": "uri",
              "type": "string"
            }
          ],
          "internalType": "struct Collection.Card[]",
          "name": "_cards",
          "type": "tuple[]"
        }
      ],
      "name": "createCollectionWithCards",
      "outputs": [],
      "stateMutability": "nonpayable",
      "type": "function"
    },
    {
      "inputs": [],
      "name": "getCollections",
      "outputs": [
        {
          "internalType": "contract Collection[]",
          "name": "",
          "type": "address[]"
        }
      ],
      "stateMutability": "view",
      "type": "function"
    },
    {
      "inputs": [
        {
          "internalType": "address",
          "name": "to",
          "type": "address"
        }
      ],
      "name": "getUserCardsDetailed",
      "outputs": [
        {
          "components": [
            {
              "internalType": "uint256",
              "name": "id",
              "type": "uint256"
            },
            {
              "internalType": "string",
              "name": "name",
              "type": "string"
            },
            {
              "internalType": "string",
              "name": "uri",
              "type": "string"
            }
          ],
          "internalType": "struct Collection.Card[]",
          "name": "",
          "type": "tuple[]"
        }
      ],
      "stateMutability": "view",
      "type": "function"
    },
    {
      "inputs": [
        {
          "internalType": "string",
          "name": "collectionId",
          "type": "string"
        },
        {
          "internalType": "address",
          "name": "to",
          "type": "address"
        },
        {
          "components": [
            {
              "internalType": "uint256",
              "name": "id",
              "type": "uint256"
            },
            {
              "internalType": "string",
              "name": "name",
              "type": "string"
            },
            {
              "internalType": "string",
              "name": "uri",
              "type": "string"
            }
          ],
          "internalType": "struct Collection.Card",
          "name": "card",
          "type": "tuple"
        }
      ],
      "name": "mint",
      "outputs": [
        {
          "internalType": "uint256",
          "name": "",
          "type": "uint256"
        }
      ],
      "stateMutability": "nonpayable",
      "type": "function"
    },
    {
      "inputs": [],
      "name": "owner",
      "outputs": [
        {
          "internalType": "address",
          "name": "",
          "type": "address"
        }
      ],
      "stateMutability": "view",
      "type": "function"
    },
    {
      "inputs": [],
      "name": "renounceOwnership",
      "outputs": [],
      "stateMutability": "nonpayable",
      "type": "function"
    },
    {
      "inputs": [
        {
          "internalType": "address",
          "name": "from",
          "type": "address"
        },
        {
          "internalType": "address",
          "name": "to",
          "type": "address"
        },
        {
          "internalType": "uint256",
          "name": "cardId",
          "type": "uint256"
        }
      ],
      "name": "tradeCard",
      "outputs": [],
      "stateMutability": "nonpayable",
      "type": "function"
    },
    {
      "inputs": [
        {
          "internalType": "address",
          "name": "newOwner",
          "type": "address"
        }
      ],
      "name": "transferOwnership",
      "outputs": [],
      "stateMutability": "nonpayable",
      "type": "function"
    }
  ],
  "bytecode": "0x6080604052348015600f57600080fd5b50738626f6940e2eb28930efb4cef49b2d1f2c9c1199602c816035565b50600180556085565b600080546001600160a01b038381166001600160a01b0319831681178455604051919092169283917f8be0079c531659141344cd1fd0a4f28419497f9722a3daafe3b4186f6b6457e09190a35050565b613250806100946000396000f3fe608060405234801561001057600080fd5b50600436106100785760003560e01c806304b756621461007d57806346e6358614610092578063715018a6146100b05780637c1f0cba146100b85780638da5cb5b146100cb578063e03c83a6146100e4578063ed2b3e3214610105578063f2fde38b14610125575b600080fd5b61009061008b366004610a78565b610138565b005b61009a6101e1565b6040516100a79190610be1565b60405180910390f35b610090610243565b6100906100c6366004610c49565b610257565b6000546001600160a01b03166040516100a79190610c86565b6100f76100f2366004610c9a565b610407565b6040519081526020016100a7565b610118610113366004610d18565b610610565b6040516100a79190610e17565b610090610133366004610d18565b6107b3565b6101406107fa565b600088883089898989898960405161015790610877565b61016999989796959493929190610e53565b604051809103906000f080158015610185573d6000803e3d6000fd5b50600280546001810182556000919091527f405787fa12a823e0f2b7631cc41b3ba8828b3321ca811111fa75cd3aa3bb5ace0180546001600160a01b0319166001600160a01b0392909216919091179055505050505050505050565b6060600280548060200260200160405190810160405280929190818152602001828054801561023957602002820191906000526020600020905b81546001600160a01b0316815260019091019060200180831161021b575b5050505050905090565b61024b6107fa565b6102556000610827565b565b61025f6107fa565b6001600160a01b0383166000908152600360205260408120905b8154811015610400578282828154811061029557610295610ec8565b906000526020600020906003020160000154036103f8576001600160a01b038416600090815260036020526040902082548390839081106102d8576102d8610ec8565b60009182526020808320845460018181018755958552919093206003928302909301805491909202909201918255918181019061031790840182610f79565b5060028181019061032a90840182610f79565b5050825483915061033d9060019061104f565b8154811061034d5761034d610ec8565b906000526020600020906003020182828154811061036d5761036d610ec8565b60009182526020909120825460039092020190815560018082019061039490840182610f79565b506002818101906103a790840182610f79565b50905050818054806103bb576103bb611076565b600082815260208120600360001990930192830201818155906103e16001830182610884565b6103ef600283016000610884565b50509055610400565b600101610279565b5050505050565b60006104116107fa565b60005b60025481101561060657858560405160200161043192919061108c565b604051602081830303815290604052805190602001206002828154811061045a5761045a610ec8565b600091825260208220015460408051635d1ca63160e01b815290516001600160a01b0390921692635d1ca631926004808401938290030181865afa1580156104a6573d6000803e3d6000fd5b505050506040513d6000823e601f3d908101601f191682016040526104ce919081019061109c565b6040516020016104de9190611112565b60405160208183030381529060405280519060200120036105fe5760006002828154811061050e5761050e610ec8565b600091825260209091200154604080860151905163335f94f360e21b81526001600160a01b039092169163cd7e53cc9161054d9189919060040161112e565b6020604051808303816000875af115801561056c573d6000803e3d6000fd5b505050506040513d601f19601f820116820180604052508101906105909190611152565b6001600160a01b03861660009081526003602081815260408320805460018181018355918552938290208951949093029092019283558701519293508692908201906105dc908261116b565b50604082015160028201906105f1908261116b565b5050508092505050610608565b600101610414565b505b949350505050565b6001600160a01b0381166000908152600360209081526040808320805482518185028101850190935280835260609492939192909184015b828210156107a857838290600052602060002090600302016040518060600160405290816000820154815260200160018201805461068590610ede565b80601f01602080910402602001604051908101604052809291908181526020018280546106b190610ede565b80156106fe5780601f106106d3576101008083540402835291602001916106fe565b820191906000526020600020905b8154815290600101906020018083116106e157829003601f168201915b5050505050815260200160028201805461071790610ede565b80601f016020809104026020016040519081016040528092919081815260200182805461074390610ede565b80156107905780601f1061076557610100808354040283529160200191610790565b820191906000526020600020905b81548152906001019060200180831161077357829003601f168201915b50505050508152505081526020019060010190610648565b505050509050919050565b6107bb6107fa565b6001600160a01b0381166107ee576000604051631e4fbdf760e01b81526004016107e59190610c86565b60405180910390fd5b6107f781610827565b50565b6000546001600160a01b03163314610255573360405163118cdaa760e01b81526004016107e59190610c86565b600080546001600160a01b038381166001600160a01b0319831681178455604051919092169283917f8be0079c531659141344cd1fd0a4f28419497f9722a3daafe3b4186f6b6457e09190a35050565b6120068061121583390190565b50805461089090610ede565b6000825580601f106108a0575050565b601f0160209004906000526020600020908101906107f791905b808211156108ce57600081556001016108ba565b5090565b60008083601f8401126108e457600080fd5b5081356001600160401b038111156108fb57600080fd5b60208301915083602082850101111561091357600080fd5b9250929050565b634e487b7160e01b600052604160045260246000fd5b604051601f8201601f191681016001600160401b03811182821017156109585761095861091a565b604052919050565b60006001600160401b038211156109795761097961091a565b50601f01601f191660200190565b600082601f83011261099857600080fd5b81356109ab6109a682610960565b610930565b8181528460208386010111156109c057600080fd5b816020850160208301376000918101602001919091529392505050565b6000606082840312156109ef57600080fd5b604051606081016001600160401b0381118282101715610a1157610a1161091a565b6040528235815290508060208301356001600160401b03811115610a3457600080fd5b610a4085828601610987565b60208301525060408301356001600160401b03811115610a5f57600080fd5b610a6b85828601610987565b6040830152505092915050565b60008060008060008060008060a0898b031215610a9457600080fd5b6001600160401b0389351115610aa957600080fd5b610ab68a8a358b016108d2565b909850965060208901356001600160401b03811115610ad457600080fd5b610ae08b828c016108d2565b90975095505060408901356001600160401b03811115610aff57600080fd5b610b0b8b828c016108d2565b9095509350506060890135915060808901356001600160401b03811115610b3157600080fd5b8901601f81018b13610b4257600080fd5b80356001600160401b03811115610b5b57610b5b61091a565b8060051b610b6b60208201610930565b9182526020818401810192908101908e841115610b8757600080fd5b6020850192505b83831015610bcc576001600160401b0383351115610bab57600080fd5b610bbb8f602085358801016109dd565b825260209283019290910190610b8e565b80955050505050509295985092959890939650565b602080825282518282018190526000918401906040840190835b81811015610c225783516001600160a01b0316835260209384019390920191600101610bfb565b509095945050505050565b80356001600160a01b0381168114610c4457600080fd5b919050565b600080600060608486031215610c5e57600080fd5b610c6784610c2d565b9250610c7560208501610c2d565b929592945050506040919091013590565b6001600160a01b0391909116815260200190565b60008060008060608587031215610cb057600080fd5b84356001600160401b03811115610cc657600080fd5b610cd2878288016108d2565b9095509350610ce5905060208601610c2d565b915060408501356001600160401b03811115610d0057600080fd5b610d0c878288016109dd565b91505092959194509250565b600060208284031215610d2a57600080fd5b610d3382610c2d565b9392505050565b60005b83811015610d55578181015183820152602001610d3d565b50506000910152565b60008151808452610d76816020860160208601610d3a565b601f01601f19169290920160200192915050565b600082825180855260208501945060208160051b8301016020850160005b83811015610e0b57601f19858403018852815180518452602081015160606020860152610dd86060860182610d5e565b9050604082015191508481036040860152610df38183610d5e565b60209a8b019a90955093909301925050600101610da8565b50909695505050505050565b602081526000610d336020830184610d8a565b81835281816020850137506000828201602090810191909152601f909101601f19169091010190565b60c081526000610e6760c083018b8d610e2a565b6001600160a01b038a1660208401528281036040840152610e8981898b610e2a565b90508281036060840152610e9e818789610e2a565b905084608084015282810360a0840152610eb88185610d8a565b9c9b505050505050505050505050565b634e487b7160e01b600052603260045260246000fd5b600181811c90821680610ef257607f821691505b602082108103610f1257634e487b7160e01b600052602260045260246000fd5b50919050565b601f821115610f5f57806000526020600020601f840160051c81016020851015610f3f5750805b601f840160051c820191505b818110156104005760008155600101610f4b565b505050565b600019600383901b1c191660019190911b1790565b818103610f84575050565b610f8e8254610ede565b6001600160401b03811115610fa557610fa561091a565b610fb981610fb38454610ede565b84610f18565b6000601f821160018114610fe75760008315610fd55750848201545b610fdf8482610f64565b855550610400565b600085815260209020601f19841690600086815260209020845b838110156110215782860154825560019586019590910190602001611001565b508583101561103f5781850154600019600388901b60f8161c191681555b5050505050600190811b01905550565b8181038181111561107057634e487b7160e01b600052601160045260246000fd5b92915050565b634e487b7160e01b600052603160045260246000fd5b8183823760009101908152919050565b6000602082840312156110ae57600080fd5b81516001600160401b038111156110c457600080fd5b8201601f810184136110d557600080fd5b80516110e36109a682610960565b8181528560208385010111156110f857600080fd5b611109826020830160208601610d3a565b95945050505050565b60008251611124818460208701610d3a565b9190910192915050565b6001600160a01b038316815260406020820181905260009061060890830184610d5e565b60006020828403121561116457600080fd5b5051919050565b81516001600160401b038111156111845761118461091a565b61119281610fb38454610ede565b6020601f8211600181146111b75760008315610fd5575084820151610fdf8482610f64565b600084815260208120601f198516915b828110156111e757878501518255602094850194600190920191016111c7565b50848210156112055786840151600019600387901b60f8161c191681555b50505050600190811b0190555056fe608060405234801561001057600080fd5b5060405161200638038061200683398101604081905261002f916103ce565b60408051808201909152600381526254434760e81b60208201528590859060006100598382610531565b5060016100668282610531565b5050506001600160a01b03811661009757604051631e4fbdf760e01b81526000600482015260240160405180910390fd5b6100a081610155565b50600c6100ad8782610531565b5060086100ba8582610531565b5060096100c78482610531565b50600a82905560005b815181101561014957600d8282815181106100ed576100ed6105ef565b60209081029190910181015182546001818101855560009485529383902082516003909202019081559181015190928201906101299082610531565b506040820151600282019061013e9082610531565b5050506001016100d0565b50505050505050610605565b600780546001600160a01b038381166001600160a01b0319831681179093556040519116919082907f8be0079c531659141344cd1fd0a4f28419497f9722a3daafe3b4186f6b6457e090600090a35050565b634e487b7160e01b600052604160045260246000fd5b604051606081016001600160401b03811182821017156101df576101df6101a7565b60405290565b604051601f8201601f191681016001600160401b038111828210171561020d5761020d6101a7565b604052919050565b600082601f83011261022657600080fd5b81516001600160401b0381111561023f5761023f6101a7565b610252601f8201601f19166020016101e5565b81815284602083860101111561026757600080fd5b60005b828110156102865760208186018101518383018201520161026a565b506000918101602001919091529392505050565b80516001600160a01b03811681146102b157600080fd5b919050565b600082601f8301126102c757600080fd5b81516001600160401b038111156102e0576102e06101a7565b8060051b6102f0602082016101e5565b9182526020818501810192908101908684111561030c57600080fd5b6020860192505b838310156103c45782516001600160401b0381111561033157600080fd5b86016060818903601f1901121561034757600080fd5b61034f6101bd565b6020820151815260408201516001600160401b0381111561036f57600080fd5b61037e8a602083860101610215565b60208301525060608201516001600160401b0381111561039d57600080fd5b6103ac8a602083860101610215565b60408301525083525060209283019290910190610313565b9695505050505050565b60008060008060008060c087890312156103e757600080fd5b86516001600160401b038111156103fd57600080fd5b61040989828a01610215565b9650506104186020880161029a565b60408801519095506001600160401b0381111561043457600080fd5b61044089828a01610215565b606089015190955090506001600160401b0381111561045e57600080fd5b61046a89828a01610215565b608089015160a08a0151919550935090506001600160401b0381111561048f57600080fd5b61049b89828a016102b6565b9150509295509295509295565b600181811c908216806104bc57607f821691505b6020821081036104dc57634e487b7160e01b600052602260045260246000fd5b50919050565b601f82111561052c57806000526020600020601f840160051c810160208510156105095750805b601f840160051c820191505b818110156105295760008155600101610515565b50505b505050565b81516001600160401b0381111561054a5761054a6101a7565b61055e8161055884546104a8565b846104e2565b6020601f821160018114610592576000831561057a5750848201515b600019600385901b1c1916600184901b178455610529565b600084815260208120601f198516915b828110156105c257878501518255602094850194600190920191016105a2565b50848210156105e05786840151600019600387901b60f8161c191681555b50505050600190811b01905550565b634e487b7160e01b600052603260045260246000fd5b6119f2806106146000396000f3fe608060405234801561001057600080fd5b50600436106101635760003560e01c8063715018a6116100ce578063b0df9e5311610087578063b0df9e53146102b3578063b88d4fde146102c8578063c87b56dd146102db578063cd7e53cc146102ee578063e5326ab114610301578063e985e9c514610309578063f2fde38b1461031c57600080fd5b8063715018a6146102555780638da5cb5b1461025d5780638dc107681461026e57806395d89b4114610290578063a22cb46514610298578063af640d0f146102ab57600080fd5b806323b872dd1161012057806323b872dd146101f9578063426bfd001461020c57806342842e0e146102145780635d1ca631146102275780636352211e1461022f57806370a082311461024257600080fd5b806301ffc9a71461016857806306fdde0314610190578063081812fc146101a5578063095ea7b3146101c55780630b6700d6146101da5780631b6cde10146101e2575b600080fd5b61017b6101763660046113ad565b61032f565b60405190151581526020015b60405180910390f35b610198610340565b604051610187919061141a565b6101b86101b336600461142d565b6103d2565b6040516101879190611446565b6101d86101d3366004611476565b6103fb565b005b61019861040a565b6101eb600a5481565b604051908152602001610187565b6101d86102073660046114a0565b610419565b6101986104ad565b6101d86102223660046114a0565b61053b565b61019861055b565b6101b861023d36600461142d565b61056a565b6101eb6102503660046114dd565b610575565b6101d86105bd565b6007546001600160a01b03166101b8565b61028161027c36600461142d565b6105d1565b604051610187939291906114f8565b610198610717565b6101d86102a636600461152d565b610726565b610198610731565b6102bb61073e565b6040516101879190611569565b6101d86102d636600461168f565b6108cb565b6101986102e936600461142d565b6108e3565b6101eb6102fc36600461170b565b6109e7565b610198610a50565b61017b61031736600461176d565b610a5d565b6101d861032a3660046114dd565b610a8b565b600061033a82610ac9565b92915050565b60606000805461034f906117a0565b80601f016020809104026020016040519081016040528092919081815260200182805461037b906117a0565b80156103c85780601f1061039d576101008083540402835291602001916103c8565b820191906000526020600020905b8154815290600101906020018083116103ab57829003601f168201915b5050505050905090565b60006103dd82610aee565b506000828152600460205260409020546001600160a01b031661033a565b610406828233610b27565b5050565b60606009805461034f906117a0565b6001600160a01b03821661044c576000604051633250574960e11b81526004016104439190611446565b60405180910390fd5b6000610459838333610b34565b9050836001600160a01b0316816001600160a01b0316146104a7576040516364283d7b60e01b81526001600160a01b0380861660048301526024820184905282166044820152606401610443565b50505050565b600980546104ba906117a0565b80601f01602080910402602001604051908101604052809291908181526020018280546104e6906117a0565b80156105335780601f1061050857610100808354040283529160200191610533565b820191906000526020600020905b81548152906001019060200180831161051657829003601f168201915b505050505081565b610556838383604051806020016040528060008152506108cb565b505050565b6060600c805461034f906117a0565b600061033a82610aee565b60006001600160a01b0382166105a15760006040516322718ad960e21b81526004016104439190611446565b506001600160a01b031660009081526003602052604090205490565b6105c5610c2d565b6105cf6000610c5a565b565b600d81815481106105e157600080fd5b60009182526020909120600390910201805460018201805491935090610606906117a0565b80601f0160208091040260200160405190810160405280929190818152602001828054610632906117a0565b801561067f5780601f106106545761010080835404028352916020019161067f565b820191906000526020600020905b81548152906001019060200180831161066257829003601f168201915b505050505090806002018054610694906117a0565b80601f01602080910402602001604051908101604052809291908181526020018280546106c0906117a0565b801561070d5780601f106106e25761010080835404028352916020019161070d565b820191906000526020600020905b8154815290600101906020018083116106f057829003601f168201915b5050505050905083565b60606001805461034f906117a0565b610406338383610cac565b600c80546104ba906117a0565b6060600d805480602002602001604051908101604052809291908181526020016000905b828210156108c257838290600052602060002090600302016040518060600160405290816000820154815260200160018201805461079f906117a0565b80601f01602080910402602001604051908101604052809291908181526020018280546107cb906117a0565b80156108185780601f106107ed57610100808354040283529160200191610818565b820191906000526020600020905b8154815290600101906020018083116107fb57829003601f168201915b50505050508152602001600282018054610831906117a0565b80601f016020809104026020016040519081016040528092919081815260200182805461085d906117a0565b80156108aa5780601f1061087f576101008083540402835291602001916108aa565b820191906000526020600020905b81548152906001019060200180831161088d57829003601f168201915b50505050508152505081526020019060010190610762565b50505050905090565b6108d6848484610419565b6104a73385858585610d42565b60606108ee82610aee565b5060008281526006602052604081208054610908906117a0565b80601f0160208091040260200160405190810160405280929190818152602001828054610934906117a0565b80156109815780601f1061095657610100808354040283529160200191610981565b820191906000526020600020905b81548152906001019060200180831161096457829003601f168201915b505050505090506000610992610e5b565b905080516000036109a4575092915050565b8151156109d65780826040516020016109be9291906117da565b60405160208183030381529060405292505050919050565b6109df84610e8b565b949350505050565b60006109f1610c2d565b600b8054906000610a0183611809565b9091555050600b54610a138482610ef2565b610a1d8184610f57565b610a4960405180604001604052806009815260200168026b4b73a32b2101d160bd1b8152508483610fa7565b9392505050565b600880546104ba906117a0565b6001600160a01b03918216600090815260056020908152604080832093909416825291909152205460ff1690565b610a93610c2d565b6001600160a01b038116610abd576000604051631e4fbdf760e01b81526004016104439190611446565b610ac681610c5a565b50565b60006001600160e01b03198216632483248360e11b148061033a575061033a82610fee565b6000818152600260205260408120546001600160a01b03168061033a57604051637e27328960e01b815260048101849052602401610443565b610556838383600161103e565b6000828152600260205260408120546001600160a01b0390811690831615610b6157610b6181848661113b565b6001600160a01b03811615610b9f57610b7e60008560008061103e565b6001600160a01b038116600090815260036020526040902080546000190190555b6001600160a01b03851615610bce576001600160a01b0385166000908152600360205260409020805460010190555b60008481526002602052604080822080546001600160a01b0319166001600160a01b0389811691821790925591518793918516917fddf252ad1be2c89b69c2b068fc378daa952ba7f163c4a11628f55a4df523b3ef91a4949350505050565b6007546001600160a01b031633146105cf573360405163118cdaa760e01b81526004016104439190611446565b600780546001600160a01b038381166001600160a01b0319831681179093556040519116919082907f8be0079c531659141344cd1fd0a4f28419497f9722a3daafe3b4186f6b6457e090600090a35050565b6001600160a01b038216610cd55781604051630b61174360e31b81526004016104439190611446565b6001600160a01b03838116600081815260056020908152604080832094871680845294825291829020805460ff191686151590811790915591519182527f17307eab39ab6107e8899845ad3d59bd9653f200f220920489ca2b5937696c31910160405180910390a3505050565b6001600160a01b0383163b15610e5457604051630a85bd0160e11b81526001600160a01b0384169063150b7a0290610d84908890889087908790600401611830565b6020604051808303816000875af1925050508015610dbf575060408051601f3d908101601f19168201909252610dbc91810190611863565b60015b610e1f573d808015610ded576040519150601f19603f3d011682016040523d82523d6000602084013e610df2565b606091505b508051600003610e175783604051633250574960e11b81526004016104439190611446565b805181602001fd5b6001600160e01b03198116630a85bd0160e11b14610e525783604051633250574960e11b81526004016104439190611446565b505b5050505050565b604080518082019091526016815275687474703a2f2f6c6f63616c686f73743a333030312f60501b602082015290565b6060610e9682610aee565b506000610ea1610e5b565b90506000815111610ec15760405180602001604052806000815250610a49565b80610ecb8461119f565b604051602001610edc9291906117da565b6040516020818303038152906040529392505050565b6001600160a01b038216610f1c576000604051633250574960e11b81526004016104439190611446565b6000610f2a83836000610b34565b90506001600160a01b038116156105565760006040516339e3563760e11b81526004016104439190611446565b6000828152600660205260409020610f6f82826118c7565b506040518281527ff8e1a15aba9398e019f0b49df1a4fde98ee17ae345cb5f6b5e2c27f5033e8ce79060200160405180910390a15050565b610556838383604051602401610fbf93929190611986565b60408051601f198184030181529190526020810180516001600160e01b0316635821efa160e01b179052611232565b60006001600160e01b031982166380ac58cd60e01b148061101f57506001600160e01b03198216635b5e139f60e01b145b8061033a57506301ffc9a760e01b6001600160e01b031983161461033a565b808061105257506001600160a01b03821615155b1561110b57600061106284610aee565b90506001600160a01b0383161580159061108e5750826001600160a01b0316816001600160a01b031614155b80156110a1575061109f8184610a5d565b155b156110c1578260405163a9fbf51f60e01b81526004016104439190611446565b81156111095783856001600160a01b0316826001600160a01b03167f8c5be1e5ebec7d5bd14f71427d1e84f3dd0314c0f7b2291e5b200ac8c7c3b92560405160405180910390a45b505b5050600090815260046020526040902080546001600160a01b0319166001600160a01b0392909216919091179055565b61114683838361123b565b610556576001600160a01b03831661117457604051637e27328960e01b815260048101829052602401610443565b60405163177e802f60e01b81526001600160a01b038316600482015260248101829052604401610443565b606060006111ac8361129e565b600101905060008167ffffffffffffffff8111156111cc576111cc6115ff565b6040519080825280601f01601f1916602001820160405280156111f6576020820181803683370190505b5090508181016020015b600019016f181899199a1a9b1b9c1cb0b131b232b360811b600a86061a8153600a850494508461120057509392505050565b610ac681611376565b60006001600160a01b038316158015906109df5750826001600160a01b0316846001600160a01b0316148061127557506112758484610a5d565b806109df5750506000908152600460205260409020546001600160a01b03908116911614919050565b60008072184f03e93ff9f4daa797ed6e38ed64bf6a1f0160401b83106112dd5772184f03e93ff9f4daa797ed6e38ed64bf6a1f0160401b830492506040015b6d04ee2d6d415b85acef81000000008310611309576d04ee2d6d415b85acef8100000000830492506020015b662386f26fc10000831061132757662386f26fc10000830492506010015b6305f5e100831061133f576305f5e100830492506008015b612710831061135357612710830492506004015b60648310611365576064830492506002015b600a831061033a5760010192915050565b60006a636f6e736f6c652e6c6f679050600080835160208501845afa505050565b6001600160e01b031981168114610ac657600080fd5b6000602082840312156113bf57600080fd5b8135610a4981611397565b60005b838110156113e55781810151838201526020016113cd565b50506000910152565b600081518084526114068160208601602086016113ca565b601f01601f19169290920160200192915050565b602081526000610a4960208301846113ee565b60006020828403121561143f57600080fd5b5035919050565b6001600160a01b0391909116815260200190565b80356001600160a01b038116811461147157600080fd5b919050565b6000806040838503121561148957600080fd5b6114928361145a565b946020939093013593505050565b6000806000606084860312156114b557600080fd5b6114be8461145a565b92506114cc6020850161145a565b929592945050506040919091013590565b6000602082840312156114ef57600080fd5b610a498261145a565b83815260606020820152600061151160608301856113ee565b828103604084015261152381856113ee565b9695505050505050565b6000806040838503121561154057600080fd5b6115498361145a565b91506020830135801515811461155e57600080fd5b809150509250929050565b6000602082016020835280845180835260408501915060408160051b86010192506020860160005b828110156115f357603f198786030184528151805186526020810151606060208801526115c160608801826113ee565b90506040820151915086810360408801526115dc81836113ee565b965050506020938401939190910190600101611591565b50929695505050505050565b634e487b7160e01b600052604160045260246000fd5b60008067ffffffffffffffff841115611630576116306115ff565b50604051601f19601f85018116603f0116810181811067ffffffffffffffff8211171561165f5761165f6115ff565b60405283815290508082840185101561167757600080fd5b83836020830137600060208583010152509392505050565b600080600080608085870312156116a557600080fd5b6116ae8561145a565b93506116bc6020860161145a565b925060408501359150606085013567ffffffffffffffff8111156116df57600080fd5b8501601f810187136116f057600080fd5b6116ff87823560208401611615565b91505092959194509250565b6000806040838503121561171e57600080fd5b6117278361145a565b9150602083013567ffffffffffffffff81111561174357600080fd5b8301601f8101851361175457600080fd5b61176385823560208401611615565b9150509250929050565b6000806040838503121561178057600080fd5b6117898361145a565b91506117976020840161145a565b90509250929050565b600181811c908216806117b457607f821691505b6020821081036117d457634e487b7160e01b600052602260045260246000fd5b50919050565b600083516117ec8184602088016113ca565b8351908301906118008183602088016113ca565b01949350505050565b60006001820161182957634e487b7160e01b600052601160045260246000fd5b5060010190565b6001600160a01b0385811682528416602082015260408101839052608060608201819052600090611523908301846113ee565b60006020828403121561187557600080fd5b8151610a4981611397565b601f82111561055657806000526020600020601f840160051c810160208510156118a75750805b601f840160051c820191505b81811015610e5457600081556001016118b3565b815167ffffffffffffffff8111156118e1576118e16115ff565b6118f5816118ef84546117a0565b84611880565b6020601f82116001811461192957600083156119115750848201515b600019600385901b1c1916600184901b178455610e54565b600084815260208120601f198516915b828110156119595787850151825560209485019460019092019101611939565b50848210156119775786840151600019600387901b60f8161c191681555b50505050600190811b01905550565b60608152600061199960608301866113ee565b82810360208401526119ab81866113ee565b91505082604083015294935050505056fea26469706673582212207c12bb6103109c17f2e4f68f69cfa3fb6f7d96835f332363777c6ce19e1e74ce64736f6c634300081b0033a2646970667358221220924161571249e6e2424af268eb73f2a588042254cf7d2c588b9846c71977796764736f6c634300081b0033",
  "linkReferences": {},
  "deployedLinkReferences": {}
}